{
  "contractName": "Guer",
  "abi": [
    {
      "inputs": [],
      "stateMutability": "payable",
      "type": "constructor",
      "payable": true
    },
    {
      "inputs": [],
      "name": "getGuerOwnerAddress",
      "outputs": [
        {
          "internalType": "address",
          "name": "",
          "type": "address"
        }
      ],
      "stateMutability": "view",
      "type": "function",
      "constant": true
    },
    {
      "inputs": [],
      "name": "doPayRoyalty",
      "outputs": [
        {
          "internalType": "bool",
          "name": "",
          "type": "bool"
        }
      ],
      "stateMutability": "payable",
      "type": "function",
      "payable": true
    },
    {
      "inputs": [
        {
          "internalType": "address payable",
          "name": "docAddress",
          "type": "address"
        },
        {
          "internalType": "bytes32",
          "name": "_name",
          "type": "bytes32"
        },
        {
          "internalType": "bytes32",
          "name": "_email",
          "type": "bytes32"
        },
        {
          "internalType": "bytes32",
          "name": "_mobile",
          "type": "bytes32"
        },
        {
          "internalType": "bytes",
          "name": "_image",
          "type": "bytes"
        }
      ],
      "name": "updateUserProfile",
      "outputs": [],
      "stateMutability": "payable",
      "type": "function",
      "payable": true
    },
    {
      "inputs": [
        {
          "internalType": "bytes32",
          "name": "_name",
          "type": "bytes32"
        },
        {
          "internalType": "bytes32",
          "name": "_email",
          "type": "bytes32"
        },
        {
          "internalType": "bytes32",
          "name": "_mobile",
          "type": "bytes32"
        },
        {
          "internalType": "bytes",
          "name": "_image",
          "type": "bytes"
        }
      ],
      "name": "createNFT",
      "outputs": [],
      "stateMutability": "payable",
      "type": "function",
      "payable": true
    },
    {
      "inputs": [],
      "name": "getUserNFTs",
      "outputs": [
        {
          "internalType": "address[]",
          "name": "",
          "type": "address[]"
        }
      ],
      "stateMutability": "view",
      "type": "function",
      "constant": true
    },
    {
      "inputs": [
        {
          "internalType": "address payable",
          "name": "docAddress",
          "type": "address"
        }
      ],
      "name": "getNFTInfo",
      "outputs": [
        {
          "internalType": "address",
          "name": "",
          "type": "address"
        },
        {
          "internalType": "bytes32",
          "name": "",
          "type": "bytes32"
        },
        {
          "internalType": "bytes32",
          "name": "",
          "type": "bytes32"
        },
        {
          "internalType": "bytes32",
          "name": "",
          "type": "bytes32"
        },
        {
          "internalType": "bytes",
          "name": "",
          "type": "bytes"
        },
        {
          "internalType": "uint256",
          "name": "",
          "type": "uint256"
        },
        {
          "internalType": "address[]",
          "name": "",
          "type": "address[]"
        },
        {
          "internalType": "address[]",
          "name": "",
          "type": "address[]"
        },
        {
          "internalType": "uint256",
          "name": "",
          "type": "uint256"
        }
      ],
      "stateMutability": "view",
      "type": "function",
      "constant": true
    },
    {
      "inputs": [
        {
          "internalType": "address payable",
          "name": "docAddress",
          "type": "address"
        }
      ],
      "name": "doGetPhotoCount",
      "outputs": [
        {
          "internalType": "uint256",
          "name": "",
          "type": "uint256"
        }
      ],
      "stateMutability": "view",
      "type": "function",
      "constant": true
    },
    {
      "inputs": [
        {
          "internalType": "address payable",
          "name": "docAddress",
          "type": "address"
        },
        {
          "internalType": "uint256",
          "name": "_id",
          "type": "uint256"
        }
      ],
      "name": "doGetPhoto",
      "outputs": [
        {
          "internalType": "string",
          "name": "",
          "type": "string"
        },
        {
          "internalType": "string",
          "name": "",
          "type": "string"
        },
        {
          "internalType": "uint256",
          "name": "",
          "type": "uint256"
        },
        {
          "internalType": "string",
          "name": "",
          "type": "string"
        }
      ],
      "stateMutability": "view",
      "type": "function",
      "constant": true
    },
    {
      "inputs": [
        {
          "internalType": "address payable",
          "name": "docAddress",
          "type": "address"
        },
        {
          "internalType": "string",
          "name": "_location",
          "type": "string"
        },
        {
          "internalType": "string",
          "name": "_name",
          "type": "string"
        },
        {
          "internalType": "string",
          "name": "_filetype",
          "type": "string"
        }
      ],
      "name": "doAddPhoto",
      "outputs": [],
      "stateMutability": "nonpayable",
      "type": "function"
    },
    {
      "inputs": [
        {
          "internalType": "address payable",
          "name": "docAddress",
          "type": "address"
        },
        {
          "internalType": "uint256",
          "name": "_id",
          "type": "uint256"
        }
      ],
      "name": "doRemovePhoto",
      "outputs": [],
      "stateMutability": "nonpayable",
      "type": "function"
    },
    {
      "inputs": [
        {
          "internalType": "address payable",
          "name": "docAddress",
          "type": "address"
        },
        {
          "internalType": "address",
          "name": "_partner",
          "type": "address"
        },
        {
          "internalType": "string",
          "name": "_location",
          "type": "string"
        },
        {
          "internalType": "string",
          "name": "_key",
          "type": "string"
        }
      ],
      "name": "doAddMessage",
      "outputs": [],
      "stateMutability": "nonpayable",
      "type": "function"
    },
    {
      "inputs": [
        {
          "internalType": "address payable",
          "name": "docAddress",
          "type": "address"
        },
        {
          "internalType": "address",
          "name": "_partner",
          "type": "address"
        }
      ],
      "name": "doGetMessages",
      "outputs": [
        {
          "internalType": "string",
          "name": "",
          "type": "string"
        },
        {
          "internalType": "string",
          "name": "",
          "type": "string"
        }
      ],
      "stateMutability": "view",
      "type": "function",
      "constant": true
    },
    {
      "inputs": [
        {
          "internalType": "address payable",
          "name": "docAddress",
          "type": "address"
        },
        {
          "internalType": "address",
          "name": "_userAddress",
          "type": "address"
        }
      ],
      "name": "doRemoveUserFromMiaAddressBook",
      "outputs": [],
      "stateMutability": "nonpayable",
      "type": "function"
    },
    {
      "inputs": [
        {
          "internalType": "address payable",
          "name": "docAddress",
          "type": "address"
        },
        {
          "internalType": "address",
          "name": "_otherAccount",
          "type": "address"
        },
        {
          "internalType": "bytes32",
          "name": "_name",
          "type": "bytes32"
        },
        {
          "internalType": "bool",
          "name": "_coowner",
          "type": "bool"
        }
      ],
      "name": "doAddUserToMiaAddressBook",
      "outputs": [],
      "stateMutability": "nonpayable",
      "type": "function"
    },
    {
      "inputs": [
        {
          "internalType": "address payable",
          "name": "docAddress",
          "type": "address"
        },
        {
          "internalType": "address payable",
          "name": "_receiver",
          "type": "address"
        },
        {
          "internalType": "uint256",
          "name": "_amount",
          "type": "uint256"
        }
      ],
      "name": "doTransferFunds",
      "outputs": [],
      "stateMutability": "payable",
      "type": "function",
      "payable": true
    },
    {
      "inputs": [
        {
          "internalType": "address payable",
          "name": "docAddress",
          "type": "address"
        },
        {
          "internalType": "address",
          "name": "_otherAccount",
          "type": "address"
        }
      ],
      "name": "doGetContactInfo",
      "outputs": [
        {
          "internalType": "address",
          "name": "",
          "type": "address"
        },
        {
          "internalType": "bytes32",
          "name": "",
          "type": "bytes32"
        },
        {
          "internalType": "bool",
          "name": "",
          "type": "bool"
        }
      ],
      "stateMutability": "view",
      "type": "function",
      "constant": true
    },
    {
      "inputs": [
        {
          "internalType": "address payable",
          "name": "docAddress",
          "type": "address"
        },
        {
          "internalType": "address",
          "name": "_userAddress",
          "type": "address"
        }
      ],
      "name": "getNFTUserPhotoAccess",
      "outputs": [
        {
          "internalType": "bool",
          "name": "",
          "type": "bool"
        }
      ],
      "stateMutability": "view",
      "type": "function",
      "constant": true
    },
    {
      "inputs": [
        {
          "internalType": "address payable",
          "name": "docAddress",
          "type": "address"
        },
        {
          "internalType": "address",
          "name": "_userAddress",
          "type": "address"
        }
      ],
      "name": "getNFTUserGeneralAccess",
      "outputs": [
        {
          "internalType": "bool",
          "name": "",
          "type": "bool"
        }
      ],
      "stateMutability": "view",
      "type": "function",
      "constant": true
    },
    {
      "inputs": [
        {
          "internalType": "address payable",
          "name": "docAddress",
          "type": "address"
        },
        {
          "internalType": "address",
          "name": "_userAddress",
          "type": "address"
        }
      ],
      "name": "getNFTUserPersonalAccess",
      "outputs": [
        {
          "internalType": "bool",
          "name": "",
          "type": "bool"
        }
      ],
      "stateMutability": "view",
      "type": "function",
      "constant": true
    },
    {
      "inputs": [
        {
          "internalType": "address payable",
          "name": "docAddress",
          "type": "address"
        },
        {
          "internalType": "address",
          "name": "_userAddress",
          "type": "address"
        }
      ],
      "name": "getNFTUserPermissions",
      "outputs": [
        {
          "internalType": "bytes[]",
          "name": "",
          "type": "bytes[]"
        }
      ],
      "stateMutability": "view",
      "type": "function",
      "constant": true
    },
    {
      "inputs": [
        {
          "internalType": "address payable",
          "name": "docAddress",
          "type": "address"
        }
      ],
      "name": "doGetMarketplaceJson",
      "outputs": [
        {
          "internalType": "string",
          "name": "",
          "type": "string"
        }
      ],
      "stateMutability": "view",
      "type": "function",
      "constant": true
    },
    {
      "inputs": [
        {
          "internalType": "address payable",
          "name": "docAddress",
          "type": "address"
        },
        {
          "internalType": "string",
          "name": "_json",
          "type": "string"
        }
      ],
      "name": "doUpdateMarketplaceJson",
      "outputs": [],
      "stateMutability": "nonpayable",
      "type": "function"
    }
  ],
  "bytecode": "0x608060405233600260006101000a81548173ffffffffffffffffffffffffffffffffffffffff021916908373ffffffffffffffffffffffffffffffffffffffff160217905550615b75806100546000396000f3fe60806040526004361062000139576000357c01000000000000000000000000000000000000000000000000000000009004806303eb48c1146200013e578063095c7783146200015e57806334df8ca514620001aa57806337f5353b14620001ee5780633b4406f2146200023257806340b56232146200027957806345f7cd9814620002a757806349e2727c14620002d557806358cb20e014620003035780635be2046e14620003475780635c41f369146200037557806361d63a0314620003955780638f9079ea14620003b75780639aa7314414620003e5578063aab4a3671462000429578063b2b4ba8e1462000449578063bcdef128146200048d578063caaa19e614620004d3578063e84a8aa61462000501578063f14568b21462000531578063fdc5ab8e1462000575578063fdd5d28514620005a5575b600080fd5b6200015c6004803603810190620001569190620018eb565b620005ea565b005b3480156200016b57600080fd5b506200018a60048036038101906200018491906200171e565b62000682565b604051620001a199989796959493929190620021ae565b60405180910390f35b348015620001b757600080fd5b50620001d66004803603810190620001d091906200174a565b62000753565b604051620001e59190620022f5565b60405180910390f35b348015620001fb57600080fd5b506200021a60048036038101906200021491906200174a565b62000808565b604051620002299190620022d1565b60405180910390f35b3480156200023f57600080fd5b506200025e600480360381019062000258919062001a97565b620008c2565b60405162000270949392919062002417565b60405180910390f35b3480156200028657600080fd5b50620002a560048036038101906200029f9190620019e0565b6200098a565b005b348015620002b457600080fd5b50620002d36004803603810190620002cd91906200174a565b62000a1f565b005b348015620002e257600080fd5b50620003016004803603810190620002fb919062001986565b62000ad1565b005b3480156200031057600080fd5b506200032f60048036038101906200032991906200174a565b62000b60565b6040516200033e9190620022f5565b60405180910390f35b3480156200035457600080fd5b506200037360048036038101906200036d919062001a97565b62000c15565b005b6200039360048036038101906200038d91906200178b565b62000ca4565b005b6200039f62000d34565b604051620003ae9190620022f5565b60405180910390f35b348015620003c457600080fd5b50620003e36004803603810190620003dd91906200184d565b62000d39565b005b348015620003f257600080fd5b506200041160048036038101906200040b91906200171e565b62000dce565b60405162000420919062002366565b60405180910390f35b62000447600480360381019062000441919062001cc3565b62000e7a565b005b3480156200045657600080fd5b506200047560048036038101906200046f91906200174a565b62000f64565b604051620004849190620022f5565b60405180910390f35b3480156200049a57600080fd5b50620004b96004803603810190620004b391906200174a565b62001019565b604051620004ca9392919062002171565b60405180910390f35b348015620004e057600080fd5b50620004ff6004803603810190620004f99190620017e1565b620010d6565b005b3480156200050e57600080fd5b50620005196200116b565b60405162000528919062002127565b60405180910390f35b3480156200053e57600080fd5b506200055d60048036038101906200055791906200171e565b62001195565b6040516200056c919062002479565b60405180910390f35b3480156200058257600080fd5b506200058d6200123c565b6040516200059c9190620022ad565b60405180910390f35b348015620005b257600080fd5b50620005d16004803603810190620005cb91906200174a565b62001309565b604051620005e19291906200238a565b60405180910390f35b8473ffffffffffffffffffffffffffffffffffffffff1663b917727b858585856040518563ffffffff167c010000000000000000000000000000000000000000000000000000000002815260040162000647949392919062002312565b600060405180830381600087803b1580156200066257600080fd5b505af115801562000677573d6000803e3d6000fd5b505050505050505050565b6000806000806060600060608060008973ffffffffffffffffffffffffffffffffffffffff1663ca1beaf36040518163ffffffff167c010000000000000000000000000000000000000000000000000000000002815260040160006040518083038186803b158015620006f457600080fd5b505afa15801562000709573d6000803e3d6000fd5b505050506040513d6000823e3d601f19601f8201168201806040525081019062000734919062001b2e565b9850985098509850985098509850985098509193959799909294969850565b60008273ffffffffffffffffffffffffffffffffffffffff1663806dc442836040518263ffffffff167c0100000000000000000000000000000000000000000000000000000000028152600401620007ac919062002127565b60206040518083038186803b158015620007c557600080fd5b505afa158015620007da573d6000803e3d6000fd5b505050506040513d601f19601f8201168201806040525081019062000800919062001c97565b905092915050565b60608273ffffffffffffffffffffffffffffffffffffffff166325fde663836040518263ffffffff167c010000000000000000000000000000000000000000000000000000000002815260040162000861919062002127565b60006040518083038186803b1580156200087a57600080fd5b505afa1580156200088f573d6000803e3d6000fd5b505050506040513d6000823e3d601f19601f82011682018060405250810190620008ba919062001c52565b905092915050565b606080600060608573ffffffffffffffffffffffffffffffffffffffff1663df9f60e9866040518263ffffffff167c010000000000000000000000000000000000000000000000000000000002815260040162000920919062002479565b60006040518083038186803b1580156200093957600080fd5b505afa1580156200094e573d6000803e3d6000fd5b505050506040513d6000823e3d601f19601f8201168201806040525081019062000979919062001e00565b935093509350935092959194509250565b8373ffffffffffffffffffffffffffffffffffffffff1663b3ebaa908484846040518463ffffffff167c0100000000000000000000000000000000000000000000000000000000028152600401620009e593929190620023c5565b600060405180830381600087803b15801562000a0057600080fd5b505af115801562000a15573d6000803e3d6000fd5b5050505050505050565b8173ffffffffffffffffffffffffffffffffffffffff166312b59533826040518263ffffffff167c010000000000000000000000000000000000000000000000000000000002815260040162000a76919062002127565b602060405180830381600087803b15801562000a9157600080fd5b505af115801562000aa6573d6000803e3d6000fd5b505050506040513d601f19601f8201168201806040525081019062000acc919062001c97565b505050565b8173ffffffffffffffffffffffffffffffffffffffff1663afb7b17e826040518263ffffffff167c010000000000000000000000000000000000000000000000000000000002815260040162000b28919062002366565b600060405180830381600087803b15801562000b4357600080fd5b505af115801562000b58573d6000803e3d6000fd5b505050505050565b60008273ffffffffffffffffffffffffffffffffffffffff16638136c38a836040518263ffffffff167c010000000000000000000000000000000000000000000000000000000002815260040162000bb9919062002127565b60206040518083038186803b15801562000bd257600080fd5b505afa15801562000be7573d6000803e3d6000fd5b505050506040513d601f19601f8201168201806040525081019062000c0d919062001c97565b905092915050565b8173ffffffffffffffffffffffffffffffffffffffff16634e3c650c826040518263ffffffff167c010000000000000000000000000000000000000000000000000000000002815260040162000c6c919062002479565b600060405180830381600087803b15801562000c8757600080fd5b505af115801562000c9c573d6000803e3d6000fd5b505050505050565b8273ffffffffffffffffffffffffffffffffffffffff1663990dc9db83836040518363ffffffff167c010000000000000000000000000000000000000000000000000000000002815260040162000cfd92919062002144565b60006040518083038186803b15801562000d1657600080fd5b505afa15801562000d2b573d6000803e3d6000fd5b50505050505050565b600090565b8373ffffffffffffffffffffffffffffffffffffffff1663c3685e898484846040518463ffffffff167c010000000000000000000000000000000000000000000000000000000002815260040162000d949392919062002262565b600060405180830381600087803b15801562000daf57600080fd5b505af115801562000dc4573d6000803e3d6000fd5b5050505050505050565b60608173ffffffffffffffffffffffffffffffffffffffff16633ba355f96040518163ffffffff167c010000000000000000000000000000000000000000000000000000000002815260040160006040518083038186803b15801562000e3357600080fd5b505afa15801562000e48573d6000803e3d6000fd5b505050506040513d6000823e3d601f19601f8201168201806040525081019062000e73919062001d48565b9050919050565b60008484848460405162000e8e90620013c7565b62000e9d949392919062002312565b604051809103906000f08015801562000eba573d6000803e3d6000fd5b509050600160003373ffffffffffffffffffffffffffffffffffffffff1673ffffffffffffffffffffffffffffffffffffffff168152602001908152602001600020819080600181540180825580915050600190039060005260206000200160009091909190916101000a81548173ffffffffffffffffffffffffffffffffffffffff021916908373ffffffffffffffffffffffffffffffffffffffff1602179055505050505050565b60008273ffffffffffffffffffffffffffffffffffffffff1663e7037563836040518263ffffffff167c010000000000000000000000000000000000000000000000000000000002815260040162000fbd919062002127565b60206040518083038186803b15801562000fd657600080fd5b505afa15801562000feb573d6000803e3d6000fd5b505050506040513d601f19601f8201168201806040525081019062001011919062001c97565b905092915050565b60008060008473ffffffffffffffffffffffffffffffffffffffff166383703df3856040518263ffffffff167c010000000000000000000000000000000000000000000000000000000002815260040162001075919062002127565b60606040518083038186803b1580156200108e57600080fd5b505afa158015620010a3573d6000803e3d6000fd5b505050506040513d601f19601f82011682018060405250810190620010c9919062001ad8565b9250925092509250925092565b8373ffffffffffffffffffffffffffffffffffffffff16633065a0d18484846040518463ffffffff167c0100000000000000000000000000000000000000000000000000000000028152600401620011319392919062002171565b600060405180830381600087803b1580156200114c57600080fd5b505af115801562001161573d6000803e3d6000fd5b5050505050505050565b6000600260009054906101000a900473ffffffffffffffffffffffffffffffffffffffff16905090565b60008173ffffffffffffffffffffffffffffffffffffffff1663055349a86040518163ffffffff167c010000000000000000000000000000000000000000000000000000000002815260040160206040518083038186803b158015620011fa57600080fd5b505afa1580156200120f573d6000803e3d6000fd5b505050506040513d601f19601f8201168201806040525081019062001235919062001eb7565b9050919050565b6060600160003373ffffffffffffffffffffffffffffffffffffffff1673ffffffffffffffffffffffffffffffffffffffff168152602001908152602001600020805480602002602001604051908101604052809291908181526020018280548015620012ff57602002820191906000526020600020905b8160009054906101000a900473ffffffffffffffffffffffffffffffffffffffff1673ffffffffffffffffffffffffffffffffffffffff1681526020019060010190808311620012b4575b5050505050905090565b6060808373ffffffffffffffffffffffffffffffffffffffff1663b2f71322846040518263ffffffff167c010000000000000000000000000000000000000000000000000000000002815260040162001363919062002127565b60006040518083038186803b1580156200137c57600080fd5b505afa15801562001391573d6000803e3d6000fd5b505050506040513d6000823e3d601f19601f82011682018060405250810190620013bc919062001d8d565b915091509250929050565b6133d4806200276c83390190565b600081359050620013e681620026e9565b92915050565b600081519050620013fd81620026e9565b92915050565b600081359050620014148162002703565b92915050565b600082601f8301126200142c57600080fd5b8151620014436200143d82620024c4565b62002496565b915081818352602084019350602081019050838560208402820111156200146957600080fd5b60005b838110156200149d5781620014828882620013ec565b8452602084019350602083019250506001810190506200146c565b5050505092915050565b600082601f830112620014b957600080fd5b8151620014d0620014ca82620024ed565b62002496565b9150818183526020840193506020810190508360005b838110156200151a5781518601620014ff8882620015dc565b845260208401935060208301925050600181019050620014e6565b5050505092915050565b60008135905062001535816200271d565b92915050565b6000815190506200154c816200271d565b92915050565b600081359050620015638162002737565b92915050565b6000815190506200157a8162002737565b92915050565b600082601f8301126200159257600080fd5b8135620015a9620015a38262002516565b62002496565b91508082526020830160208301858383011115620015c657600080fd5b620015d383828462002693565b50505092915050565b600082601f830112620015ee57600080fd5b815162001605620015ff8262002516565b62002496565b915080825260208301602083018583830111156200162257600080fd5b6200162f838284620026a2565b50505092915050565b600082601f8301126200164a57600080fd5b8135620016616200165b8262002543565b62002496565b915080825260208301602083018583830111156200167e57600080fd5b6200168b83828462002693565b50505092915050565b600082601f830112620016a657600080fd5b8151620016bd620016b78262002543565b62002496565b91508082526020830160208301858383011115620016da57600080fd5b620016e7838284620026a2565b50505092915050565b600081359050620017018162002751565b92915050565b600081519050620017188162002751565b92915050565b6000602082840312156200173157600080fd5b6000620017418482850162001403565b91505092915050565b600080604083850312156200175e57600080fd5b60006200176e8582860162001403565b92505060206200178185828601620013d5565b9150509250929050565b600080600060608486031215620017a157600080fd5b6000620017b18682870162001403565b9350506020620017c48682870162001403565b9250506040620017d786828701620016f0565b9150509250925092565b60008060008060808587031215620017f857600080fd5b6000620018088782880162001403565b94505060206200181b87828801620013d5565b93505060406200182e8782880162001552565b9250506060620018418782880162001524565b91505092959194509250565b600080600080608085870312156200186457600080fd5b6000620018748782880162001403565b94505060206200188787828801620013d5565b935050604085013567ffffffffffffffff811115620018a557600080fd5b620018b38782880162001638565b925050606085013567ffffffffffffffff811115620018d157600080fd5b620018df8782880162001638565b91505092959194509250565b600080600080600060a086880312156200190457600080fd5b6000620019148882890162001403565b9550506020620019278882890162001552565b94505060406200193a8882890162001552565b93505060606200194d8882890162001552565b925050608086013567ffffffffffffffff8111156200196b57600080fd5b620019798882890162001580565b9150509295509295909350565b600080604083850312156200199a57600080fd5b6000620019aa8582860162001403565b925050602083013567ffffffffffffffff811115620019c857600080fd5b620019d68582860162001638565b9150509250929050565b60008060008060808587031215620019f757600080fd5b600062001a078782880162001403565b945050602085013567ffffffffffffffff81111562001a2557600080fd5b62001a338782880162001638565b935050604085013567ffffffffffffffff81111562001a5157600080fd5b62001a5f8782880162001638565b925050606085013567ffffffffffffffff81111562001a7d57600080fd5b62001a8b8782880162001638565b91505092959194509250565b6000806040838503121562001aab57600080fd5b600062001abb8582860162001403565b925050602062001ace85828601620016f0565b9150509250929050565b60008060006060848603121562001aee57600080fd5b600062001afe86828701620013ec565b935050602062001b118682870162001569565b925050604062001b24868287016200153b565b9150509250925092565b60008060008060008060008060006101208a8c03121562001b4e57600080fd5b600062001b5e8c828d01620013ec565b995050602062001b718c828d0162001569565b985050604062001b848c828d0162001569565b975050606062001b978c828d0162001569565b96505060808a015167ffffffffffffffff81111562001bb557600080fd5b62001bc38c828d01620015dc565b95505060a062001bd68c828d0162001707565b94505060c08a015167ffffffffffffffff81111562001bf457600080fd5b62001c028c828d016200141a565b93505060e08a015167ffffffffffffffff81111562001c2057600080fd5b62001c2e8c828d016200141a565b92505061010062001c428c828d0162001707565b9150509295985092959850929598565b60006020828403121562001c6557600080fd5b600082015167ffffffffffffffff81111562001c8057600080fd5b62001c8e84828501620014a7565b91505092915050565b60006020828403121562001caa57600080fd5b600062001cba848285016200153b565b91505092915050565b6000806000806080858703121562001cda57600080fd5b600062001cea8782880162001552565b945050602062001cfd8782880162001552565b935050604062001d108782880162001552565b925050606085013567ffffffffffffffff81111562001d2e57600080fd5b62001d3c8782880162001580565b91505092959194509250565b60006020828403121562001d5b57600080fd5b600082015167ffffffffffffffff81111562001d7657600080fd5b62001d848482850162001694565b91505092915050565b6000806040838503121562001da157600080fd5b600083015167ffffffffffffffff81111562001dbc57600080fd5b62001dca8582860162001694565b925050602083015167ffffffffffffffff81111562001de857600080fd5b62001df68582860162001694565b9150509250929050565b6000806000806080858703121562001e1757600080fd5b600085015167ffffffffffffffff81111562001e3257600080fd5b62001e408782880162001694565b945050602085015167ffffffffffffffff81111562001e5e57600080fd5b62001e6c8782880162001694565b935050604062001e7f8782880162001707565b925050606085015167ffffffffffffffff81111562001e9d57600080fd5b62001eab8782880162001694565b91505092959194509250565b60006020828403121562001eca57600080fd5b600062001eda8482850162001707565b91505092915050565b600062001ef1838362001f24565b60208301905092915050565b600062001f0b838362002053565b905092915050565b62001f1e816200263f565b82525050565b62001f2f816200262b565b82525050565b62001f40816200262b565b82525050565b600062001f538262002590565b62001f5f8185620025d6565b935062001f6c8362002570565b8060005b8381101562001fa357815162001f87888262001ee3565b975062001f9483620025bc565b92505060018101905062001f70565b5085935050505092915050565b600062001fbd826200259b565b62001fc98185620025e7565b93508360208202850162001fdd8562002580565b8060005b858110156200201f578484038952815162001ffd858262001efd565b94506200200a83620025c9565b925060208a0199505060018101905062001fe1565b50829750879550505050505092915050565b6200203c8162002653565b82525050565b6200204d816200265f565b82525050565b60006200206082620025a6565b6200206c8185620025f8565b93506200207e818560208601620026a2565b6200208981620026d8565b840191505092915050565b6000620020a182620025a6565b620020ad818562002609565b9350620020bf818560208601620026a2565b620020ca81620026d8565b840191505092915050565b6000620020e282620025b1565b620020ee81856200261a565b935062002100818560208601620026a2565b6200210b81620026d8565b840191505092915050565b620021218162002689565b82525050565b60006020820190506200213e600083018462001f35565b92915050565b60006040820190506200215b600083018562001f13565b6200216a602083018462002116565b9392505050565b600060608201905062002188600083018662001f35565b62002197602083018562002042565b620021a6604083018462002031565b949350505050565b600061012082019050620021c6600083018c62001f35565b620021d5602083018b62002042565b620021e4604083018a62002042565b620021f3606083018962002042565b818103608083015262002207818862002094565b90506200221860a083018762002116565b81810360c08301526200222c818662001f46565b905081810360e083015262002242818562001f46565b90506200225461010083018462002116565b9a9950505050505050505050565b600060608201905062002279600083018662001f35565b81810360208301526200228d8185620020d5565b90508181036040830152620022a38184620020d5565b9050949350505050565b60006020820190508181036000830152620022c9818462001f46565b905092915050565b60006020820190508181036000830152620022ed818462001fb0565b905092915050565b60006020820190506200230c600083018462002031565b92915050565b600060808201905062002329600083018762002042565b62002338602083018662002042565b62002347604083018562002042565b81810360608301526200235b818462002094565b905095945050505050565b60006020820190508181036000830152620023828184620020d5565b905092915050565b60006040820190508181036000830152620023a68185620020d5565b90508181036020830152620023bc8184620020d5565b90509392505050565b60006060820190508181036000830152620023e18186620020d5565b90508181036020830152620023f78185620020d5565b905081810360408301526200240d8184620020d5565b9050949350505050565b60006080820190508181036000830152620024338187620020d5565b90508181036020830152620024498186620020d5565b90506200245a604083018562002116565b81810360608301526200246e8184620020d5565b905095945050505050565b600060208201905062002490600083018462002116565b92915050565b6000604051905081810181811067ffffffffffffffff82111715620024ba57600080fd5b8060405250919050565b600067ffffffffffffffff821115620024dc57600080fd5b602082029050602081019050919050565b600067ffffffffffffffff8211156200250557600080fd5b602082029050602081019050919050565b600067ffffffffffffffff8211156200252e57600080fd5b601f19601f8301169050602081019050919050565b600067ffffffffffffffff8211156200255b57600080fd5b601f19601f8301169050602081019050919050565b6000819050602082019050919050565b6000819050602082019050919050565b600081519050919050565b600081519050919050565b600081519050919050565b600081519050919050565b6000602082019050919050565b6000602082019050919050565b600082825260208201905092915050565b600082825260208201905092915050565b600082825260208201905092915050565b600082825260208201905092915050565b600082825260208201905092915050565b6000620026388262002669565b9050919050565b60006200264c8262002669565b9050919050565b60008115159050919050565b6000819050919050565b600073ffffffffffffffffffffffffffffffffffffffff82169050919050565b6000819050919050565b82818337600083830152505050565b60005b83811015620026c2578082015181840152602081019050620026a5565b83811115620026d2576000848401525b50505050565b6000601f19601f8301169050919050565b620026f4816200262b565b81146200270057600080fd5b50565b6200270e816200263f565b81146200271a57600080fd5b50565b620027288162002653565b81146200273457600080fd5b50565b62002742816200265f565b81146200274e57600080fd5b50565b6200275c8162002689565b81146200276857600080fd5b5056fe6080604052604051620033d4380380620033d4833981810160405281019062000029919062000296565b6040518060a001604052803373ffffffffffffffffffffffffffffffffffffffff16815260200185815260200184815260200183815260200182815250600560003373ffffffffffffffffffffffffffffffffffffffff1673ffffffffffffffffffffffffffffffffffffffff16815260200190815260200160002060008201518160000160006101000a81548173ffffffffffffffffffffffffffffffffffffffff021916908373ffffffffffffffffffffffffffffffffffffffff1602179055506020820151816001015560408201518160020155606082015181600301556080820151816004019080519060200190620001289291906200017d565b50905050306000806101000a81548173ffffffffffffffffffffffffffffffffffffffff021916908373ffffffffffffffffffffffffffffffffffffffff1602179055504260018190555050505050620003d0565b828054600181600116156101000203166002900490600052602060002090601f016020900481019282601f10620001c057805160ff1916838001178555620001f1565b82800160010185558215620001f1579182015b82811115620001f0578251825591602001919060010190620001d3565b5b50905062000200919062000204565b5090565b5b808211156200021f57600081600090555060010162000205565b5090565b6000815190506200023481620003b6565b92915050565b600082601f8301126200024c57600080fd5b8151620002636200025d8262000349565b6200031b565b915080825260208301602083018583830111156200028057600080fd5b6200028d83828462000380565b50505092915050565b60008060008060808587031215620002ad57600080fd5b6000620002bd8782880162000223565b9450506020620002d08782880162000223565b9350506040620002e38782880162000223565b925050606085015167ffffffffffffffff8111156200030157600080fd5b6200030f878288016200023a565b91505092959194509250565b6000604051905081810181811067ffffffffffffffff821117156200033f57600080fd5b8060405250919050565b600067ffffffffffffffff8211156200036157600080fd5b601f19601f8301169050602081019050919050565b6000819050919050565b60005b83811015620003a057808201518184015260208101905062000383565b83811115620003b0576000848401525b50505050565b620003c18162000376565b8114620003cd57600080fd5b50565b612ff480620003e06000396000f3fe608060405260043610610168576000357c010000000000000000000000000000000000000000000000000000000090048063055349a81461017157806312b595331461019c57806312d28b18146101cc57806316372ab0146101f75780631959a0021461022257806325fde663146102635780633065a0d1146102a05780633ba355f9146102bc5780634e3c650c146102e7578063510e43e4146103035780635aa4f5451461032e5780635fdd59f81461036b5780636ff19822146103a9578063806dc442146103e75780638136c38a1461042457806383703df314610461578063990dc9db146104a05780639ad449aa146104c9578063af2a5d6f14610509578063afb7b17e14610549578063b2f7132214610572578063b3ebaa90146105b0578063b917727b146105d9578063c3685e89146105f5578063ca052bf01461061e578063ca1beaf31461065e578063df9f60e914610691578063e7037563146106d15761016f565b3661016f57005b005b34801561017d57600080fd5b5061018661070e565b6040516101939190612d2e565b60405180910390f35b6101b660048036038101906101b191906125c7565b610718565b6040516101c39190612c37565b60405180910390f35b3480156101d857600080fd5b506101e1610a48565b6040516101ee9190612d2e565b60405180910390f35b34801561020357600080fd5b5061020c610a4e565b6040516102199190612d2e565b60405180910390f35b34801561022e57600080fd5b50610249600480360381019061024491906125c7565b610a54565b60405161025a959493929190612af7565b60405180910390f35b34801561026f57600080fd5b5061028a600480360381019061028591906125c7565b610b42565b6040516102979190612c15565b60405180910390f35b6102ba60048036038101906102b5919061262c565b610c61565b005b3480156102c857600080fd5b506102d1610d4c565b6040516102de9190612c7b565b60405180910390f35b61030160048036038101906102fc919061284d565b610dee565b005b34801561030f57600080fd5b50610318610ec7565b6040516103259190612d2e565b60405180910390f35b34801561033a57600080fd5b50610355600480360381019061035091906125c7565b610ecd565b6040516103629190612bf3565b60405180910390f35b34801561037757600080fd5b50610392600480360381019061038d91906125c7565b610ff9565b6040516103a0929190612c9d565b60405180910390f35b3480156103b557600080fd5b506103d060048036038101906103cb91906125c7565b61114d565b6040516103de929190612c52565b60405180910390f35b3480156103f357600080fd5b5061040e600480360381019061040991906125c7565b61117e565b60405161041b9190612c37565b60405180910390f35b34801561043057600080fd5b5061044b600480360381019061044691906125c7565b611220565b6040516104589190612c37565b60405180910390f35b34801561046d57600080fd5b50610488600480360381019061048391906125c7565b6112c2565b60405161049793929190612ac0565b60405180910390f35b3480156104ac57600080fd5b506104c760048036038101906104c291906125f0565b611368565b005b3480156104d557600080fd5b506104f060048036038101906104eb919061284d565b61136c565b6040516105009493929190612cd4565b60405180910390f35b34801561051557600080fd5b50610530600480360381019061052b919061284d565b611564565b6040516105409493929190612cd4565b60405180910390f35b34801561055557600080fd5b50610570600480360381019061056b9190612775565b61175c565b005b34801561057e57600080fd5b50610599600480360381019061059491906125c7565b611776565b6040516105a7929190612c9d565b60405180910390f35b3480156105bc57600080fd5b506105d760048036038101906105d291906127b6565b61193e565b005b6105f360048036038101906105ee91906126fa565b6119f3565b005b34801561060157600080fd5b5061061c6004803603810190610617919061267b565b611afa565b005b34801561062a57600080fd5b506106456004803603810190610640919061284d565b611bad565b6040516106559493929190612cd4565b60405180910390f35b34801561066a57600080fd5b50610673611da5565b60405161068899989796959493929190612b51565b60405180910390f35b34801561069d57600080fd5b506106b860048036038101906106b3919061284d565b6120b4565b6040516106c89493929190612cd4565b60405180910390f35b3480156106dd57600080fd5b506106f860048036038101906106f391906125c7565b6122f7565b6040516107059190612c37565b60405180910390f35b6000600854905090565b60008060005b6002805490508110156107ab578373ffffffffffffffffffffffffffffffffffffffff166002828154811061074f57fe5b9060005260206000200160009054906101000a900473ffffffffffffffffffffffffffffffffffffffff1673ffffffffffffffffffffffffffffffffffffffff16141561079e578091506107ab565b808060010191505061071e565b5060005b600e80549050811015610873578373ffffffffffffffffffffffffffffffffffffffff16600e82815481106107e057fe5b9060005260206000200160009054906101000a900473ffffffffffffffffffffffffffffffffffffffff1673ffffffffffffffffffffffffffffffffffffffff16141561086657600e818154811061083457fe5b9060005260206000200160006101000a81549073ffffffffffffffffffffffffffffffffffffffff0219169055610873565b80806001019150506107af565b5060005b600f8054905081101561093b578373ffffffffffffffffffffffffffffffffffffffff16600f82815481106108a857fe5b9060005260206000200160009054906101000a900473ffffffffffffffffffffffffffffffffffffffff1673ffffffffffffffffffffffffffffffffffffffff16141561092e57600f81815481106108fc57fe5b9060005260206000200160006101000a81549073ffffffffffffffffffffffffffffffffffffffff021916905561093b565b8080600101915050610877565b5060005b600e80549050811015610a03578373ffffffffffffffffffffffffffffffffffffffff16600e828154811061097057fe5b9060005260206000200160009054906101000a900473ffffffffffffffffffffffffffffffffffffffff1673ffffffffffffffffffffffffffffffffffffffff1614156109f657600e81815481106109c457fe5b9060005260206000200160006101000a81549073ffffffffffffffffffffffffffffffffffffffff0219169055610a03565b808060010191505061093f565b5060028181548110610a1157fe5b9060005260206000200160006101000a81549073ffffffffffffffffffffffffffffffffffffffff02191690556001915050919050565b60085481565b600a5481565b60056020528060005260406000206000915090508060000160009054906101000a900473ffffffffffffffffffffffffffffffffffffffff1690806001015490806002015490806003015490806004018054600181600116156101000203166002900480601f016020809104026020016040519081016040528092919081815260200182805460018160011615610100020316600290048015610b385780601f10610b0d57610100808354040283529160200191610b38565b820191906000526020600020905b815481529060010190602001808311610b1b57829003601f168201915b5050505050905085565b606080600667ffffffffffffffff81118015610b5d57600080fd5b50604051908082528060200260200182016040528015610b9157816020015b6060815260200190600190039081610b7c5790505b50905060005b600e80549050811015610c57578373ffffffffffffffffffffffffffffffffffffffff16600e8281548110610bc857fe5b9060005260206000200160009054906101000a900473ffffffffffffffffffffffffffffffffffffffff1673ffffffffffffffffffffffffffffffffffffffff161415610c4a57604051602001610c1e90612aab565b60405160208183030381529060405282600081518110610c3a57fe5b6020026020010181905250610c57565b8080600101915050610b97565b5080915050919050565b6040518060400160405280838152602001821515815250600660008573ffffffffffffffffffffffffffffffffffffffff1673ffffffffffffffffffffffffffffffffffffffff1681526020019081526020016000206000820151816000015560208201518160010160006101000a81548160ff0219169083151502179055509050506002839080600181540180825580915050600190039060005260206000200160009091909190916101000a81548173ffffffffffffffffffffffffffffffffffffffff021916908373ffffffffffffffffffffffffffffffffffffffff160217905550505050565b606060048054600181600116156101000203166002900480601f016020809104026020016040519081016040528092919081815260200182805460018160011615610100020316600290048015610de45780601f10610db957610100808354040283529160200191610de4565b820191906000526020600020905b815481529060010190602001808311610dc757829003601f168201915b5050505050905090565b60016008540360088190555060405180602001604052806000815250600760008381526020019081526020016000206000019080519060200190610e33929190612399565b5060405180602001604052806000815250600760008381526020019081526020016000206001019080519060200190610e6d929190612399565b506000600760008381526020019081526020016000206002018190555060405180602001604052806000815250600760008381526020019081526020016000206003019080519060200190610ec3929190612399565b5050565b600c5481565b6060600560008373ffffffffffffffffffffffffffffffffffffffff1673ffffffffffffffffffffffffffffffffffffffff16815260200190815260200160002060000160009054906101000a900473ffffffffffffffffffffffffffffffffffffffff1673ffffffffffffffffffffffffffffffffffffffff163373ffffffffffffffffffffffffffffffffffffffff161415610ff3576002805480602002602001604051908101604052809291908181526020018280548015610fe757602002820191906000526020600020905b8160009054906101000a900473ffffffffffffffffffffffffffffffffffffffff1673ffffffffffffffffffffffffffffffffffffffff1681526020019060010190808311610f9d575b50505050509050610ff4565b5b919050565b600d602052806000526040600020600091509050806000018054600181600116156101000203166002900480601f0160208091040260200160405190810160405280929190818152602001828054600181600116156101000203166002900480156110a55780601f1061107a576101008083540402835291602001916110a5565b820191906000526020600020905b81548152906001019060200180831161108857829003601f168201915b505050505090806001018054600181600116156101000203166002900480601f0160208091040260200160405190810160405280929190818152602001828054600181600116156101000203166002900480156111435780601f1061111857610100808354040283529160200191611143565b820191906000526020600020905b81548152906001019060200180831161112657829003601f168201915b5050505050905082565b60066020528060005260406000206000915090508060000154908060010160009054906101000a900460ff16905082565b600080600090505b601080549050811015611215578273ffffffffffffffffffffffffffffffffffffffff16601082815481106111b757fe5b9060005260206000200160009054906101000a900473ffffffffffffffffffffffffffffffffffffffff1673ffffffffffffffffffffffffffffffffffffffff16141561120857600191505061121b565b8080600101915050611186565b50600090505b919050565b600080600090505b600f805490508110156112b7578273ffffffffffffffffffffffffffffffffffffffff16600f828154811061125957fe5b9060005260206000200160009054906101000a900473ffffffffffffffffffffffffffffffffffffffff1673ffffffffffffffffffffffffffffffffffffffff1614156112aa5760019150506112bd565b8080600101915050611228565b50600090505b919050565b600080600083600660008673ffffffffffffffffffffffffffffffffffffffff1673ffffffffffffffffffffffffffffffffffffffff16815260200190815260200160002060000154600660008773ffffffffffffffffffffffffffffffffffffffff1673ffffffffffffffffffffffffffffffffffffffff16815260200190815260200160002060010160009054906101000a900460ff169250925092509193909250565b5050565b6009602052806000526040600020600091509050806000018054600181600116156101000203166002900480601f0160208091040260200160405190810160405280929190818152602001828054600181600116156101000203166002900480156114185780601f106113ed57610100808354040283529160200191611418565b820191906000526020600020905b8154815290600101906020018083116113fb57829003601f168201915b505050505090806001018054600181600116156101000203166002900480601f0160208091040260200160405190810160405280929190818152602001828054600181600116156101000203166002900480156114b65780601f1061148b576101008083540402835291602001916114b6565b820191906000526020600020905b81548152906001019060200180831161149957829003601f168201915b505050505090806002015490806003018054600181600116156101000203166002900480601f01602080910402602001604051908101604052809291908181526020018280546001816001161561010002031660029004801561155a5780601f1061152f5761010080835404028352916020019161155a565b820191906000526020600020905b81548152906001019060200180831161153d57829003601f168201915b5050505050905084565b6007602052806000526040600020600091509050806000018054600181600116156101000203166002900480601f0160208091040260200160405190810160405280929190818152602001828054600181600116156101000203166002900480156116105780601f106115e557610100808354040283529160200191611610565b820191906000526020600020905b8154815290600101906020018083116115f357829003601f168201915b505050505090806001018054600181600116156101000203166002900480601f0160208091040260200160405190810160405280929190818152602001828054600181600116156101000203166002900480156116ae5780601f10611683576101008083540402835291602001916116ae565b820191906000526020600020905b81548152906001019060200180831161169157829003601f168201915b505050505090806002015490806003018054600181600116156101000203166002900480601f0160208091040260200160405190810160405280929190818152602001828054600181600116156101000203166002900480156117525780601f1061172757610100808354040283529160200191611752565b820191906000526020600020905b81548152906001019060200180831161173557829003601f168201915b5050505050905084565b8060049080519060200190611772929190612399565b5050565b606080600d60008473ffffffffffffffffffffffffffffffffffffffff1673ffffffffffffffffffffffffffffffffffffffff168152602001908152602001600020600001600d60008573ffffffffffffffffffffffffffffffffffffffff1673ffffffffffffffffffffffffffffffffffffffff168152602001908152602001600020600101818054600181600116156101000203166002900480601f0160208091040260200160405190810160405280929190818152602001828054600181600116156101000203166002900480156118925780601f1061186757610100808354040283529160200191611892565b820191906000526020600020905b81548152906001019060200180831161187557829003601f168201915b50505050509150808054600181600116156101000203166002900480601f01602080910402602001604051908101604052809291908181526020018280546001816001161561010002031660029004801561192e5780601f106119035761010080835404028352916020019161192e565b820191906000526020600020905b81548152906001019060200180831161191157829003601f168201915b5050505050905091509150915091565b600160085401600881905550826007600060085481526020019081526020016000206000019080519060200190611976929190612399565b508160076000600854815260200190815260200160002060010190805190602001906119a3929190612399565b5042600760006008548152602001908152602001600020600201819055508060076000600854815260200190815260200160002060030190805190602001906119ed929190612399565b50505050565b6040518060a001604052803373ffffffffffffffffffffffffffffffffffffffff16815260200185815260200184815260200183815260200182815250600560003373ffffffffffffffffffffffffffffffffffffffff1673ffffffffffffffffffffffffffffffffffffffff16815260200190815260200160002060008201518160000160006101000a81548173ffffffffffffffffffffffffffffffffffffffff021916908373ffffffffffffffffffffffffffffffffffffffff1602179055506020820151816001015560408201518160020155606082015181600301556080820151816004019080519060200190611af0929190612419565b5090505050505050565b81600d60008573ffffffffffffffffffffffffffffffffffffffff1673ffffffffffffffffffffffffffffffffffffffff1681526020019081526020016000206000019080519060200190611b50929190612399565b5080600d60008573ffffffffffffffffffffffffffffffffffffffff1673ffffffffffffffffffffffffffffffffffffffff1681526020019081526020016000206001019080519060200190611ba7929190612399565b50505050565b600b602052806000526040600020600091509050806000018054600181600116156101000203166002900480601f016020809104026020016040519081016040528092919081815260200182805460018160011615610100020316600290048015611c595780601f10611c2e57610100808354040283529160200191611c59565b820191906000526020600020905b815481529060010190602001808311611c3c57829003601f168201915b505050505090806001018054600181600116156101000203166002900480601f016020809104026020016040519081016040528092919081815260200182805460018160011615610100020316600290048015611cf75780601f10611ccc57610100808354040283529160200191611cf7565b820191906000526020600020905b815481529060010190602001808311611cda57829003601f168201915b505050505090806002015490806003018054600181600116156101000203166002900480601f016020809104026020016040519081016040528092919081815260200182805460018160011615610100020316600290048015611d9b5780601f10611d7057610100808354040283529160200191611d9b565b820191906000526020600020905b815481529060010190602001808311611d7e57829003601f168201915b5050505050905084565b6000806000806060600060608060008060009054906101000a900473ffffffffffffffffffffffffffffffffffffffff16600560003373ffffffffffffffffffffffffffffffffffffffff1673ffffffffffffffffffffffffffffffffffffffff16815260200190815260200160002060010154600560003373ffffffffffffffffffffffffffffffffffffffff1673ffffffffffffffffffffffffffffffffffffffff16815260200190815260200160002060020154600560003373ffffffffffffffffffffffffffffffffffffffff1673ffffffffffffffffffffffffffffffffffffffff16815260200190815260200160002060030154600560003373ffffffffffffffffffffffffffffffffffffffff1673ffffffffffffffffffffffffffffffffffffffff16815260200190815260200160002060040160015460026003600854848054600181600116156101000203166002900480601f016020809104026020016040519081016040528092919081815260200182805460018160011615610100020316600290048015611f805780601f10611f5557610100808354040283529160200191611f80565b820191906000526020600020905b815481529060010190602001808311611f6357829003601f168201915b505050505094508280548060200260200160405190810160405280929190818152602001828054801561200857602002820191906000526020600020905b8160009054906101000a900473ffffffffffffffffffffffffffffffffffffffff1673ffffffffffffffffffffffffffffffffffffffff1681526020019060010190808311611fbe575b505050505092508180548060200260200160405190810160405280929190818152602001828054801561209057602002820191906000526020600020905b8160009054906101000a900473ffffffffffffffffffffffffffffffffffffffff1673ffffffffffffffffffffffffffffffffffffffff1681526020019060010190808311612046575b50505050509150985098509850985098509850985098509850909192939495969798565b606080600060606007600086815260200190815260200160002060000160076000878152602001908152602001600020600101600760008881526020019081526020016000206002015460076000898152602001908152602001600020600301838054600181600116156101000203166002900480601f0160208091040260200160405190810160405280929190818152602001828054600181600116156101000203166002900480156121a95780601f1061217e576101008083540402835291602001916121a9565b820191906000526020600020905b81548152906001019060200180831161218c57829003601f168201915b50505050509350828054600181600116156101000203166002900480601f0160208091040260200160405190810160405280929190818152602001828054600181600116156101000203166002900480156122455780601f1061221a57610100808354040283529160200191612245565b820191906000526020600020905b81548152906001019060200180831161222857829003601f168201915b50505050509250808054600181600116156101000203166002900480601f0160208091040260200160405190810160405280929190818152602001828054600181600116156101000203166002900480156122e15780601f106122b6576101008083540402835291602001916122e1565b820191906000526020600020905b8154815290600101906020018083116122c457829003601f168201915b5050505050905093509350935093509193509193565b600080600090505b600e8054905081101561238e578273ffffffffffffffffffffffffffffffffffffffff16600e828154811061233057fe5b9060005260206000200160009054906101000a900473ffffffffffffffffffffffffffffffffffffffff1673ffffffffffffffffffffffffffffffffffffffff161415612381576001915050612394565b80806001019150506122ff565b50600090505b919050565b828054600181600116156101000203166002900490600052602060002090601f016020900481019282601f106123da57805160ff1916838001178555612408565b82800160010185558215612408579182015b828111156124075782518255916020019190600101906123ec565b5b5090506124159190612499565b5090565b828054600181600116156101000203166002900490600052602060002090601f016020900481019282601f1061245a57805160ff1916838001178555612488565b82800160010185558215612488579182015b8281111561248757825182559160200191906001019061246c565b5b5090506124959190612499565b5090565b5b808211156124b257600081600090555060010161249a565b5090565b6000813590506124c581612f4b565b92915050565b6000813590506124da81612f62565b92915050565b6000813590506124ef81612f79565b92915050565b60008135905061250481612f90565b92915050565b600082601f83011261251b57600080fd5b813561252e61252982612d76565b612d49565b9150808252602083016020830185838301111561254a57600080fd5b612555838284612ef8565b50505092915050565b600082601f83011261256f57600080fd5b813561258261257d82612da2565b612d49565b9150808252602083016020830185838301111561259e57600080fd5b6125a9838284612ef8565b50505092915050565b6000813590506125c181612fa7565b92915050565b6000602082840312156125d957600080fd5b60006125e7848285016124b6565b91505092915050565b6000806040838503121561260357600080fd5b6000612611858286016124cb565b9250506020612622858286016125b2565b9150509250929050565b60008060006060848603121561264157600080fd5b600061264f868287016124b6565b9350506020612660868287016124f5565b9250506040612671868287016124e0565b9150509250925092565b60008060006060848603121561269057600080fd5b600061269e868287016124b6565b935050602084013567ffffffffffffffff8111156126bb57600080fd5b6126c78682870161255e565b925050604084013567ffffffffffffffff8111156126e457600080fd5b6126f08682870161255e565b9150509250925092565b6000806000806080858703121561271057600080fd5b600061271e878288016124f5565b945050602061272f878288016124f5565b9350506040612740878288016124f5565b925050606085013567ffffffffffffffff81111561275d57600080fd5b6127698782880161250a565b91505092959194509250565b60006020828403121561278757600080fd5b600082013567ffffffffffffffff8111156127a157600080fd5b6127ad8482850161255e565b91505092915050565b6000806000606084860312156127cb57600080fd5b600084013567ffffffffffffffff8111156127e557600080fd5b6127f18682870161255e565b935050602084013567ffffffffffffffff81111561280e57600080fd5b61281a8682870161255e565b925050604084013567ffffffffffffffff81111561283757600080fd5b6128438682870161255e565b9150509250925092565b60006020828403121561285f57600080fd5b600061286d848285016125b2565b91505092915050565b600061288283836128a2565b60208301905092915050565b600061289a83836129b1565b905092915050565b6128ab81612e94565b82525050565b6128ba81612e94565b82525050565b60006128cb82612dee565b6128d58185612e34565b93506128e083612dce565b8060005b838110156129115781516128f88882612876565b975061290383612e1a565b9250506001810190506128e4565b5085935050505092915050565b600061292982612df9565b6129338185612e45565b93508360208202850161294585612dde565b8060005b858110156129815784840389528151612962858261288e565b945061296d83612e27565b925060208a01995050600181019050612949565b50829750879550505050505092915050565b61299c81612eb8565b82525050565b6129ab81612ec4565b82525050565b60006129bc82612e04565b6129c68185612e56565b93506129d6818560208601612f07565b6129df81612f3a565b840191505092915050565b60006129f582612e04565b6129ff8185612e67565b9350612a0f818560208601612f07565b612a1881612f3a565b840191505092915050565b6000612a2e82612e0f565b612a388185612e78565b9350612a48818560208601612f07565b612a5181612f3a565b840191505092915050565b6000612a69600683612e89565b91507f50686f746f7300000000000000000000000000000000000000000000000000006000830152600682019050919050565b612aa581612eee565b82525050565b6000612ab682612a5c565b9150819050919050565b6000606082019050612ad560008301866128b1565b612ae260208301856129a2565b612aef6040830184612993565b949350505050565b600060a082019050612b0c60008301886128b1565b612b1960208301876129a2565b612b2660408301866129a2565b612b3360608301856129a2565b8181036080830152612b4581846129ea565b90509695505050505050565b600061012082019050612b67600083018c6128b1565b612b74602083018b6129a2565b612b81604083018a6129a2565b612b8e60608301896129a2565b8181036080830152612ba081886129ea565b9050612baf60a0830187612a9c565b81810360c0830152612bc181866128c0565b905081810360e0830152612bd581856128c0565b9050612be5610100830184612a9c565b9a9950505050505050505050565b60006020820190508181036000830152612c0d81846128c0565b905092915050565b60006020820190508181036000830152612c2f818461291e565b905092915050565b6000602082019050612c4c6000830184612993565b92915050565b6000604082019050612c6760008301856129a2565b612c746020830184612993565b9392505050565b60006020820190508181036000830152612c958184612a23565b905092915050565b60006040820190508181036000830152612cb78185612a23565b90508181036020830152612ccb8184612a23565b90509392505050565b60006080820190508181036000830152612cee8187612a23565b90508181036020830152612d028186612a23565b9050612d116040830185612a9c565b8181036060830152612d238184612a23565b905095945050505050565b6000602082019050612d436000830184612a9c565b92915050565b6000604051905081810181811067ffffffffffffffff82111715612d6c57600080fd5b8060405250919050565b600067ffffffffffffffff821115612d8d57600080fd5b601f19601f8301169050602081019050919050565b600067ffffffffffffffff821115612db957600080fd5b601f19601f8301169050602081019050919050565b6000819050602082019050919050565b6000819050602082019050919050565b600081519050919050565b600081519050919050565b600081519050919050565b600081519050919050565b6000602082019050919050565b6000602082019050919050565b600082825260208201905092915050565b600082825260208201905092915050565b600082825260208201905092915050565b600082825260208201905092915050565b600082825260208201905092915050565b600081905092915050565b6000612e9f82612ece565b9050919050565b6000612eb182612ece565b9050919050565b60008115159050919050565b6000819050919050565b600073ffffffffffffffffffffffffffffffffffffffff82169050919050565b6000819050919050565b82818337600083830152505050565b60005b83811015612f25578082015181840152602081019050612f0a565b83811115612f34576000848401525b50505050565b6000601f19601f8301169050919050565b612f5481612e94565b8114612f5f57600080fd5b50565b612f6b81612ea6565b8114612f7657600080fd5b50565b612f8281612eb8565b8114612f8d57600080fd5b50565b612f9981612ec4565b8114612fa457600080fd5b50565b612fb081612eee565b8114612fbb57600080fd5b5056fea2646970667358221220a201795f88c18ba759d57cd0e51fe0ba82e84e9f01016d864fdc6a818ad8f21964736f6c63430007000033a2646970667358221220d1caf5a4869eda0c13757663d617ff5248f5ee014c88f9b4d1604ce3024444e064736f6c63430007000033",
  "immutableReferences": {},
  "source": "// SPDX-License-Identifier: MIT\r\npragma solidity ^0.7.0;\r\npragma experimental ABIEncoderV2;\r\nimport './Mia.sol';\r\n\r\ncontract Guer {\r\n\r\n    address docId;\r\n    mapping(address => address[]) MiasByUser;\r\n    address payable ourWallet;\r\n    constructor() payable {\r\n        ourWallet = msg.sender;\r\n    }\r\n\r\n    function getGuerOwnerAddress() public view returns(address){\r\n        return ourWallet;\r\n    }\r\n\r\n    function doPayRoyalty() public payable returns(bool){\r\n        //if (msg.value >= .001 ether)\r\n        //{\r\n        //    ourWallet.transfer(msg.value);\r\n        //    return true;\r\n        //}\r\n        //else {\r\n        //    return false;\r\n        //}\r\n    }\r\n\r\n    function updateUserProfile(address payable docAddress, bytes32 _name, bytes32 _email, bytes32 _mobile, bytes memory _image) public payable {\r\n        Mia(docAddress).updateUserProfile(_name,_email, _mobile, _image);\r\n    }\r\n\r\n    function createNFT(bytes32 _name, bytes32 _email, bytes32 _mobile, bytes memory _image) public payable {\r\n        Mia a = new Mia(_name, _email, _mobile, _image);\r\n        MiasByUser[msg.sender].push(address(a));\r\n    }\r\n\r\n    function getUserNFTs() public view returns (address[] memory){\r\n        return MiasByUser[msg.sender];\r\n    }\r\n\r\n    function getNFTInfo(address payable docAddress) public view returns (address, bytes32, bytes32, bytes32, bytes memory, uint, address[] memory, address[] memory, uint){\r\n        return Mia(docAddress).getMia();\r\n    }\r\n\r\n    function doGetPhotoCount(address payable docAddress) public view returns (uint) {\r\n        return Mia(docAddress).getPhotoCount();\r\n    }\r\n\r\n    function doGetPhoto(address payable docAddress, uint _id) public view returns (string memory, string memory, uint, string memory) {\r\n        return Mia(docAddress).getPhotoDetails(_id);\r\n    }\r\n\r\n    function doAddPhoto(address payable docAddress, string memory _location, string memory _name, string memory _filetype) public {\r\n        Mia(docAddress).addPhoto(_location, _name, _filetype);\r\n    }\r\n\r\n    function doRemovePhoto(address payable docAddress, uint _id) public {\r\n        Mia(docAddress).removePhoto(_id);\r\n    }\r\n\r\n    function doAddMessage(address payable docAddress, address _partner, string memory _location, string memory _key) public {\r\n        return Mia(docAddress).addMessage(_partner,_location,_key);\r\n    }\r\n\r\n    function doGetMessages(address payable docAddress, address _partner) public view returns (string memory, string memory) {\r\n        return Mia(docAddress).getMessages(_partner);\r\n    }\r\n\r\n    function doRemoveUserFromMiaAddressBook(address payable docAddress, address _userAddress) public {\r\n        Mia(docAddress).removeAddressFromBook(_userAddress);\r\n    }\r\n\r\n    function doAddUserToMiaAddressBook(address payable docAddress, address _otherAccount, bytes32 _name, bool _coowner) public {\r\n        Mia(docAddress).addAddressToBook(_otherAccount, _name, _coowner);\r\n    }\r\n\r\n    function doTransferFunds(address payable docAddress, address payable _receiver, uint256 _amount) public payable {\r\n        Mia(docAddress).transferFunds(_receiver, _amount);\r\n    }\r\n\r\n    function doGetContactInfo(address payable docAddress, address _otherAccount) public view returns (address,bytes32,bool) {\r\n        return Mia(docAddress).getContactInfo(_otherAccount);\r\n    }\r\n\r\n    function getNFTUserPhotoAccess(address payable docAddress, address _userAddress) public view returns (bool){\r\n        return Mia(docAddress).getIsPhotoAccess(_userAddress);\r\n    }\r\n\r\n    function getNFTUserGeneralAccess(address payable docAddress, address _userAddress) public view returns (bool){\r\n        return Mia(docAddress).getIsGeneralAccess(_userAddress);\r\n    }\r\n\r\n    function getNFTUserPersonalAccess(address payable docAddress, address _userAddress) public view returns (bool){\r\n        return Mia(docAddress).getIsPersonalAccess(_userAddress);\r\n    }\r\n\r\n    function getNFTUserPermissions(address payable docAddress, address _userAddress) public view returns (bytes[] memory){\r\n        return Mia(docAddress).getUserPermissions(_userAddress);\r\n    }\r\n\r\n    function doGetMarketplaceJson(address payable docAddress) public view returns (string memory) {\r\n        return Mia(docAddress).getMarketplaceJson();\r\n    }\r\n\r\n    //function doUpdateUserPermissions(address payable docAddress, address _userAddress, uint _photos, uint _general,  uint _personal) public {\r\n    //    Mia(docAddress).updateUserPermission(_userAddress, _photos, _general, _personal);\r\n    //}\r\n\r\n    function doUpdateMarketplaceJson(address payable docAddress, string memory _json) public {\r\n        Mia(docAddress).updateMarketplaceJson(_json);\r\n    }\r\n}\r\n",
  "sourcePath": "C:/Projects/guerfuture/contracts/Guer.sol",
  "compiler": {
    "name": "solc",
    "version": "0.7.0+commit.9e61f92b.Emscripten.clang"
  },
  "schemaVersion": "3.3.4",
  "updatedAt": "2021-05-04T21:14:14.682Z",
  "networkType": "ethereum",
  "devdoc": {
    "kind": "dev",
    "methods": {},
    "version": 1
  },
  "userdoc": {
    "kind": "user",
    "methods": {},
    "version": 1
  }
}