{
  "contractName": "Mia",
  "abi": [
    {
      "inputs": [
        {
          "internalType": "bytes32",
          "name": "_name",
          "type": "bytes32"
        },
        {
          "internalType": "bytes32",
          "name": "_email",
          "type": "bytes32"
        },
        {
          "internalType": "bytes32",
          "name": "_mobile",
          "type": "bytes32"
        },
        {
          "internalType": "bytes",
          "name": "_image",
          "type": "bytes"
        }
      ],
      "stateMutability": "payable",
      "type": "constructor"
    },
    {
      "stateMutability": "payable",
      "type": "fallback"
    },
    {
      "inputs": [
        {
          "internalType": "address",
          "name": "",
          "type": "address"
        }
      ],
      "name": "contactInfo",
      "outputs": [
        {
          "internalType": "bytes32",
          "name": "name",
          "type": "bytes32"
        },
        {
          "internalType": "bool",
          "name": "coowner",
          "type": "bool"
        }
      ],
      "stateMutability": "view",
      "type": "function"
    },
    {
      "inputs": [
        {
          "internalType": "uint256",
          "name": "",
          "type": "uint256"
        }
      ],
      "name": "general",
      "outputs": [
        {
          "internalType": "string",
          "name": "location",
          "type": "string"
        },
        {
          "internalType": "string",
          "name": "name",
          "type": "string"
        },
        {
          "internalType": "uint256",
          "name": "date",
          "type": "uint256"
        },
        {
          "internalType": "string",
          "name": "filetype",
          "type": "string"
        }
      ],
      "stateMutability": "view",
      "type": "function"
    },
    {
      "inputs": [],
      "name": "generalCount",
      "outputs": [
        {
          "internalType": "uint256",
          "name": "",
          "type": "uint256"
        }
      ],
      "stateMutability": "view",
      "type": "function"
    },
    {
      "inputs": [
        {
          "internalType": "address",
          "name": "",
          "type": "address"
        }
      ],
      "name": "messages",
      "outputs": [
        {
          "internalType": "string",
          "name": "location",
          "type": "string"
        },
        {
          "internalType": "string",
          "name": "key",
          "type": "string"
        }
      ],
      "stateMutability": "view",
      "type": "function"
    },
    {
      "inputs": [
        {
          "internalType": "uint256",
          "name": "",
          "type": "uint256"
        }
      ],
      "name": "personal",
      "outputs": [
        {
          "internalType": "string",
          "name": "location",
          "type": "string"
        },
        {
          "internalType": "string",
          "name": "name",
          "type": "string"
        },
        {
          "internalType": "uint256",
          "name": "date",
          "type": "uint256"
        },
        {
          "internalType": "string",
          "name": "filetype",
          "type": "string"
        }
      ],
      "stateMutability": "view",
      "type": "function"
    },
    {
      "inputs": [],
      "name": "personalCount",
      "outputs": [
        {
          "internalType": "uint256",
          "name": "",
          "type": "uint256"
        }
      ],
      "stateMutability": "view",
      "type": "function"
    },
    {
      "inputs": [],
      "name": "photoCount",
      "outputs": [
        {
          "internalType": "uint256",
          "name": "",
          "type": "uint256"
        }
      ],
      "stateMutability": "view",
      "type": "function"
    },
    {
      "inputs": [
        {
          "internalType": "uint256",
          "name": "",
          "type": "uint256"
        }
      ],
      "name": "photos",
      "outputs": [
        {
          "internalType": "string",
          "name": "location",
          "type": "string"
        },
        {
          "internalType": "string",
          "name": "name",
          "type": "string"
        },
        {
          "internalType": "uint256",
          "name": "date",
          "type": "uint256"
        },
        {
          "internalType": "string",
          "name": "filetype",
          "type": "string"
        }
      ],
      "stateMutability": "view",
      "type": "function"
    },
    {
      "inputs": [
        {
          "internalType": "address",
          "name": "",
          "type": "address"
        }
      ],
      "name": "userInfo",
      "outputs": [
        {
          "internalType": "address",
          "name": "creator",
          "type": "address"
        },
        {
          "internalType": "bytes32",
          "name": "name",
          "type": "bytes32"
        },
        {
          "internalType": "bytes32",
          "name": "email",
          "type": "bytes32"
        },
        {
          "internalType": "bytes32",
          "name": "mobile",
          "type": "bytes32"
        },
        {
          "internalType": "bytes",
          "name": "image",
          "type": "bytes"
        }
      ],
      "stateMutability": "view",
      "type": "function"
    },
    {
      "stateMutability": "payable",
      "type": "receive"
    },
    {
      "inputs": [
        {
          "internalType": "address",
          "name": "_partner",
          "type": "address"
        },
        {
          "internalType": "string",
          "name": "_location",
          "type": "string"
        },
        {
          "internalType": "string",
          "name": "_key",
          "type": "string"
        }
      ],
      "name": "addMessage",
      "outputs": [],
      "stateMutability": "nonpayable",
      "type": "function"
    },
    {
      "inputs": [
        {
          "internalType": "address",
          "name": "_partner",
          "type": "address"
        }
      ],
      "name": "getMessages",
      "outputs": [
        {
          "internalType": "string",
          "name": "",
          "type": "string"
        },
        {
          "internalType": "string",
          "name": "",
          "type": "string"
        }
      ],
      "stateMutability": "view",
      "type": "function"
    },
    {
      "inputs": [
        {
          "internalType": "string",
          "name": "_location",
          "type": "string"
        },
        {
          "internalType": "string",
          "name": "_name",
          "type": "string"
        },
        {
          "internalType": "string",
          "name": "_filetype",
          "type": "string"
        }
      ],
      "name": "addPhoto",
      "outputs": [],
      "stateMutability": "nonpayable",
      "type": "function"
    },
    {
      "inputs": [],
      "name": "getPhotoCount",
      "outputs": [
        {
          "internalType": "uint256",
          "name": "",
          "type": "uint256"
        }
      ],
      "stateMutability": "view",
      "type": "function"
    },
    {
      "inputs": [
        {
          "internalType": "uint256",
          "name": "_id",
          "type": "uint256"
        }
      ],
      "name": "getPhotoDetails",
      "outputs": [
        {
          "internalType": "string",
          "name": "",
          "type": "string"
        },
        {
          "internalType": "string",
          "name": "",
          "type": "string"
        },
        {
          "internalType": "uint256",
          "name": "",
          "type": "uint256"
        },
        {
          "internalType": "string",
          "name": "",
          "type": "string"
        }
      ],
      "stateMutability": "view",
      "type": "function"
    },
    {
      "inputs": [
        {
          "internalType": "uint256",
          "name": "_id",
          "type": "uint256"
        }
      ],
      "name": "removePhoto",
      "outputs": [],
      "stateMutability": "payable",
      "type": "function"
    },
    {
      "inputs": [],
      "name": "getMia",
      "outputs": [
        {
          "internalType": "address",
          "name": "",
          "type": "address"
        },
        {
          "internalType": "bytes32",
          "name": "",
          "type": "bytes32"
        },
        {
          "internalType": "bytes32",
          "name": "",
          "type": "bytes32"
        },
        {
          "internalType": "bytes32",
          "name": "",
          "type": "bytes32"
        },
        {
          "internalType": "bytes",
          "name": "",
          "type": "bytes"
        },
        {
          "internalType": "uint256",
          "name": "",
          "type": "uint256"
        },
        {
          "internalType": "address[]",
          "name": "",
          "type": "address[]"
        },
        {
          "internalType": "address[]",
          "name": "",
          "type": "address[]"
        },
        {
          "internalType": "uint256",
          "name": "",
          "type": "uint256"
        }
      ],
      "stateMutability": "view",
      "type": "function"
    },
    {
      "inputs": [],
      "name": "getMarketplaceJson",
      "outputs": [
        {
          "internalType": "string",
          "name": "",
          "type": "string"
        }
      ],
      "stateMutability": "view",
      "type": "function"
    },
    {
      "inputs": [
        {
          "internalType": "string",
          "name": "_json",
          "type": "string"
        }
      ],
      "name": "updateMarketplaceJson",
      "outputs": [],
      "stateMutability": "nonpayable",
      "type": "function"
    },
    {
      "inputs": [
        {
          "internalType": "address",
          "name": "_otherAccount",
          "type": "address"
        }
      ],
      "name": "getContactInfo",
      "outputs": [
        {
          "internalType": "address",
          "name": "",
          "type": "address"
        },
        {
          "internalType": "bytes32",
          "name": "",
          "type": "bytes32"
        },
        {
          "internalType": "bool",
          "name": "",
          "type": "bool"
        }
      ],
      "stateMutability": "view",
      "type": "function"
    },
    {
      "inputs": [
        {
          "internalType": "bytes32",
          "name": "_name",
          "type": "bytes32"
        },
        {
          "internalType": "bytes32",
          "name": "_email",
          "type": "bytes32"
        },
        {
          "internalType": "bytes32",
          "name": "_mobile",
          "type": "bytes32"
        },
        {
          "internalType": "bytes",
          "name": "_image",
          "type": "bytes"
        }
      ],
      "name": "updateUserProfile",
      "outputs": [],
      "stateMutability": "payable",
      "type": "function"
    },
    {
      "inputs": [
        {
          "internalType": "address",
          "name": "_otherAccount",
          "type": "address"
        },
        {
          "internalType": "bytes32",
          "name": "_name",
          "type": "bytes32"
        },
        {
          "internalType": "bool",
          "name": "_coowner",
          "type": "bool"
        }
      ],
      "name": "addAddressToBook",
      "outputs": [],
      "stateMutability": "payable",
      "type": "function"
    },
    {
      "inputs": [
        {
          "internalType": "address",
          "name": "_otherAccount",
          "type": "address"
        }
      ],
      "name": "removeAddressFromBook",
      "outputs": [
        {
          "internalType": "bool",
          "name": "",
          "type": "bool"
        }
      ],
      "stateMutability": "payable",
      "type": "function"
    },
    {
      "inputs": [
        {
          "internalType": "address",
          "name": "_user",
          "type": "address"
        }
      ],
      "name": "getUserAddresses",
      "outputs": [
        {
          "internalType": "address[]",
          "name": "",
          "type": "address[]"
        }
      ],
      "stateMutability": "view",
      "type": "function"
    },
    {
      "inputs": [
        {
          "internalType": "address payable",
          "name": "_receiver",
          "type": "address"
        },
        {
          "internalType": "uint256",
          "name": "_amount",
          "type": "uint256"
        }
      ],
      "name": "transferFunds",
      "outputs": [],
      "stateMutability": "pure",
      "type": "function"
    },
    {
      "inputs": [
        {
          "internalType": "address",
          "name": "_user",
          "type": "address"
        }
      ],
      "name": "getIsPhotoAccess",
      "outputs": [
        {
          "internalType": "bool",
          "name": "",
          "type": "bool"
        }
      ],
      "stateMutability": "view",
      "type": "function"
    },
    {
      "inputs": [
        {
          "internalType": "address",
          "name": "_user",
          "type": "address"
        }
      ],
      "name": "getIsGeneralAccess",
      "outputs": [
        {
          "internalType": "bool",
          "name": "",
          "type": "bool"
        }
      ],
      "stateMutability": "view",
      "type": "function"
    },
    {
      "inputs": [
        {
          "internalType": "address",
          "name": "_user",
          "type": "address"
        }
      ],
      "name": "getIsPersonalAccess",
      "outputs": [
        {
          "internalType": "bool",
          "name": "",
          "type": "bool"
        }
      ],
      "stateMutability": "view",
      "type": "function"
    },
    {
      "inputs": [
        {
          "internalType": "address",
          "name": "_user",
          "type": "address"
        }
      ],
      "name": "getUserPermissions",
      "outputs": [
        {
          "internalType": "bytes[]",
          "name": "",
          "type": "bytes[]"
        }
      ],
      "stateMutability": "view",
      "type": "function"
    }
  ],
  "bytecode": "0x6080604052604051620033d4380380620033d4833981810160405281019062000029919062000296565b6040518060a001604052803373ffffffffffffffffffffffffffffffffffffffff16815260200185815260200184815260200183815260200182815250600560003373ffffffffffffffffffffffffffffffffffffffff1673ffffffffffffffffffffffffffffffffffffffff16815260200190815260200160002060008201518160000160006101000a81548173ffffffffffffffffffffffffffffffffffffffff021916908373ffffffffffffffffffffffffffffffffffffffff1602179055506020820151816001015560408201518160020155606082015181600301556080820151816004019080519060200190620001289291906200017d565b50905050306000806101000a81548173ffffffffffffffffffffffffffffffffffffffff021916908373ffffffffffffffffffffffffffffffffffffffff1602179055504260018190555050505050620003d0565b828054600181600116156101000203166002900490600052602060002090601f016020900481019282601f10620001c057805160ff1916838001178555620001f1565b82800160010185558215620001f1579182015b82811115620001f0578251825591602001919060010190620001d3565b5b50905062000200919062000204565b5090565b5b808211156200021f57600081600090555060010162000205565b5090565b6000815190506200023481620003b6565b92915050565b600082601f8301126200024c57600080fd5b8151620002636200025d8262000349565b6200031b565b915080825260208301602083018583830111156200028057600080fd5b6200028d83828462000380565b50505092915050565b60008060008060808587031215620002ad57600080fd5b6000620002bd8782880162000223565b9450506020620002d08782880162000223565b9350506040620002e38782880162000223565b925050606085015167ffffffffffffffff8111156200030157600080fd5b6200030f878288016200023a565b91505092959194509250565b6000604051905081810181811067ffffffffffffffff821117156200033f57600080fd5b8060405250919050565b600067ffffffffffffffff8211156200036157600080fd5b601f19601f8301169050602081019050919050565b6000819050919050565b60005b83811015620003a057808201518184015260208101905062000383565b83811115620003b0576000848401525b50505050565b620003c18162000376565b8114620003cd57600080fd5b50565b612ff480620003e06000396000f3fe608060405260043610610168576000357c010000000000000000000000000000000000000000000000000000000090048063055349a81461017157806312b595331461019c57806312d28b18146101cc57806316372ab0146101f75780631959a0021461022257806325fde663146102635780633065a0d1146102a05780633ba355f9146102bc5780634e3c650c146102e7578063510e43e4146103035780635aa4f5451461032e5780635fdd59f81461036b5780636ff19822146103a9578063806dc442146103e75780638136c38a1461042457806383703df314610461578063990dc9db146104a05780639ad449aa146104c9578063af2a5d6f14610509578063afb7b17e14610549578063b2f7132214610572578063b3ebaa90146105b0578063b917727b146105d9578063c3685e89146105f5578063ca052bf01461061e578063ca1beaf31461065e578063df9f60e914610691578063e7037563146106d15761016f565b3661016f57005b005b34801561017d57600080fd5b5061018661070e565b6040516101939190612d2e565b60405180910390f35b6101b660048036038101906101b191906125c7565b610718565b6040516101c39190612c37565b60405180910390f35b3480156101d857600080fd5b506101e1610a48565b6040516101ee9190612d2e565b60405180910390f35b34801561020357600080fd5b5061020c610a4e565b6040516102199190612d2e565b60405180910390f35b34801561022e57600080fd5b50610249600480360381019061024491906125c7565b610a54565b60405161025a959493929190612af7565b60405180910390f35b34801561026f57600080fd5b5061028a600480360381019061028591906125c7565b610b42565b6040516102979190612c15565b60405180910390f35b6102ba60048036038101906102b5919061262c565b610c61565b005b3480156102c857600080fd5b506102d1610d4c565b6040516102de9190612c7b565b60405180910390f35b61030160048036038101906102fc919061284d565b610dee565b005b34801561030f57600080fd5b50610318610ec7565b6040516103259190612d2e565b60405180910390f35b34801561033a57600080fd5b50610355600480360381019061035091906125c7565b610ecd565b6040516103629190612bf3565b60405180910390f35b34801561037757600080fd5b50610392600480360381019061038d91906125c7565b610ff9565b6040516103a0929190612c9d565b60405180910390f35b3480156103b557600080fd5b506103d060048036038101906103cb91906125c7565b61114d565b6040516103de929190612c52565b60405180910390f35b3480156103f357600080fd5b5061040e600480360381019061040991906125c7565b61117e565b60405161041b9190612c37565b60405180910390f35b34801561043057600080fd5b5061044b600480360381019061044691906125c7565b611220565b6040516104589190612c37565b60405180910390f35b34801561046d57600080fd5b50610488600480360381019061048391906125c7565b6112c2565b60405161049793929190612ac0565b60405180910390f35b3480156104ac57600080fd5b506104c760048036038101906104c291906125f0565b611368565b005b3480156104d557600080fd5b506104f060048036038101906104eb919061284d565b61136c565b6040516105009493929190612cd4565b60405180910390f35b34801561051557600080fd5b50610530600480360381019061052b919061284d565b611564565b6040516105409493929190612cd4565b60405180910390f35b34801561055557600080fd5b50610570600480360381019061056b9190612775565b61175c565b005b34801561057e57600080fd5b50610599600480360381019061059491906125c7565b611776565b6040516105a7929190612c9d565b60405180910390f35b3480156105bc57600080fd5b506105d760048036038101906105d291906127b6565b61193e565b005b6105f360048036038101906105ee91906126fa565b6119f3565b005b34801561060157600080fd5b5061061c6004803603810190610617919061267b565b611afa565b005b34801561062a57600080fd5b506106456004803603810190610640919061284d565b611bad565b6040516106559493929190612cd4565b60405180910390f35b34801561066a57600080fd5b50610673611da5565b60405161068899989796959493929190612b51565b60405180910390f35b34801561069d57600080fd5b506106b860048036038101906106b3919061284d565b6120b4565b6040516106c89493929190612cd4565b60405180910390f35b3480156106dd57600080fd5b506106f860048036038101906106f391906125c7565b6122f7565b6040516107059190612c37565b60405180910390f35b6000600854905090565b60008060005b6002805490508110156107ab578373ffffffffffffffffffffffffffffffffffffffff166002828154811061074f57fe5b9060005260206000200160009054906101000a900473ffffffffffffffffffffffffffffffffffffffff1673ffffffffffffffffffffffffffffffffffffffff16141561079e578091506107ab565b808060010191505061071e565b5060005b600e80549050811015610873578373ffffffffffffffffffffffffffffffffffffffff16600e82815481106107e057fe5b9060005260206000200160009054906101000a900473ffffffffffffffffffffffffffffffffffffffff1673ffffffffffffffffffffffffffffffffffffffff16141561086657600e818154811061083457fe5b9060005260206000200160006101000a81549073ffffffffffffffffffffffffffffffffffffffff0219169055610873565b80806001019150506107af565b5060005b600f8054905081101561093b578373ffffffffffffffffffffffffffffffffffffffff16600f82815481106108a857fe5b9060005260206000200160009054906101000a900473ffffffffffffffffffffffffffffffffffffffff1673ffffffffffffffffffffffffffffffffffffffff16141561092e57600f81815481106108fc57fe5b9060005260206000200160006101000a81549073ffffffffffffffffffffffffffffffffffffffff021916905561093b565b8080600101915050610877565b5060005b600e80549050811015610a03578373ffffffffffffffffffffffffffffffffffffffff16600e828154811061097057fe5b9060005260206000200160009054906101000a900473ffffffffffffffffffffffffffffffffffffffff1673ffffffffffffffffffffffffffffffffffffffff1614156109f657600e81815481106109c457fe5b9060005260206000200160006101000a81549073ffffffffffffffffffffffffffffffffffffffff0219169055610a03565b808060010191505061093f565b5060028181548110610a1157fe5b9060005260206000200160006101000a81549073ffffffffffffffffffffffffffffffffffffffff02191690556001915050919050565b60085481565b600a5481565b60056020528060005260406000206000915090508060000160009054906101000a900473ffffffffffffffffffffffffffffffffffffffff1690806001015490806002015490806003015490806004018054600181600116156101000203166002900480601f016020809104026020016040519081016040528092919081815260200182805460018160011615610100020316600290048015610b385780601f10610b0d57610100808354040283529160200191610b38565b820191906000526020600020905b815481529060010190602001808311610b1b57829003601f168201915b5050505050905085565b606080600667ffffffffffffffff81118015610b5d57600080fd5b50604051908082528060200260200182016040528015610b9157816020015b6060815260200190600190039081610b7c5790505b50905060005b600e80549050811015610c57578373ffffffffffffffffffffffffffffffffffffffff16600e8281548110610bc857fe5b9060005260206000200160009054906101000a900473ffffffffffffffffffffffffffffffffffffffff1673ffffffffffffffffffffffffffffffffffffffff161415610c4a57604051602001610c1e90612aab565b60405160208183030381529060405282600081518110610c3a57fe5b6020026020010181905250610c57565b8080600101915050610b97565b5080915050919050565b6040518060400160405280838152602001821515815250600660008573ffffffffffffffffffffffffffffffffffffffff1673ffffffffffffffffffffffffffffffffffffffff1681526020019081526020016000206000820151816000015560208201518160010160006101000a81548160ff0219169083151502179055509050506002839080600181540180825580915050600190039060005260206000200160009091909190916101000a81548173ffffffffffffffffffffffffffffffffffffffff021916908373ffffffffffffffffffffffffffffffffffffffff160217905550505050565b606060048054600181600116156101000203166002900480601f016020809104026020016040519081016040528092919081815260200182805460018160011615610100020316600290048015610de45780601f10610db957610100808354040283529160200191610de4565b820191906000526020600020905b815481529060010190602001808311610dc757829003601f168201915b5050505050905090565b60016008540360088190555060405180602001604052806000815250600760008381526020019081526020016000206000019080519060200190610e33929190612399565b5060405180602001604052806000815250600760008381526020019081526020016000206001019080519060200190610e6d929190612399565b506000600760008381526020019081526020016000206002018190555060405180602001604052806000815250600760008381526020019081526020016000206003019080519060200190610ec3929190612399565b5050565b600c5481565b6060600560008373ffffffffffffffffffffffffffffffffffffffff1673ffffffffffffffffffffffffffffffffffffffff16815260200190815260200160002060000160009054906101000a900473ffffffffffffffffffffffffffffffffffffffff1673ffffffffffffffffffffffffffffffffffffffff163373ffffffffffffffffffffffffffffffffffffffff161415610ff3576002805480602002602001604051908101604052809291908181526020018280548015610fe757602002820191906000526020600020905b8160009054906101000a900473ffffffffffffffffffffffffffffffffffffffff1673ffffffffffffffffffffffffffffffffffffffff1681526020019060010190808311610f9d575b50505050509050610ff4565b5b919050565b600d602052806000526040600020600091509050806000018054600181600116156101000203166002900480601f0160208091040260200160405190810160405280929190818152602001828054600181600116156101000203166002900480156110a55780601f1061107a576101008083540402835291602001916110a5565b820191906000526020600020905b81548152906001019060200180831161108857829003601f168201915b505050505090806001018054600181600116156101000203166002900480601f0160208091040260200160405190810160405280929190818152602001828054600181600116156101000203166002900480156111435780601f1061111857610100808354040283529160200191611143565b820191906000526020600020905b81548152906001019060200180831161112657829003601f168201915b5050505050905082565b60066020528060005260406000206000915090508060000154908060010160009054906101000a900460ff16905082565b600080600090505b601080549050811015611215578273ffffffffffffffffffffffffffffffffffffffff16601082815481106111b757fe5b9060005260206000200160009054906101000a900473ffffffffffffffffffffffffffffffffffffffff1673ffffffffffffffffffffffffffffffffffffffff16141561120857600191505061121b565b8080600101915050611186565b50600090505b919050565b600080600090505b600f805490508110156112b7578273ffffffffffffffffffffffffffffffffffffffff16600f828154811061125957fe5b9060005260206000200160009054906101000a900473ffffffffffffffffffffffffffffffffffffffff1673ffffffffffffffffffffffffffffffffffffffff1614156112aa5760019150506112bd565b8080600101915050611228565b50600090505b919050565b600080600083600660008673ffffffffffffffffffffffffffffffffffffffff1673ffffffffffffffffffffffffffffffffffffffff16815260200190815260200160002060000154600660008773ffffffffffffffffffffffffffffffffffffffff1673ffffffffffffffffffffffffffffffffffffffff16815260200190815260200160002060010160009054906101000a900460ff169250925092509193909250565b5050565b6009602052806000526040600020600091509050806000018054600181600116156101000203166002900480601f0160208091040260200160405190810160405280929190818152602001828054600181600116156101000203166002900480156114185780601f106113ed57610100808354040283529160200191611418565b820191906000526020600020905b8154815290600101906020018083116113fb57829003601f168201915b505050505090806001018054600181600116156101000203166002900480601f0160208091040260200160405190810160405280929190818152602001828054600181600116156101000203166002900480156114b65780601f1061148b576101008083540402835291602001916114b6565b820191906000526020600020905b81548152906001019060200180831161149957829003601f168201915b505050505090806002015490806003018054600181600116156101000203166002900480601f01602080910402602001604051908101604052809291908181526020018280546001816001161561010002031660029004801561155a5780601f1061152f5761010080835404028352916020019161155a565b820191906000526020600020905b81548152906001019060200180831161153d57829003601f168201915b5050505050905084565b6007602052806000526040600020600091509050806000018054600181600116156101000203166002900480601f0160208091040260200160405190810160405280929190818152602001828054600181600116156101000203166002900480156116105780601f106115e557610100808354040283529160200191611610565b820191906000526020600020905b8154815290600101906020018083116115f357829003601f168201915b505050505090806001018054600181600116156101000203166002900480601f0160208091040260200160405190810160405280929190818152602001828054600181600116156101000203166002900480156116ae5780601f10611683576101008083540402835291602001916116ae565b820191906000526020600020905b81548152906001019060200180831161169157829003601f168201915b505050505090806002015490806003018054600181600116156101000203166002900480601f0160208091040260200160405190810160405280929190818152602001828054600181600116156101000203166002900480156117525780601f1061172757610100808354040283529160200191611752565b820191906000526020600020905b81548152906001019060200180831161173557829003601f168201915b5050505050905084565b8060049080519060200190611772929190612399565b5050565b606080600d60008473ffffffffffffffffffffffffffffffffffffffff1673ffffffffffffffffffffffffffffffffffffffff168152602001908152602001600020600001600d60008573ffffffffffffffffffffffffffffffffffffffff1673ffffffffffffffffffffffffffffffffffffffff168152602001908152602001600020600101818054600181600116156101000203166002900480601f0160208091040260200160405190810160405280929190818152602001828054600181600116156101000203166002900480156118925780601f1061186757610100808354040283529160200191611892565b820191906000526020600020905b81548152906001019060200180831161187557829003601f168201915b50505050509150808054600181600116156101000203166002900480601f01602080910402602001604051908101604052809291908181526020018280546001816001161561010002031660029004801561192e5780601f106119035761010080835404028352916020019161192e565b820191906000526020600020905b81548152906001019060200180831161191157829003601f168201915b5050505050905091509150915091565b600160085401600881905550826007600060085481526020019081526020016000206000019080519060200190611976929190612399565b508160076000600854815260200190815260200160002060010190805190602001906119a3929190612399565b5042600760006008548152602001908152602001600020600201819055508060076000600854815260200190815260200160002060030190805190602001906119ed929190612399565b50505050565b6040518060a001604052803373ffffffffffffffffffffffffffffffffffffffff16815260200185815260200184815260200183815260200182815250600560003373ffffffffffffffffffffffffffffffffffffffff1673ffffffffffffffffffffffffffffffffffffffff16815260200190815260200160002060008201518160000160006101000a81548173ffffffffffffffffffffffffffffffffffffffff021916908373ffffffffffffffffffffffffffffffffffffffff1602179055506020820151816001015560408201518160020155606082015181600301556080820151816004019080519060200190611af0929190612419565b5090505050505050565b81600d60008573ffffffffffffffffffffffffffffffffffffffff1673ffffffffffffffffffffffffffffffffffffffff1681526020019081526020016000206000019080519060200190611b50929190612399565b5080600d60008573ffffffffffffffffffffffffffffffffffffffff1673ffffffffffffffffffffffffffffffffffffffff1681526020019081526020016000206001019080519060200190611ba7929190612399565b50505050565b600b602052806000526040600020600091509050806000018054600181600116156101000203166002900480601f016020809104026020016040519081016040528092919081815260200182805460018160011615610100020316600290048015611c595780601f10611c2e57610100808354040283529160200191611c59565b820191906000526020600020905b815481529060010190602001808311611c3c57829003601f168201915b505050505090806001018054600181600116156101000203166002900480601f016020809104026020016040519081016040528092919081815260200182805460018160011615610100020316600290048015611cf75780601f10611ccc57610100808354040283529160200191611cf7565b820191906000526020600020905b815481529060010190602001808311611cda57829003601f168201915b505050505090806002015490806003018054600181600116156101000203166002900480601f016020809104026020016040519081016040528092919081815260200182805460018160011615610100020316600290048015611d9b5780601f10611d7057610100808354040283529160200191611d9b565b820191906000526020600020905b815481529060010190602001808311611d7e57829003601f168201915b5050505050905084565b6000806000806060600060608060008060009054906101000a900473ffffffffffffffffffffffffffffffffffffffff16600560003373ffffffffffffffffffffffffffffffffffffffff1673ffffffffffffffffffffffffffffffffffffffff16815260200190815260200160002060010154600560003373ffffffffffffffffffffffffffffffffffffffff1673ffffffffffffffffffffffffffffffffffffffff16815260200190815260200160002060020154600560003373ffffffffffffffffffffffffffffffffffffffff1673ffffffffffffffffffffffffffffffffffffffff16815260200190815260200160002060030154600560003373ffffffffffffffffffffffffffffffffffffffff1673ffffffffffffffffffffffffffffffffffffffff16815260200190815260200160002060040160015460026003600854848054600181600116156101000203166002900480601f016020809104026020016040519081016040528092919081815260200182805460018160011615610100020316600290048015611f805780601f10611f5557610100808354040283529160200191611f80565b820191906000526020600020905b815481529060010190602001808311611f6357829003601f168201915b505050505094508280548060200260200160405190810160405280929190818152602001828054801561200857602002820191906000526020600020905b8160009054906101000a900473ffffffffffffffffffffffffffffffffffffffff1673ffffffffffffffffffffffffffffffffffffffff1681526020019060010190808311611fbe575b505050505092508180548060200260200160405190810160405280929190818152602001828054801561209057602002820191906000526020600020905b8160009054906101000a900473ffffffffffffffffffffffffffffffffffffffff1673ffffffffffffffffffffffffffffffffffffffff1681526020019060010190808311612046575b50505050509150985098509850985098509850985098509850909192939495969798565b606080600060606007600086815260200190815260200160002060000160076000878152602001908152602001600020600101600760008881526020019081526020016000206002015460076000898152602001908152602001600020600301838054600181600116156101000203166002900480601f0160208091040260200160405190810160405280929190818152602001828054600181600116156101000203166002900480156121a95780601f1061217e576101008083540402835291602001916121a9565b820191906000526020600020905b81548152906001019060200180831161218c57829003601f168201915b50505050509350828054600181600116156101000203166002900480601f0160208091040260200160405190810160405280929190818152602001828054600181600116156101000203166002900480156122455780601f1061221a57610100808354040283529160200191612245565b820191906000526020600020905b81548152906001019060200180831161222857829003601f168201915b50505050509250808054600181600116156101000203166002900480601f0160208091040260200160405190810160405280929190818152602001828054600181600116156101000203166002900480156122e15780601f106122b6576101008083540402835291602001916122e1565b820191906000526020600020905b8154815290600101906020018083116122c457829003601f168201915b5050505050905093509350935093509193509193565b600080600090505b600e8054905081101561238e578273ffffffffffffffffffffffffffffffffffffffff16600e828154811061233057fe5b9060005260206000200160009054906101000a900473ffffffffffffffffffffffffffffffffffffffff1673ffffffffffffffffffffffffffffffffffffffff161415612381576001915050612394565b80806001019150506122ff565b50600090505b919050565b828054600181600116156101000203166002900490600052602060002090601f016020900481019282601f106123da57805160ff1916838001178555612408565b82800160010185558215612408579182015b828111156124075782518255916020019190600101906123ec565b5b5090506124159190612499565b5090565b828054600181600116156101000203166002900490600052602060002090601f016020900481019282601f1061245a57805160ff1916838001178555612488565b82800160010185558215612488579182015b8281111561248757825182559160200191906001019061246c565b5b5090506124959190612499565b5090565b5b808211156124b257600081600090555060010161249a565b5090565b6000813590506124c581612f4b565b92915050565b6000813590506124da81612f62565b92915050565b6000813590506124ef81612f79565b92915050565b60008135905061250481612f90565b92915050565b600082601f83011261251b57600080fd5b813561252e61252982612d76565b612d49565b9150808252602083016020830185838301111561254a57600080fd5b612555838284612ef8565b50505092915050565b600082601f83011261256f57600080fd5b813561258261257d82612da2565b612d49565b9150808252602083016020830185838301111561259e57600080fd5b6125a9838284612ef8565b50505092915050565b6000813590506125c181612fa7565b92915050565b6000602082840312156125d957600080fd5b60006125e7848285016124b6565b91505092915050565b6000806040838503121561260357600080fd5b6000612611858286016124cb565b9250506020612622858286016125b2565b9150509250929050565b60008060006060848603121561264157600080fd5b600061264f868287016124b6565b9350506020612660868287016124f5565b9250506040612671868287016124e0565b9150509250925092565b60008060006060848603121561269057600080fd5b600061269e868287016124b6565b935050602084013567ffffffffffffffff8111156126bb57600080fd5b6126c78682870161255e565b925050604084013567ffffffffffffffff8111156126e457600080fd5b6126f08682870161255e565b9150509250925092565b6000806000806080858703121561271057600080fd5b600061271e878288016124f5565b945050602061272f878288016124f5565b9350506040612740878288016124f5565b925050606085013567ffffffffffffffff81111561275d57600080fd5b6127698782880161250a565b91505092959194509250565b60006020828403121561278757600080fd5b600082013567ffffffffffffffff8111156127a157600080fd5b6127ad8482850161255e565b91505092915050565b6000806000606084860312156127cb57600080fd5b600084013567ffffffffffffffff8111156127e557600080fd5b6127f18682870161255e565b935050602084013567ffffffffffffffff81111561280e57600080fd5b61281a8682870161255e565b925050604084013567ffffffffffffffff81111561283757600080fd5b6128438682870161255e565b9150509250925092565b60006020828403121561285f57600080fd5b600061286d848285016125b2565b91505092915050565b600061288283836128a2565b60208301905092915050565b600061289a83836129b1565b905092915050565b6128ab81612e94565b82525050565b6128ba81612e94565b82525050565b60006128cb82612dee565b6128d58185612e34565b93506128e083612dce565b8060005b838110156129115781516128f88882612876565b975061290383612e1a565b9250506001810190506128e4565b5085935050505092915050565b600061292982612df9565b6129338185612e45565b93508360208202850161294585612dde565b8060005b858110156129815784840389528151612962858261288e565b945061296d83612e27565b925060208a01995050600181019050612949565b50829750879550505050505092915050565b61299c81612eb8565b82525050565b6129ab81612ec4565b82525050565b60006129bc82612e04565b6129c68185612e56565b93506129d6818560208601612f07565b6129df81612f3a565b840191505092915050565b60006129f582612e04565b6129ff8185612e67565b9350612a0f818560208601612f07565b612a1881612f3a565b840191505092915050565b6000612a2e82612e0f565b612a388185612e78565b9350612a48818560208601612f07565b612a5181612f3a565b840191505092915050565b6000612a69600683612e89565b91507f50686f746f7300000000000000000000000000000000000000000000000000006000830152600682019050919050565b612aa581612eee565b82525050565b6000612ab682612a5c565b9150819050919050565b6000606082019050612ad560008301866128b1565b612ae260208301856129a2565b612aef6040830184612993565b949350505050565b600060a082019050612b0c60008301886128b1565b612b1960208301876129a2565b612b2660408301866129a2565b612b3360608301856129a2565b8181036080830152612b4581846129ea565b90509695505050505050565b600061012082019050612b67600083018c6128b1565b612b74602083018b6129a2565b612b81604083018a6129a2565b612b8e60608301896129a2565b8181036080830152612ba081886129ea565b9050612baf60a0830187612a9c565b81810360c0830152612bc181866128c0565b905081810360e0830152612bd581856128c0565b9050612be5610100830184612a9c565b9a9950505050505050505050565b60006020820190508181036000830152612c0d81846128c0565b905092915050565b60006020820190508181036000830152612c2f818461291e565b905092915050565b6000602082019050612c4c6000830184612993565b92915050565b6000604082019050612c6760008301856129a2565b612c746020830184612993565b9392505050565b60006020820190508181036000830152612c958184612a23565b905092915050565b60006040820190508181036000830152612cb78185612a23565b90508181036020830152612ccb8184612a23565b90509392505050565b60006080820190508181036000830152612cee8187612a23565b90508181036020830152612d028186612a23565b9050612d116040830185612a9c565b8181036060830152612d238184612a23565b905095945050505050565b6000602082019050612d436000830184612a9c565b92915050565b6000604051905081810181811067ffffffffffffffff82111715612d6c57600080fd5b8060405250919050565b600067ffffffffffffffff821115612d8d57600080fd5b601f19601f8301169050602081019050919050565b600067ffffffffffffffff821115612db957600080fd5b601f19601f8301169050602081019050919050565b6000819050602082019050919050565b6000819050602082019050919050565b600081519050919050565b600081519050919050565b600081519050919050565b600081519050919050565b6000602082019050919050565b6000602082019050919050565b600082825260208201905092915050565b600082825260208201905092915050565b600082825260208201905092915050565b600082825260208201905092915050565b600082825260208201905092915050565b600081905092915050565b6000612e9f82612ece565b9050919050565b6000612eb182612ece565b9050919050565b60008115159050919050565b6000819050919050565b600073ffffffffffffffffffffffffffffffffffffffff82169050919050565b6000819050919050565b82818337600083830152505050565b60005b83811015612f25578082015181840152602081019050612f0a565b83811115612f34576000848401525b50505050565b6000601f19601f8301169050919050565b612f5481612e94565b8114612f5f57600080fd5b50565b612f6b81612ea6565b8114612f7657600080fd5b50565b612f8281612eb8565b8114612f8d57600080fd5b50565b612f9981612ec4565b8114612fa457600080fd5b50565b612fb081612eee565b8114612fbb57600080fd5b5056fea2646970667358221220a201795f88c18ba759d57cd0e51fe0ba82e84e9f01016d864fdc6a818ad8f21964736f6c63430007000033",
  "immutableReferences": {},
  "source": "// SPDX-License-Identifier: MIT\r\npragma solidity ^0.7.0;\r\npragma experimental ABIEncoderV2;\r\n\r\ncontract Mia {\r\n\r\n    fallback() external payable {}\r\n    receive() external payable {}\r\n\r\n    address id;\r\n    uint creationDate;\r\n    address[] myAddresses;\r\n    address[] otherAddresses;\r\n    string marketplaceJSON;\r\n\r\n    struct userProfile{\r\n        address creator;\r\n        bytes32 name;\r\n        bytes32 email;\r\n        bytes32 mobile;\r\n        bytes image;\r\n    }\r\n\r\n    mapping(address => userProfile) public userInfo;\r\n    mapping(address => contactProfile) public contactInfo;\r\n\r\n    struct contactProfile{\r\n        bytes32 name;\r\n        bool coowner;\r\n    }\r\n\r\n    struct Photo {\r\n        string location;\r\n        string name;\r\n        uint date;\r\n        string filetype;\r\n    }\r\n\r\n    struct General {\r\n        string location;\r\n        string name;\r\n        uint date;\r\n        string filetype;\r\n    }\r\n\r\n    struct Personal {\r\n        string location;\r\n        string name;\r\n        uint date;\r\n        string filetype;\r\n    }\r\n\r\n    mapping(uint => Photo) public photos;\r\n    uint public photoCount;\r\n\r\n    mapping(uint => General) public general;\r\n    uint public generalCount;\r\n\r\n    mapping(uint => Personal) public personal;\r\n    uint public personalCount;\r\n\r\n    struct Message {\r\n        string location;\r\n        string key;\r\n    }\r\n\r\n    mapping(address => Message) public messages;\r\n\r\n    address[] photoAccess;\r\n    address[] generalAccess;\r\n    address[] personalAccess;\r\n\r\n    constructor(bytes32 _name, bytes32 _email, bytes32 _mobile, bytes memory _image) payable {\r\n        userInfo[msg.sender] = userProfile(msg.sender, _name, _email, _mobile, _image);\r\n        id = address(this);\r\n        creationDate = block.timestamp;\r\n    }\r\n\r\n    function addMessage(address _partner, string memory _location, string memory _key) public {\r\n        messages[_partner].location = _location;\r\n        messages[_partner].key = _key;\r\n    }\r\n\r\n    function getMessages(address _partner) public view returns (string memory, string memory) {\r\n        return (messages[_partner].location, messages[_partner].key);\r\n    }\r\n\r\n    function addPhoto(string memory _location, string memory _name, string memory _filetype) public {\r\n        photoCount = photoCount + 1;\r\n        photos[photoCount].location = _location;\r\n        photos[photoCount].name = _name;\r\n        photos[photoCount].date = block.timestamp;\r\n        photos[photoCount].filetype = _filetype;\r\n    }\r\n\r\n    function getPhotoCount() public view returns (uint) {\r\n        return photoCount;\r\n    }\r\n\r\n    function getPhotoDetails(uint _id) public view returns (string memory, string memory, uint, string memory) {\r\n        return (photos[_id].location, photos[_id].name, photos[_id].date, photos[_id].filetype);\r\n    }\r\n\r\n    function removePhoto(uint _id) public payable{\r\n        photoCount = photoCount - 1;\r\n        photos[_id].location = '';\r\n        photos[_id].name = '';\r\n        photos[_id].date = 0;\r\n        photos[_id].filetype = '';\r\n    }\r\n\r\n    function getMia() public view returns (address, bytes32, bytes32, bytes32, bytes memory, uint, address[] memory, address[] memory, uint) {\r\n        return (id, userInfo[msg.sender].name, userInfo[msg.sender].email, userInfo[msg.sender].mobile, userInfo[msg.sender].image, creationDate, myAddresses, otherAddresses, photoCount);\r\n    }\r\n\r\n    function getMarketplaceJson() public view returns (string memory) {\r\n        return (marketplaceJSON);\r\n    }\r\n\r\n    function updateMarketplaceJson(string memory _json) public {\r\n        marketplaceJSON = _json;\r\n    }\r\n\r\n    //function getOtherAddressesArray() public view returns (address[] memory) {\r\n    //    return (otherAddresses);\r\n    //}\r\n\r\n    function getContactInfo(address _otherAccount) public view returns (address, bytes32,bool) {\r\n        return (_otherAccount,contactInfo[_otherAccount].name, contactInfo[_otherAccount].coowner);\r\n    }\r\n\r\n    function updateUserProfile(bytes32 _name, bytes32 _email, bytes32 _mobile, bytes memory _image) public payable {\r\n        userInfo[msg.sender] = userProfile(msg.sender, _name, _email, _mobile, _image);\r\n    }\r\n\r\n    function addAddressToBook (address _otherAccount, bytes32 _name, bool _coowner) public payable {\r\n        //for (uint i=0; i<myAddresses.length; i++) {\r\n        //    if ([msg.sender][i] != _otherAccount) {\r\n                contactInfo[_otherAccount] = contactProfile(_name, _coowner);\r\n                myAddresses.push(address(_otherAccount));\r\n        //    }\r\n        //}\r\n    }\r\n\r\n    function removeAddressFromBook(address _otherAccount) public payable returns(bool){\r\n        uint indexToBeDeleted;\r\n        for (uint i=0; i < myAddresses.length; i++) {\r\n            if (myAddresses[i] == _otherAccount) {\r\n                indexToBeDeleted = i;\r\n                break;\r\n            }\r\n        }\r\n        for (uint i=0; i<photoAccess.length; i++) {\r\n            if (photoAccess[i] == _otherAccount) {\r\n                delete photoAccess[i];\r\n                break;\r\n            }\r\n        }\r\n        for (uint i=0; i<generalAccess.length; i++) {\r\n            if (generalAccess[i] == _otherAccount) {\r\n                delete generalAccess[i];\r\n                break;\r\n            }\r\n        }\r\n        for (uint i=0; i<photoAccess.length; i++) {\r\n            if (photoAccess[i] == _otherAccount) {\r\n                delete photoAccess[i];\r\n                break;\r\n            }\r\n        }\r\n        delete myAddresses[indexToBeDeleted];\r\n        return true;\r\n    }\r\n\r\n    function getUserAddresses(address _user) public view returns (address[] memory){\r\n        if (msg.sender == userInfo[_user].creator) {\r\n            return (myAddresses);\r\n        }\r\n    }\r\n\r\n    function transferFunds(address payable _receiver, uint256 _amount) pure external {\r\n        payable(_receiver).call{value:_amount};\r\n    }\r\n\r\n    function getIsPhotoAccess(address _user) public view returns (bool){\r\n        for (uint i=0; i<photoAccess.length; i++) {\r\n            if (photoAccess[i] == _user) {\r\n                return true;\r\n            }\r\n        }\r\n        return false;\r\n    }\r\n\r\n    function getIsGeneralAccess(address _user) public view returns (bool){\r\n        for (uint i=0; i<generalAccess.length; i++) {\r\n            if (generalAccess[i] == _user) {\r\n                return true;\r\n            }\r\n        }\r\n        return false;\r\n    }\r\n\r\n    function getIsPersonalAccess(address _user) public view returns (bool){\r\n        for (uint i=0; i<personalAccess.length; i++) {\r\n            if (personalAccess[i] == _user) {\r\n                return true;\r\n            }\r\n        }\r\n        return false;\r\n    }\r\n\r\n    function getUserPermissions(address _user) public view returns (bytes[] memory) {\r\n        bytes[] memory myperms = new bytes[](6);\r\n        for (uint i=0; i<photoAccess.length; i++) {\r\n            if (photoAccess[i] == _user) {\r\n                myperms[0] = (abi.encodePacked(\"Photos\"));\r\n                break;\r\n            }\r\n        }\r\n        // so that I can compile =(\r\n        //for (uint i=0; i<personalAccess.length; i++) {\r\n        //    if (personalAccess[i] == _user) {\r\n        //        myperms[1] = (abi.encodePacked(\"Personal\"));\r\n        //        break;\r\n        //    }\r\n        //}\r\n        //for (uint i=0; i<generalAccess.length; i++) {\r\n        //    if (generalAccess[i] == _user) {\r\n        //        myperms[2] = (abi.encodePacked(\"General\"));\r\n        //        break;\r\n        //    }\r\n        //}\r\n        return (myperms);\r\n    }\r\n\r\n    //function updateUserPermission(address _user, uint _photos, uint _general,  uint _personal) public returns (bool){\r\n    //        if (_photos == 1 && getIsPhotoAccess(_user) == false){\r\n    //            photoAccess.push(_user);\r\n    //        }\r\n    //        else if (_photos == 0 && getIsPhotoAccess(_user) == true){\r\n    //            for (uint i=0; i<photoAccess.length; i++) {\r\n    //                if (photoAccess[i] == _user) {\r\n    //                    delete photoAccess[i];\r\n    //                    break;\r\n    //                }\r\n    //            }\r\n    //        }\r\n//\r\n    //        if (_general == 1 && getIsGeneralAccess(_user) == false){\r\n    //            generalAccess.push(_user);\r\n    //        }\r\n    //        else if (_general == 0 && getIsGeneralAccess(_user) == true){\r\n    //            for (uint i=0; i<generalAccess.length; i++) {\r\n    //                if (generalAccess[i] == _user) {\r\n    //                    delete generalAccess[i];\r\n    //                    break;\r\n    //                }\r\n    //            }\r\n    //        }\r\n//\r\n    //        if (_personal == 1 && getIsPersonalAccess(_user) == false){\r\n    //            personalAccess.push(_user);\r\n    //        }\r\n    //        else if (_personal == 0 && getIsPersonalAccess(_user) == true){\r\n    //            for (uint i=0; i<personalAccess.length; i++) {\r\n    //                if (personalAccess[i] == _user) {\r\n    //                    delete personalAccess[i];\r\n    //                    break;\r\n    //                }\r\n    //            }\r\n    //        }\r\n    //        return true;\r\n    //}\r\n}",
  "sourcePath": "C:/Projects/guerfuture/contracts/Mia.sol",
  "compiler": {
    "name": "solc",
    "version": "0.7.0+commit.9e61f92b.Emscripten.clang"
  },
  "schemaVersion": "3.3.4",
  "updatedAt": "2021-05-01T06:35:21.757Z",
  "devdoc": {
    "kind": "dev",
    "methods": {},
    "version": 1
  },
  "userdoc": {
    "kind": "user",
    "methods": {},
    "version": 1
  }
}