{
  "contractName": "Nft",
  "abi": [
    {
      "inputs": [
        {
          "internalType": "bytes32",
          "name": "_name",
          "type": "bytes32"
        },
        {
          "internalType": "bytes32",
          "name": "_email",
          "type": "bytes32"
        },
        {
          "internalType": "bytes32",
          "name": "_mobile",
          "type": "bytes32"
        },
        {
          "internalType": "bytes",
          "name": "_image",
          "type": "bytes"
        }
      ],
      "stateMutability": "payable",
      "type": "constructor"
    },
    {
      "stateMutability": "payable",
      "type": "fallback"
    },
    {
      "inputs": [
        {
          "internalType": "address",
          "name": "",
          "type": "address"
        }
      ],
      "name": "contactInfo",
      "outputs": [
        {
          "internalType": "bytes32",
          "name": "name",
          "type": "bytes32"
        },
        {
          "internalType": "bool",
          "name": "coowner",
          "type": "bool"
        }
      ],
      "stateMutability": "view",
      "type": "function"
    },
    {
      "inputs": [
        {
          "internalType": "uint256",
          "name": "",
          "type": "uint256"
        }
      ],
      "name": "general",
      "outputs": [
        {
          "internalType": "string",
          "name": "location",
          "type": "string"
        },
        {
          "internalType": "string",
          "name": "name",
          "type": "string"
        },
        {
          "internalType": "uint256",
          "name": "date",
          "type": "uint256"
        },
        {
          "internalType": "string",
          "name": "filetype",
          "type": "string"
        }
      ],
      "stateMutability": "view",
      "type": "function"
    },
    {
      "inputs": [],
      "name": "generalCount",
      "outputs": [
        {
          "internalType": "uint256",
          "name": "",
          "type": "uint256"
        }
      ],
      "stateMutability": "view",
      "type": "function"
    },
    {
      "inputs": [
        {
          "internalType": "address",
          "name": "",
          "type": "address"
        }
      ],
      "name": "messages",
      "outputs": [
        {
          "internalType": "string",
          "name": "location",
          "type": "string"
        },
        {
          "internalType": "string",
          "name": "key",
          "type": "string"
        }
      ],
      "stateMutability": "view",
      "type": "function"
    },
    {
      "inputs": [
        {
          "internalType": "uint256",
          "name": "",
          "type": "uint256"
        }
      ],
      "name": "personal",
      "outputs": [
        {
          "internalType": "string",
          "name": "location",
          "type": "string"
        },
        {
          "internalType": "string",
          "name": "name",
          "type": "string"
        },
        {
          "internalType": "uint256",
          "name": "date",
          "type": "uint256"
        },
        {
          "internalType": "string",
          "name": "filetype",
          "type": "string"
        }
      ],
      "stateMutability": "view",
      "type": "function"
    },
    {
      "inputs": [],
      "name": "personalCount",
      "outputs": [
        {
          "internalType": "uint256",
          "name": "",
          "type": "uint256"
        }
      ],
      "stateMutability": "view",
      "type": "function"
    },
    {
      "inputs": [],
      "name": "photoCount",
      "outputs": [
        {
          "internalType": "uint256",
          "name": "",
          "type": "uint256"
        }
      ],
      "stateMutability": "view",
      "type": "function"
    },
    {
      "inputs": [
        {
          "internalType": "uint256",
          "name": "",
          "type": "uint256"
        }
      ],
      "name": "photos",
      "outputs": [
        {
          "internalType": "string",
          "name": "location",
          "type": "string"
        },
        {
          "internalType": "string",
          "name": "name",
          "type": "string"
        },
        {
          "internalType": "uint256",
          "name": "date",
          "type": "uint256"
        },
        {
          "internalType": "string",
          "name": "filetype",
          "type": "string"
        }
      ],
      "stateMutability": "view",
      "type": "function"
    },
    {
      "inputs": [
        {
          "internalType": "address",
          "name": "",
          "type": "address"
        }
      ],
      "name": "userInfo",
      "outputs": [
        {
          "internalType": "address",
          "name": "creator",
          "type": "address"
        },
        {
          "internalType": "bytes32",
          "name": "name",
          "type": "bytes32"
        },
        {
          "internalType": "bytes32",
          "name": "email",
          "type": "bytes32"
        },
        {
          "internalType": "bytes32",
          "name": "mobile",
          "type": "bytes32"
        },
        {
          "internalType": "bytes",
          "name": "image",
          "type": "bytes"
        }
      ],
      "stateMutability": "view",
      "type": "function"
    },
    {
      "stateMutability": "payable",
      "type": "receive"
    },
    {
      "inputs": [
        {
          "internalType": "address",
          "name": "_partner",
          "type": "address"
        },
        {
          "internalType": "string",
          "name": "_location",
          "type": "string"
        },
        {
          "internalType": "string",
          "name": "_key",
          "type": "string"
        }
      ],
      "name": "addMessage",
      "outputs": [],
      "stateMutability": "nonpayable",
      "type": "function"
    },
    {
      "inputs": [
        {
          "internalType": "address",
          "name": "_partner",
          "type": "address"
        }
      ],
      "name": "getMessages",
      "outputs": [
        {
          "internalType": "string",
          "name": "",
          "type": "string"
        },
        {
          "internalType": "string",
          "name": "",
          "type": "string"
        }
      ],
      "stateMutability": "view",
      "type": "function"
    },
    {
      "inputs": [
        {
          "internalType": "string",
          "name": "_location",
          "type": "string"
        },
        {
          "internalType": "string",
          "name": "_name",
          "type": "string"
        },
        {
          "internalType": "string",
          "name": "_filetype",
          "type": "string"
        }
      ],
      "name": "addPhoto",
      "outputs": [],
      "stateMutability": "nonpayable",
      "type": "function"
    },
    {
      "inputs": [],
      "name": "getPhotoCount",
      "outputs": [
        {
          "internalType": "uint256",
          "name": "",
          "type": "uint256"
        }
      ],
      "stateMutability": "view",
      "type": "function"
    },
    {
      "inputs": [
        {
          "internalType": "uint256",
          "name": "_id",
          "type": "uint256"
        }
      ],
      "name": "getPhotoDetails",
      "outputs": [
        {
          "internalType": "string",
          "name": "",
          "type": "string"
        },
        {
          "internalType": "string",
          "name": "",
          "type": "string"
        },
        {
          "internalType": "uint256",
          "name": "",
          "type": "uint256"
        },
        {
          "internalType": "string",
          "name": "",
          "type": "string"
        }
      ],
      "stateMutability": "view",
      "type": "function"
    },
    {
      "inputs": [
        {
          "internalType": "uint256",
          "name": "_id",
          "type": "uint256"
        }
      ],
      "name": "removePhoto",
      "outputs": [],
      "stateMutability": "payable",
      "type": "function"
    },
    {
      "inputs": [],
      "name": "getNft",
      "outputs": [
        {
          "internalType": "address",
          "name": "",
          "type": "address"
        },
        {
          "internalType": "bytes32",
          "name": "",
          "type": "bytes32"
        },
        {
          "internalType": "bytes32",
          "name": "",
          "type": "bytes32"
        },
        {
          "internalType": "bytes32",
          "name": "",
          "type": "bytes32"
        },
        {
          "internalType": "bytes",
          "name": "",
          "type": "bytes"
        },
        {
          "internalType": "uint256",
          "name": "",
          "type": "uint256"
        },
        {
          "internalType": "address[]",
          "name": "",
          "type": "address[]"
        },
        {
          "internalType": "address[]",
          "name": "",
          "type": "address[]"
        },
        {
          "internalType": "uint256",
          "name": "",
          "type": "uint256"
        }
      ],
      "stateMutability": "view",
      "type": "function"
    },
    {
      "inputs": [],
      "name": "getMarketplaceJson",
      "outputs": [
        {
          "internalType": "string",
          "name": "",
          "type": "string"
        }
      ],
      "stateMutability": "view",
      "type": "function"
    },
    {
      "inputs": [
        {
          "internalType": "string",
          "name": "_json",
          "type": "string"
        }
      ],
      "name": "updateMarketplaceJson",
      "outputs": [],
      "stateMutability": "nonpayable",
      "type": "function"
    },
    {
      "inputs": [
        {
          "internalType": "address",
          "name": "_otherAccount",
          "type": "address"
        }
      ],
      "name": "getContactInfo",
      "outputs": [
        {
          "internalType": "address",
          "name": "",
          "type": "address"
        },
        {
          "internalType": "bytes32",
          "name": "",
          "type": "bytes32"
        },
        {
          "internalType": "bool",
          "name": "",
          "type": "bool"
        }
      ],
      "stateMutability": "view",
      "type": "function"
    },
    {
      "inputs": [
        {
          "internalType": "bytes32",
          "name": "_name",
          "type": "bytes32"
        },
        {
          "internalType": "bytes32",
          "name": "_email",
          "type": "bytes32"
        },
        {
          "internalType": "bytes32",
          "name": "_mobile",
          "type": "bytes32"
        },
        {
          "internalType": "bytes",
          "name": "_image",
          "type": "bytes"
        }
      ],
      "name": "updateUserProfile",
      "outputs": [],
      "stateMutability": "payable",
      "type": "function"
    },
    {
      "inputs": [
        {
          "internalType": "address",
          "name": "_otherAccount",
          "type": "address"
        },
        {
          "internalType": "bytes32",
          "name": "_name",
          "type": "bytes32"
        },
        {
          "internalType": "bool",
          "name": "_coowner",
          "type": "bool"
        }
      ],
      "name": "addAddressToBook",
      "outputs": [],
      "stateMutability": "payable",
      "type": "function"
    },
    {
      "inputs": [
        {
          "internalType": "address",
          "name": "_otherAccount",
          "type": "address"
        }
      ],
      "name": "removeAddressFromBook",
      "outputs": [
        {
          "internalType": "bool",
          "name": "",
          "type": "bool"
        }
      ],
      "stateMutability": "payable",
      "type": "function"
    },
    {
      "inputs": [],
      "name": "getUserAddresses",
      "outputs": [
        {
          "internalType": "address[]",
          "name": "",
          "type": "address[]"
        }
      ],
      "stateMutability": "view",
      "type": "function"
    },
    {
      "inputs": [
        {
          "internalType": "address payable",
          "name": "_receiver",
          "type": "address"
        },
        {
          "internalType": "uint256",
          "name": "_amount",
          "type": "uint256"
        }
      ],
      "name": "transferFunds",
      "outputs": [],
      "stateMutability": "pure",
      "type": "function"
    }
  ],
  "bytecode": "0x608060405260405162002d5338038062002d538339818101604052810190620000299190620002b6565b6040518060a001604052803373ffffffffffffffffffffffffffffffffffffffff16815260200185815260200184815260200183815260200182815250600560003373ffffffffffffffffffffffffffffffffffffffff1673ffffffffffffffffffffffffffffffffffffffff16815260200190815260200160002060008201518160000160006101000a81548173ffffffffffffffffffffffffffffffffffffffff021916908373ffffffffffffffffffffffffffffffffffffffff1602179055506020820151816001015560408201518160020155606082015181600301556080820151816004019080519060200190620001289291906200017d565b50905050306000806101000a81548173ffffffffffffffffffffffffffffffffffffffff021916908373ffffffffffffffffffffffffffffffffffffffff1602179055504260018190555050505050620004cf565b8280546200018b90620003da565b90600052602060002090601f016020900481019282620001af5760008555620001fb565b82601f10620001ca57805160ff1916838001178555620001fb565b82800160010185558215620001fb579182015b82811115620001fa578251825591602001919060010190620001dd565b5b5090506200020a91906200020e565b5090565b5b80821115620002295760008160009055506001016200020f565b5090565b6000620002446200023e8462000364565b6200033b565b9050828152602081018484840111156200025d57600080fd5b6200026a848285620003a4565b509392505050565b6000815190506200028381620004b5565b92915050565b600082601f8301126200029b57600080fd5b8151620002ad8482602086016200022d565b91505092915050565b60008060008060808587031215620002cd57600080fd5b6000620002dd8782880162000272565b9450506020620002f08782880162000272565b9350506040620003038782880162000272565b925050606085015167ffffffffffffffff8111156200032157600080fd5b6200032f8782880162000289565b91505092959194509250565b6000620003476200035a565b905062000355828262000410565b919050565b6000604051905090565b600067ffffffffffffffff82111562000382576200038162000475565b5b6200038d82620004a4565b9050602081019050919050565b6000819050919050565b60005b83811015620003c4578082015181840152602081019050620003a7565b83811115620003d4576000848401525b50505050565b60006002820490506001821680620003f357607f821691505b602082108114156200040a576200040962000446565b5b50919050565b6200041b82620004a4565b810181811067ffffffffffffffff821117156200043d576200043c62000475565b5b80604052505050565b7f4e487b7100000000000000000000000000000000000000000000000000000000600052602260045260246000fd5b7f4e487b7100000000000000000000000000000000000000000000000000000000600052604160045260246000fd5b6000601f19601f8301169050919050565b620004c0816200039a565b8114620004cc57600080fd5b50565b61287480620004df6000396000f3fe60806040526004361061013c576000357c010000000000000000000000000000000000000000000000000000000090048063055349a81461014557806312b595331461017057806312d28b18146101a057806316372ab0146101cb5780631959a002146101f65780633065a0d1146102375780633ba355f9146102535780634e3c650c1461027e578063510e43e41461029a5780635fdd59f8146102c55780636ff198221461030357806383703df314610341578063990dc9db146103805780639ad449aa146103a9578063a591efde146103e9578063ac513fb814610414578063af2a5d6f14610447578063afb7b17e14610487578063b2f71322146104b0578063b3ebaa90146104ee578063b917727b14610517578063c3685e8914610533578063ca052bf01461055c578063df9f60e91461059c57610143565b3661014357005b005b34801561015157600080fd5b5061015a6105dc565b604051610167919061243e565b60405180910390f35b61018a60048036038101906101859190611e10565b6105e6565b6040516101979190612347565b60405180910390f35b3480156101ac57600080fd5b506101b561071e565b6040516101c2919061243e565b60405180910390f35b3480156101d757600080fd5b506101e0610724565b6040516101ed919061243e565b60405180910390f35b34801561020257600080fd5b5061021d60048036038101906102189190611e10565b61072a565b60405161022e959493929190612229565b60405180910390f35b610251600480360381019061024c9190611e75565b610808565b005b34801561025f57600080fd5b506102686108f3565b604051610275919061238b565b60405180910390f35b61029860048036038101906102939190612096565b610985565b005b3480156102a657600080fd5b506102af610a67565b6040516102bc919061243e565b60405180910390f35b3480156102d157600080fd5b506102ec60048036038101906102e79190611e10565b610a6d565b6040516102fa9291906123ad565b60405180910390f35b34801561030f57600080fd5b5061032a60048036038101906103259190611e10565b610ba1565b604051610338929190612362565b60405180910390f35b34801561034d57600080fd5b5061036860048036038101906103639190611e10565b610bd2565b604051610377939291906121f2565b60405180910390f35b34801561038c57600080fd5b506103a760048036038101906103a29190611e39565b610c78565b005b3480156103b557600080fd5b506103d060048036038101906103cb9190612096565b610c7c565b6040516103e094939291906123e4565b60405180910390f35b3480156103f557600080fd5b506103fe610e44565b60405161040b9190612325565b60405180910390f35b34801561042057600080fd5b50610429610ed2565b60405161043e99989796959493929190612283565b60405180910390f35b34801561045357600080fd5b5061046e60048036038101906104699190612096565b6111d1565b60405161047e94939291906123e4565b60405180910390f35b34801561049357600080fd5b506104ae60048036038101906104a99190611fbe565b611399565b005b3480156104bc57600080fd5b506104d760048036038101906104d29190611e10565b6113b3565b6040516104e59291906123ad565b60405180910390f35b3480156104fa57600080fd5b5061051560048036038101906105109190611fff565b61155b565b005b610531600480360381019061052c9190611f43565b611619565b005b34801561053f57600080fd5b5061055a60048036038101906105559190611ec4565b611720565b005b34801561056857600080fd5b50610583600480360381019061057e9190612096565b6117d3565b60405161059394939291906123e4565b60405180910390f35b3480156105a857600080fd5b506105c360048036038101906105be9190612096565b61199b565b6040516105d394939291906123e4565b60405180910390f35b6000600854905090565b60008060005b6002805490508110156106ac578373ffffffffffffffffffffffffffffffffffffffff166002828154811061064a577f4e487b7100000000000000000000000000000000000000000000000000000000600052603260045260246000fd5b9060005260206000200160009054906101000a900473ffffffffffffffffffffffffffffffffffffffff1673ffffffffffffffffffffffffffffffffffffffff161415610699578091506106ac565b80806106a4906126e4565b9150506105ec565b50600281815481106106e7577f4e487b7100000000000000000000000000000000000000000000000000000000600052603260045260246000fd5b9060005260206000200160006101000a81549073ffffffffffffffffffffffffffffffffffffffff02191690556001915050919050565b60085481565b600a5481565b60056020528060005260406000206000915090508060000160009054906101000a900473ffffffffffffffffffffffffffffffffffffffff169080600101549080600201549080600301549080600401805461078590612681565b80601f01602080910402602001604051908101604052809291908181526020018280546107b190612681565b80156107fe5780601f106107d3576101008083540402835291602001916107fe565b820191906000526020600020905b8154815290600101906020018083116107e157829003601f168201915b5050505050905085565b6040518060400160405280838152602001821515815250600660008573ffffffffffffffffffffffffffffffffffffffff1673ffffffffffffffffffffffffffffffffffffffff1681526020019081526020016000206000820151816000015560208201518160010160006101000a81548160ff0219169083151502179055509050506002839080600181540180825580915050600190039060005260206000200160009091909190916101000a81548173ffffffffffffffffffffffffffffffffffffffff021916908373ffffffffffffffffffffffffffffffffffffffff160217905550505050565b60606004805461090290612681565b80601f016020809104026020016040519081016040528092919081815260200182805461092e90612681565b801561097b5780601f106109505761010080835404028352916020019161097b565b820191906000526020600020905b81548152906001019060200180831161095e57829003601f168201915b5050505050905090565b600160085461099491906125a7565b600881905550604051806020016040528060008152506007600083815260200190815260200160002060000190805190602001906109d3929190611bae565b5060405180602001604052806000815250600760008381526020019081526020016000206001019080519060200190610a0d929190611bae565b506000600760008381526020019081526020016000206002018190555060405180602001604052806000815250600760008381526020019081526020016000206003019080519060200190610a63929190611bae565b5050565b600c5481565b600d602052806000526040600020600091509050806000018054610a9090612681565b80601f0160208091040260200160405190810160405280929190818152602001828054610abc90612681565b8015610b095780601f10610ade57610100808354040283529160200191610b09565b820191906000526020600020905b815481529060010190602001808311610aec57829003601f168201915b505050505090806001018054610b1e90612681565b80601f0160208091040260200160405190810160405280929190818152602001828054610b4a90612681565b8015610b975780601f10610b6c57610100808354040283529160200191610b97565b820191906000526020600020905b815481529060010190602001808311610b7a57829003601f168201915b5050505050905082565b60066020528060005260406000206000915090508060000154908060010160009054906101000a900460ff16905082565b600080600083600660008673ffffffffffffffffffffffffffffffffffffffff1673ffffffffffffffffffffffffffffffffffffffff16815260200190815260200160002060000154600660008773ffffffffffffffffffffffffffffffffffffffff1673ffffffffffffffffffffffffffffffffffffffff16815260200190815260200160002060010160009054906101000a900460ff169250925092509193909250565b5050565b6009602052806000526040600020600091509050806000018054610c9f90612681565b80601f0160208091040260200160405190810160405280929190818152602001828054610ccb90612681565b8015610d185780601f10610ced57610100808354040283529160200191610d18565b820191906000526020600020905b815481529060010190602001808311610cfb57829003601f168201915b505050505090806001018054610d2d90612681565b80601f0160208091040260200160405190810160405280929190818152602001828054610d5990612681565b8015610da65780601f10610d7b57610100808354040283529160200191610da6565b820191906000526020600020905b815481529060010190602001808311610d8957829003601f168201915b505050505090806002015490806003018054610dc190612681565b80601f0160208091040260200160405190810160405280929190818152602001828054610ded90612681565b8015610e3a5780601f10610e0f57610100808354040283529160200191610e3a565b820191906000526020600020905b815481529060010190602001808311610e1d57829003601f168201915b5050505050905084565b60606002805480602002602001604051908101604052809291908181526020018280548015610ec857602002820191906000526020600020905b8160009054906101000a900473ffffffffffffffffffffffffffffffffffffffff1673ffffffffffffffffffffffffffffffffffffffff1681526020019060010190808311610e7e575b5050505050905090565b6000806000806060600060608060008060009054906101000a900473ffffffffffffffffffffffffffffffffffffffff16600560003373ffffffffffffffffffffffffffffffffffffffff1673ffffffffffffffffffffffffffffffffffffffff16815260200190815260200160002060010154600560003373ffffffffffffffffffffffffffffffffffffffff1673ffffffffffffffffffffffffffffffffffffffff16815260200190815260200160002060020154600560003373ffffffffffffffffffffffffffffffffffffffff1673ffffffffffffffffffffffffffffffffffffffff16815260200190815260200160002060030154600560003373ffffffffffffffffffffffffffffffffffffffff1673ffffffffffffffffffffffffffffffffffffffff1681526020019081526020016000206004016001546002600360085484805461102490612681565b80601f016020809104026020016040519081016040528092919081815260200182805461105090612681565b801561109d5780601f106110725761010080835404028352916020019161109d565b820191906000526020600020905b81548152906001019060200180831161108057829003601f168201915b505050505094508280548060200260200160405190810160405280929190818152602001828054801561112557602002820191906000526020600020905b8160009054906101000a900473ffffffffffffffffffffffffffffffffffffffff1673ffffffffffffffffffffffffffffffffffffffff16815260200190600101908083116110db575b50505050509250818054806020026020016040519081016040528092919081815260200182805480156111ad57602002820191906000526020600020905b8160009054906101000a900473ffffffffffffffffffffffffffffffffffffffff1673ffffffffffffffffffffffffffffffffffffffff1681526020019060010190808311611163575b50505050509150985098509850985098509850985098509850909192939495969798565b60076020528060005260406000206000915090508060000180546111f490612681565b80601f016020809104026020016040519081016040528092919081815260200182805461122090612681565b801561126d5780601f106112425761010080835404028352916020019161126d565b820191906000526020600020905b81548152906001019060200180831161125057829003601f168201915b50505050509080600101805461128290612681565b80601f01602080910402602001604051908101604052809291908181526020018280546112ae90612681565b80156112fb5780601f106112d0576101008083540402835291602001916112fb565b820191906000526020600020905b8154815290600101906020018083116112de57829003601f168201915b50505050509080600201549080600301805461131690612681565b80601f016020809104026020016040519081016040528092919081815260200182805461134290612681565b801561138f5780601f106113645761010080835404028352916020019161138f565b820191906000526020600020905b81548152906001019060200180831161137257829003601f168201915b5050505050905084565b80600490805190602001906113af929190611bae565b5050565b606080600d60008473ffffffffffffffffffffffffffffffffffffffff1673ffffffffffffffffffffffffffffffffffffffff168152602001908152602001600020600001600d60008573ffffffffffffffffffffffffffffffffffffffff1673ffffffffffffffffffffffffffffffffffffffff16815260200190815260200160002060010181805461144690612681565b80601f016020809104026020016040519081016040528092919081815260200182805461147290612681565b80156114bf5780601f10611494576101008083540402835291602001916114bf565b820191906000526020600020905b8154815290600101906020018083116114a257829003601f168201915b505050505091508080546114d290612681565b80601f01602080910402602001604051908101604052809291908181526020018280546114fe90612681565b801561154b5780601f106115205761010080835404028352916020019161154b565b820191906000526020600020905b81548152906001019060200180831161152e57829003601f168201915b5050505050905091509150915091565b600160085461156a9190612551565b60088190555082600760006008548152602001908152602001600020600001908051906020019061159c929190611bae565b508160076000600854815260200190815260200160002060010190805190602001906115c9929190611bae565b504260076000600854815260200190815260200160002060020181905550806007600060085481526020019081526020016000206003019080519060200190611613929190611bae565b50505050565b6040518060a001604052803373ffffffffffffffffffffffffffffffffffffffff16815260200185815260200184815260200183815260200182815250600560003373ffffffffffffffffffffffffffffffffffffffff1673ffffffffffffffffffffffffffffffffffffffff16815260200190815260200160002060008201518160000160006101000a81548173ffffffffffffffffffffffffffffffffffffffff021916908373ffffffffffffffffffffffffffffffffffffffff1602179055506020820151816001015560408201518160020155606082015181600301556080820151816004019080519060200190611716929190611c34565b5090505050505050565b81600d60008573ffffffffffffffffffffffffffffffffffffffff1673ffffffffffffffffffffffffffffffffffffffff1681526020019081526020016000206000019080519060200190611776929190611bae565b5080600d60008573ffffffffffffffffffffffffffffffffffffffff1673ffffffffffffffffffffffffffffffffffffffff16815260200190815260200160002060010190805190602001906117cd929190611bae565b50505050565b600b6020528060005260406000206000915090508060000180546117f690612681565b80601f016020809104026020016040519081016040528092919081815260200182805461182290612681565b801561186f5780601f106118445761010080835404028352916020019161186f565b820191906000526020600020905b81548152906001019060200180831161185257829003601f168201915b50505050509080600101805461188490612681565b80601f01602080910402602001604051908101604052809291908181526020018280546118b090612681565b80156118fd5780601f106118d2576101008083540402835291602001916118fd565b820191906000526020600020905b8154815290600101906020018083116118e057829003601f168201915b50505050509080600201549080600301805461191890612681565b80601f016020809104026020016040519081016040528092919081815260200182805461194490612681565b80156119915780601f1061196657610100808354040283529160200191611991565b820191906000526020600020905b81548152906001019060200180831161197457829003601f168201915b5050505050905084565b606080600060606007600086815260200190815260200160002060000160076000878152602001908152602001600020600101600760008881526020019081526020016000206002015460076000898152602001908152602001600020600301838054611a0790612681565b80601f0160208091040260200160405190810160405280929190818152602001828054611a3390612681565b8015611a805780601f10611a5557610100808354040283529160200191611a80565b820191906000526020600020905b815481529060010190602001808311611a6357829003601f168201915b50505050509350828054611a9390612681565b80601f0160208091040260200160405190810160405280929190818152602001828054611abf90612681565b8015611b0c5780601f10611ae157610100808354040283529160200191611b0c565b820191906000526020600020905b815481529060010190602001808311611aef57829003601f168201915b50505050509250808054611b1f90612681565b80601f0160208091040260200160405190810160405280929190818152602001828054611b4b90612681565b8015611b985780601f10611b6d57610100808354040283529160200191611b98565b820191906000526020600020905b815481529060010190602001808311611b7b57829003601f168201915b5050505050905093509350935093509193509193565b828054611bba90612681565b90600052602060002090601f016020900481019282611bdc5760008555611c23565b82601f10611bf557805160ff1916838001178555611c23565b82800160010185558215611c23579182015b82811115611c22578251825591602001919060010190611c07565b5b509050611c309190611cba565b5090565b828054611c4090612681565b90600052602060002090601f016020900481019282611c625760008555611ca9565b82601f10611c7b57805160ff1916838001178555611ca9565b82800160010185558215611ca9579182015b82811115611ca8578251825591602001919060010190611c8d565b5b509050611cb69190611cba565b5090565b5b80821115611cd3576000816000905550600101611cbb565b5090565b6000611cea611ce58461247e565b612459565b905082815260208101848484011115611d0257600080fd5b611d0d84828561263f565b509392505050565b6000611d28611d23846124af565b612459565b905082815260208101848484011115611d4057600080fd5b611d4b84828561263f565b509392505050565b600081359050611d62816127cb565b92915050565b600081359050611d77816127e2565b92915050565b600081359050611d8c816127f9565b92915050565b600081359050611da181612810565b92915050565b600082601f830112611db857600080fd5b8135611dc8848260208601611cd7565b91505092915050565b600082601f830112611de257600080fd5b8135611df2848260208601611d15565b91505092915050565b600081359050611e0a81612827565b92915050565b600060208284031215611e2257600080fd5b6000611e3084828501611d53565b91505092915050565b60008060408385031215611e4c57600080fd5b6000611e5a85828601611d68565b9250506020611e6b85828601611dfb565b9150509250929050565b600080600060608486031215611e8a57600080fd5b6000611e9886828701611d53565b9350506020611ea986828701611d92565b9250506040611eba86828701611d7d565b9150509250925092565b600080600060608486031215611ed957600080fd5b6000611ee786828701611d53565b935050602084013567ffffffffffffffff811115611f0457600080fd5b611f1086828701611dd1565b925050604084013567ffffffffffffffff811115611f2d57600080fd5b611f3986828701611dd1565b9150509250925092565b60008060008060808587031215611f5957600080fd5b6000611f6787828801611d92565b9450506020611f7887828801611d92565b9350506040611f8987828801611d92565b925050606085013567ffffffffffffffff811115611fa657600080fd5b611fb287828801611da7565b91505092959194509250565b600060208284031215611fd057600080fd5b600082013567ffffffffffffffff811115611fea57600080fd5b611ff684828501611dd1565b91505092915050565b60008060006060848603121561201457600080fd5b600084013567ffffffffffffffff81111561202e57600080fd5b61203a86828701611dd1565b935050602084013567ffffffffffffffff81111561205757600080fd5b61206386828701611dd1565b925050604084013567ffffffffffffffff81111561208057600080fd5b61208c86828701611dd1565b9150509250925092565b6000602082840312156120a857600080fd5b60006120b684828501611dfb565b91505092915050565b60006120cb83836120d7565b60208301905092915050565b6120e0816125db565b82525050565b6120ef816125db565b82525050565b6000612100826124f0565b61210a818561251e565b9350612115836124e0565b8060005b8381101561214657815161212d88826120bf565b975061213883612511565b925050600181019050612119565b5085935050505092915050565b61215c816125ff565b82525050565b61216b8161260b565b82525050565b600061217c826124fb565b612186818561252f565b935061219681856020860161264e565b61219f816127ba565b840191505092915050565b60006121b582612506565b6121bf8185612540565b93506121cf81856020860161264e565b6121d8816127ba565b840191505092915050565b6121ec81612635565b82525050565b600060608201905061220760008301866120e6565b6122146020830185612162565b6122216040830184612153565b949350505050565b600060a08201905061223e60008301886120e6565b61224b6020830187612162565b6122586040830186612162565b6122656060830185612162565b81810360808301526122778184612171565b90509695505050505050565b600061012082019050612299600083018c6120e6565b6122a6602083018b612162565b6122b3604083018a612162565b6122c06060830189612162565b81810360808301526122d28188612171565b90506122e160a08301876121e3565b81810360c08301526122f381866120f5565b905081810360e083015261230781856120f5565b90506123176101008301846121e3565b9a9950505050505050505050565b6000602082019050818103600083015261233f81846120f5565b905092915050565b600060208201905061235c6000830184612153565b92915050565b60006040820190506123776000830185612162565b6123846020830184612153565b9392505050565b600060208201905081810360008301526123a581846121aa565b905092915050565b600060408201905081810360008301526123c781856121aa565b905081810360208301526123db81846121aa565b90509392505050565b600060808201905081810360008301526123fe81876121aa565b9050818103602083015261241281866121aa565b905061242160408301856121e3565b818103606083015261243381846121aa565b905095945050505050565b600060208201905061245360008301846121e3565b92915050565b6000612463612474565b905061246f82826126b3565b919050565b6000604051905090565b600067ffffffffffffffff8211156124995761249861278b565b5b6124a2826127ba565b9050602081019050919050565b600067ffffffffffffffff8211156124ca576124c961278b565b5b6124d3826127ba565b9050602081019050919050565b6000819050602082019050919050565b600081519050919050565b600081519050919050565b600081519050919050565b6000602082019050919050565b600082825260208201905092915050565b600082825260208201905092915050565b600082825260208201905092915050565b600061255c82612635565b915061256783612635565b9250827fffffffffffffffffffffffffffffffffffffffffffffffffffffffffffffffff0382111561259c5761259b61272d565b5b828201905092915050565b60006125b282612635565b91506125bd83612635565b9250828210156125d0576125cf61272d565b5b828203905092915050565b60006125e682612615565b9050919050565b60006125f882612615565b9050919050565b60008115159050919050565b6000819050919050565b600073ffffffffffffffffffffffffffffffffffffffff82169050919050565b6000819050919050565b82818337600083830152505050565b60005b8381101561266c578082015181840152602081019050612651565b8381111561267b576000848401525b50505050565b6000600282049050600182168061269957607f821691505b602082108114156126ad576126ac61275c565b5b50919050565b6126bc826127ba565b810181811067ffffffffffffffff821117156126db576126da61278b565b5b80604052505050565b60006126ef82612635565b91507fffffffffffffffffffffffffffffffffffffffffffffffffffffffffffffffff8214156127225761272161272d565b5b600182019050919050565b7f4e487b7100000000000000000000000000000000000000000000000000000000600052601160045260246000fd5b7f4e487b7100000000000000000000000000000000000000000000000000000000600052602260045260246000fd5b7f4e487b7100000000000000000000000000000000000000000000000000000000600052604160045260246000fd5b6000601f19601f8301169050919050565b6127d4816125db565b81146127df57600080fd5b50565b6127eb816125ed565b81146127f657600080fd5b50565b612802816125ff565b811461280d57600080fd5b50565b6128198161260b565b811461282457600080fd5b50565b61283081612635565b811461283b57600080fd5b5056fea26469706673582212208d1d18002131d88b0d88c048e34498714a1d727573837471b4a62563fe10e7dc64736f6c63430008040033",
  "immutableReferences": {},
  "source": "// SPDX-License-Identifier: MIT\r\npragma solidity ^0.8.4;\r\npragma experimental ABIEncoderV2;\r\n\r\ncontract Nft {\r\n\r\n    fallback() external payable {}\r\n    receive() external payable {}\r\n\r\n    address id;\r\n    uint creationDate;\r\n    address[] myAddresses;\r\n    address[] otherAddresses;\r\n    string marketplaceJSON;\r\n\r\n    struct userProfile{\r\n        address creator;\r\n        bytes32 name;\r\n        bytes32 email;\r\n        bytes32 mobile;\r\n        bytes image;\r\n    }\r\n\r\n    mapping(address => userProfile) public userInfo;\r\n    mapping(address => contactProfile) public contactInfo;\r\n\r\n    struct contactProfile{\r\n        bytes32 name;\r\n        bool coowner;\r\n    }\r\n\r\n    struct Photo {\r\n        string location;\r\n        string name;\r\n        uint date;\r\n        string filetype;\r\n    }\r\n\r\n    struct General {\r\n        string location;\r\n        string name;\r\n        uint date;\r\n        string filetype;\r\n    }\r\n\r\n    struct Personal {\r\n        string location;\r\n        string name;\r\n        uint date;\r\n        string filetype;\r\n    }\r\n\r\n    mapping(uint => Photo) public photos;\r\n    uint public photoCount;\r\n\r\n    mapping(uint => General) public general;\r\n    uint public generalCount;\r\n\r\n    mapping(uint => Personal) public personal;\r\n    uint public personalCount;\r\n\r\n    struct Message {\r\n        string location;\r\n        string key;\r\n    }\r\n\r\n    mapping(address => Message) public messages;\r\n\r\n    address[] photoAccess;\r\n    address[] generalAccess;\r\n    address[] personalAccess;\r\n\r\n    constructor(bytes32 _name, bytes32 _email, bytes32 _mobile, bytes memory _image) payable {\r\n        userInfo[msg.sender] = userProfile(msg.sender, _name, _email, _mobile, _image);\r\n        id = address(this);\r\n        creationDate = block.timestamp;\r\n    }\r\n\r\n    function addMessage(address _partner, string memory _location, string memory _key) public {\r\n        messages[_partner].location = _location;\r\n        messages[_partner].key = _key;\r\n    }\r\n\r\n    function getMessages(address _partner) public view returns (string memory, string memory) {\r\n        return (messages[_partner].location, messages[_partner].key);\r\n    }\r\n\r\n    function addPhoto(string memory _location, string memory _name, string memory _filetype) public {\r\n        photoCount = photoCount + 1;\r\n        photos[photoCount].location = _location;\r\n        photos[photoCount].name = _name;\r\n        photos[photoCount].date = block.timestamp;\r\n        photos[photoCount].filetype = _filetype;\r\n    }\r\n\r\n    function getPhotoCount() public view returns (uint) {\r\n        return photoCount;\r\n    }\r\n\r\n    function getPhotoDetails(uint _id) public view returns (string memory, string memory, uint, string memory) {\r\n        return (photos[_id].location, photos[_id].name, photos[_id].date, photos[_id].filetype);\r\n    }\r\n\r\n    function removePhoto(uint _id) public payable{\r\n        photoCount = photoCount - 1;\r\n        photos[_id].location = '';\r\n        photos[_id].name = '';\r\n        photos[_id].date = 0;\r\n        photos[_id].filetype = '';\r\n    }\r\n\r\n    function getNft() public view returns (address, bytes32, bytes32, bytes32, bytes memory, uint, address[] memory, address[] memory, uint) {\r\n        return (id, userInfo[msg.sender].name, userInfo[msg.sender].email, userInfo[msg.sender].mobile, userInfo[msg.sender].image, creationDate, myAddresses, otherAddresses, photoCount);\r\n    }\r\n\r\n    function getMarketplaceJson() public view returns (string memory) {\r\n        return (marketplaceJSON);\r\n    }\r\n\r\n    function updateMarketplaceJson(string memory _json) public {\r\n        marketplaceJSON = _json;\r\n    }\r\n\r\n    //function getOtherAddressesArray() public view returns (address[] memory) {\r\n    //    return (otherAddresses);\r\n    //}\r\n\r\n    function getContactInfo(address _otherAccount) public view returns (address, bytes32,bool) {\r\n        return (_otherAccount,contactInfo[_otherAccount].name, contactInfo[_otherAccount].coowner);\r\n    }\r\n\r\n    function updateUserProfile(bytes32 _name, bytes32 _email, bytes32 _mobile, bytes memory _image) public payable {\r\n        userInfo[msg.sender] = userProfile(msg.sender, _name, _email, _mobile, _image);\r\n    }\r\n\r\n    function addAddressToBook (address _otherAccount, bytes32 _name, bool _coowner) public payable {\r\n        //for (uint i=0; i<myAddresses.length; i++) {\r\n        //    if ([msg.sender][i] != _otherAccount) {\r\n                contactInfo[_otherAccount] = contactProfile(_name, _coowner);\r\n                myAddresses.push(address(_otherAccount));\r\n        //    }\r\n        //}\r\n    }\r\n\r\n    function removeAddressFromBook(address _otherAccount) public payable returns(bool){\r\n        uint indexToBeDeleted;\r\n        for (uint i=0; i < myAddresses.length; i++) {\r\n            if (myAddresses[i] == _otherAccount) {\r\n                indexToBeDeleted = i;\r\n                break;\r\n            }\r\n        }\r\n        delete myAddresses[indexToBeDeleted];\r\n        return true;\r\n    }\r\n\r\n    function getUserAddresses() public view returns (address[] memory){\r\n        //if (msg.sender == userInfo[_user].creator) {\r\n            return (myAddresses);\r\n        //}\r\n    }\r\n\r\n    function transferFunds(address payable _receiver, uint256 _amount) pure external {\r\n        payable(_receiver).call{value:_amount};\r\n    }\r\n\r\n}",
  "sourcePath": "C:/Projects/bcommerce/contracts/Nft.sol",
  "compiler": {
    "name": "solc",
    "version": "0.8.4+commit.c7e474f2.Emscripten.clang"
  },
  "schemaVersion": "3.4.0",
  "updatedAt": "2021-05-07T02:12:00.070Z",
  "devdoc": {
    "kind": "dev",
    "methods": {},
    "version": 1
  },
  "userdoc": {
    "kind": "user",
    "methods": {},
    "version": 1
  }
}