{
  "contractName": "Test",
  "abi": [
    {
      "inputs": [],
      "stateMutability": "payable",
      "type": "constructor"
    },
    {
      "inputs": [],
      "name": "getGuerOwnerAddress",
      "outputs": [
        {
          "internalType": "address",
          "name": "",
          "type": "address"
        }
      ],
      "stateMutability": "view",
      "type": "function"
    },
    {
      "inputs": [],
      "name": "doPayRoyalty",
      "outputs": [
        {
          "internalType": "bool",
          "name": "",
          "type": "bool"
        }
      ],
      "stateMutability": "payable",
      "type": "function"
    },
    {
      "inputs": [
        {
          "internalType": "address payable",
          "name": "docAddress",
          "type": "address"
        },
        {
          "internalType": "bytes32",
          "name": "_name",
          "type": "bytes32"
        },
        {
          "internalType": "bytes32",
          "name": "_email",
          "type": "bytes32"
        },
        {
          "internalType": "bytes32",
          "name": "_mobile",
          "type": "bytes32"
        },
        {
          "internalType": "bytes",
          "name": "_image",
          "type": "bytes"
        }
      ],
      "name": "updateUserProfile",
      "outputs": [],
      "stateMutability": "payable",
      "type": "function"
    },
    {
      "inputs": [
        {
          "internalType": "bytes32",
          "name": "_name",
          "type": "bytes32"
        },
        {
          "internalType": "bytes32",
          "name": "_email",
          "type": "bytes32"
        },
        {
          "internalType": "bytes32",
          "name": "_mobile",
          "type": "bytes32"
        },
        {
          "internalType": "bytes",
          "name": "_image",
          "type": "bytes"
        }
      ],
      "name": "createNFT",
      "outputs": [],
      "stateMutability": "payable",
      "type": "function"
    },
    {
      "inputs": [],
      "name": "getUseraNFTs",
      "outputs": [
        {
          "internalType": "address[]",
          "name": "",
          "type": "address[]"
        }
      ],
      "stateMutability": "view",
      "type": "function"
    },
    {
      "inputs": [
        {
          "internalType": "address payable",
          "name": "docAddress",
          "type": "address"
        }
      ],
      "name": "getaNFTInfo",
      "outputs": [
        {
          "internalType": "address",
          "name": "",
          "type": "address"
        },
        {
          "internalType": "bytes32",
          "name": "",
          "type": "bytes32"
        },
        {
          "internalType": "bytes32",
          "name": "",
          "type": "bytes32"
        },
        {
          "internalType": "bytes32",
          "name": "",
          "type": "bytes32"
        },
        {
          "internalType": "bytes",
          "name": "",
          "type": "bytes"
        },
        {
          "internalType": "uint256",
          "name": "",
          "type": "uint256"
        },
        {
          "internalType": "address[]",
          "name": "",
          "type": "address[]"
        },
        {
          "internalType": "address[]",
          "name": "",
          "type": "address[]"
        },
        {
          "internalType": "uint256",
          "name": "",
          "type": "uint256"
        }
      ],
      "stateMutability": "view",
      "type": "function"
    },
    {
      "inputs": [
        {
          "internalType": "address payable",
          "name": "docAddress",
          "type": "address"
        }
      ],
      "name": "doGetPhotoCount",
      "outputs": [
        {
          "internalType": "uint256",
          "name": "",
          "type": "uint256"
        }
      ],
      "stateMutability": "view",
      "type": "function"
    },
    {
      "inputs": [
        {
          "internalType": "address payable",
          "name": "docAddress",
          "type": "address"
        },
        {
          "internalType": "uint256",
          "name": "_id",
          "type": "uint256"
        }
      ],
      "name": "doGetPhoto",
      "outputs": [
        {
          "internalType": "string",
          "name": "",
          "type": "string"
        },
        {
          "internalType": "string",
          "name": "",
          "type": "string"
        },
        {
          "internalType": "uint256",
          "name": "",
          "type": "uint256"
        },
        {
          "internalType": "string",
          "name": "",
          "type": "string"
        }
      ],
      "stateMutability": "view",
      "type": "function"
    },
    {
      "inputs": [
        {
          "internalType": "address payable",
          "name": "docAddress",
          "type": "address"
        },
        {
          "internalType": "string",
          "name": "_location",
          "type": "string"
        },
        {
          "internalType": "string",
          "name": "_name",
          "type": "string"
        },
        {
          "internalType": "string",
          "name": "_filetype",
          "type": "string"
        }
      ],
      "name": "doAddPhoto",
      "outputs": [],
      "stateMutability": "nonpayable",
      "type": "function"
    },
    {
      "inputs": [
        {
          "internalType": "address payable",
          "name": "docAddress",
          "type": "address"
        },
        {
          "internalType": "uint256",
          "name": "_id",
          "type": "uint256"
        }
      ],
      "name": "doRemovePhoto",
      "outputs": [],
      "stateMutability": "nonpayable",
      "type": "function"
    },
    {
      "inputs": [
        {
          "internalType": "address payable",
          "name": "docAddress",
          "type": "address"
        },
        {
          "internalType": "address",
          "name": "_partner",
          "type": "address"
        },
        {
          "internalType": "string",
          "name": "_location",
          "type": "string"
        },
        {
          "internalType": "string",
          "name": "_key",
          "type": "string"
        }
      ],
      "name": "doAddMessage",
      "outputs": [],
      "stateMutability": "nonpayable",
      "type": "function"
    },
    {
      "inputs": [
        {
          "internalType": "address payable",
          "name": "docAddress",
          "type": "address"
        },
        {
          "internalType": "address",
          "name": "_partner",
          "type": "address"
        }
      ],
      "name": "doGetMessages",
      "outputs": [
        {
          "internalType": "string",
          "name": "",
          "type": "string"
        },
        {
          "internalType": "string",
          "name": "",
          "type": "string"
        }
      ],
      "stateMutability": "view",
      "type": "function"
    },
    {
      "inputs": [
        {
          "internalType": "address payable",
          "name": "docAddress",
          "type": "address"
        },
        {
          "internalType": "address",
          "name": "_userAddress",
          "type": "address"
        }
      ],
      "name": "doRemoveUserFromAddressBook",
      "outputs": [],
      "stateMutability": "nonpayable",
      "type": "function"
    },
    {
      "inputs": [
        {
          "internalType": "address payable",
          "name": "docAddress",
          "type": "address"
        },
        {
          "internalType": "address",
          "name": "_otherAccount",
          "type": "address"
        },
        {
          "internalType": "bytes32",
          "name": "_name",
          "type": "bytes32"
        },
        {
          "internalType": "bool",
          "name": "_coowner",
          "type": "bool"
        }
      ],
      "name": "doAddUserToAddressBook",
      "outputs": [],
      "stateMutability": "nonpayable",
      "type": "function"
    },
    {
      "inputs": [
        {
          "internalType": "address payable",
          "name": "docAddress",
          "type": "address"
        },
        {
          "internalType": "address payable",
          "name": "_receiver",
          "type": "address"
        },
        {
          "internalType": "uint256",
          "name": "_amount",
          "type": "uint256"
        }
      ],
      "name": "doTransferFunds",
      "outputs": [],
      "stateMutability": "payable",
      "type": "function"
    },
    {
      "inputs": [
        {
          "internalType": "address payable",
          "name": "docAddress",
          "type": "address"
        },
        {
          "internalType": "address",
          "name": "_otherAccount",
          "type": "address"
        }
      ],
      "name": "doGetContactInfo",
      "outputs": [
        {
          "internalType": "address",
          "name": "",
          "type": "address"
        },
        {
          "internalType": "bytes32",
          "name": "",
          "type": "bytes32"
        },
        {
          "internalType": "bool",
          "name": "",
          "type": "bool"
        }
      ],
      "stateMutability": "view",
      "type": "function"
    },
    {
      "inputs": [
        {
          "internalType": "address payable",
          "name": "docAddress",
          "type": "address"
        }
      ],
      "name": "doGetMarketplaceJson",
      "outputs": [
        {
          "internalType": "string",
          "name": "",
          "type": "string"
        }
      ],
      "stateMutability": "view",
      "type": "function"
    },
    {
      "inputs": [
        {
          "internalType": "address payable",
          "name": "docAddress",
          "type": "address"
        },
        {
          "internalType": "string",
          "name": "_json",
          "type": "string"
        }
      ],
      "name": "doUpdateMarketplaceJson",
      "outputs": [],
      "stateMutability": "nonpayable",
      "type": "function"
    }
  ],
  "bytecode": "0x608060405233600260006101000a81548173ffffffffffffffffffffffffffffffffffffffff021916908373ffffffffffffffffffffffffffffffffffffffff160217905550614f8f806100546000396000f3fe60806040526004361062000109576000357c01000000000000000000000000000000000000000000000000000000009004806303eb48c1146200010e57806337e80700146200012e5780633b4406f2146200015c57806340b5623214620001a357806349e2727c14620001d15780635be2046e14620001ff5780635c41f369146200022d57806361d63a03146200024d57806371cb8caa146200026f5780638f9079ea14620002bb5780639aa7314414620002e9578063aab4a367146200032d578063bcdef128146200034d578063dfaab43c1462000393578063e060e06c14620003c1578063e84a8aa614620003f1578063f14568b21462000421578063fdd5d2851462000465575b600080fd5b6200012c6004803603810190620001269190620014c2565b620004aa565b005b3480156200013b57600080fd5b506200015a6004803603810190620001549190620013b8565b62000542565b005b3480156200016957600080fd5b506200018860048036038101906200018291906200166e565b620005d7565b6040516200019a949392919062001ead565b60405180910390f35b348015620001b057600080fd5b50620001cf6004803603810190620001c99190620015b7565b6200069f565b005b348015620001de57600080fd5b50620001fd6004803603810190620001f791906200155d565b62000734565b005b3480156200020c57600080fd5b506200022b60048036038101906200022591906200166e565b620007c3565b005b6200024b600480360381019062000245919062001362565b62000852565b005b62000257620008e2565b60405162000266919062001d8b565b60405180910390f35b3480156200027c57600080fd5b506200029b6004803603810190620002959190620012f5565b620008e7565b604051620002b29998979695949392919062001c68565b60405180910390f35b348015620002c857600080fd5b50620002e76004803603810190620002e1919062001424565b620009b8565b005b348015620002f657600080fd5b506200031560048036038101906200030f9190620012f5565b62000a4d565b60405162000324919062001dfc565b60405180910390f35b6200034b600480360381019062000345919062001855565b62000af9565b005b3480156200035a57600080fd5b5062000379600480360381019062000373919062001321565b62000be3565b6040516200038a9392919062001c2b565b60405180910390f35b348015620003a057600080fd5b50620003bf6004803603810190620003b9919062001321565b62000ca0565b005b348015620003ce57600080fd5b50620003d962000d52565b604051620003e8919062001d67565b60405180910390f35b348015620003fe57600080fd5b506200040962000e1f565b60405162000418919062001be1565b60405180910390f35b3480156200042e57600080fd5b506200044d6004803603810190620004479190620012f5565b62000e49565b6040516200045c919062001f0f565b60405180910390f35b3480156200047257600080fd5b506200049160048036038101906200048b919062001321565b62000ef0565b604051620004a192919062001e20565b60405180910390f35b8473ffffffffffffffffffffffffffffffffffffffff1663b917727b858585856040518563ffffffff167c010000000000000000000000000000000000000000000000000000000002815260040162000507949392919062001da8565b600060405180830381600087803b1580156200052257600080fd5b505af115801562000537573d6000803e3d6000fd5b505050505050505050565b8373ffffffffffffffffffffffffffffffffffffffff16633065a0d18484846040518463ffffffff167c01000000000000000000000000000000000000000000000000000000000281526004016200059d9392919062001c2b565b600060405180830381600087803b158015620005b857600080fd5b505af1158015620005cd573d6000803e3d6000fd5b5050505050505050565b606080600060608573ffffffffffffffffffffffffffffffffffffffff1663df9f60e9866040518263ffffffff167c010000000000000000000000000000000000000000000000000000000002815260040162000635919062001f0f565b60006040518083038186803b1580156200064e57600080fd5b505afa15801562000663573d6000803e3d6000fd5b505050506040513d6000823e3d601f19601f820116820180604052508101906200068e919062001992565b935093509350935092959194509250565b8373ffffffffffffffffffffffffffffffffffffffff1663b3ebaa908484846040518463ffffffff167c0100000000000000000000000000000000000000000000000000000000028152600401620006fa9392919062001e5b565b600060405180830381600087803b1580156200071557600080fd5b505af11580156200072a573d6000803e3d6000fd5b5050505050505050565b8173ffffffffffffffffffffffffffffffffffffffff1663afb7b17e826040518263ffffffff167c01000000000000000000000000000000000000000000000000000000000281526004016200078b919062001dfc565b600060405180830381600087803b158015620007a657600080fd5b505af1158015620007bb573d6000803e3d6000fd5b505050505050565b8173ffffffffffffffffffffffffffffffffffffffff16634e3c650c826040518263ffffffff167c01000000000000000000000000000000000000000000000000000000000281526004016200081a919062001f0f565b600060405180830381600087803b1580156200083557600080fd5b505af11580156200084a573d6000803e3d6000fd5b505050505050565b8273ffffffffffffffffffffffffffffffffffffffff1663990dc9db83836040518363ffffffff167c0100000000000000000000000000000000000000000000000000000000028152600401620008ab92919062001bfe565b60006040518083038186803b158015620008c457600080fd5b505afa158015620008d9573d6000803e3d6000fd5b50505050505050565b600090565b6000806000806060600060608060008973ffffffffffffffffffffffffffffffffffffffff1663ac513fb86040518163ffffffff167c010000000000000000000000000000000000000000000000000000000002815260040160006040518083038186803b1580156200095957600080fd5b505afa1580156200096e573d6000803e3d6000fd5b505050506040513d6000823e3d601f19601f8201168201806040525081019062000999919062001705565b9850985098509850985098509850985098509193959799909294969850565b8373ffffffffffffffffffffffffffffffffffffffff1663c3685e898484846040518463ffffffff167c010000000000000000000000000000000000000000000000000000000002815260040162000a139392919062001d1c565b600060405180830381600087803b15801562000a2e57600080fd5b505af115801562000a43573d6000803e3d6000fd5b5050505050505050565b60608173ffffffffffffffffffffffffffffffffffffffff16633ba355f96040518163ffffffff167c010000000000000000000000000000000000000000000000000000000002815260040160006040518083038186803b15801562000ab257600080fd5b505afa15801562000ac7573d6000803e3d6000fd5b505050506040513d6000823e3d601f19601f8201168201806040525081019062000af29190620018da565b9050919050565b60008484848460405162000b0d9062000fae565b62000b1c949392919062001da8565b604051809103906000f08015801562000b39573d6000803e3d6000fd5b509050600160003373ffffffffffffffffffffffffffffffffffffffff1673ffffffffffffffffffffffffffffffffffffffff168152602001908152602001600020819080600181540180825580915050600190039060005260206000200160009091909190916101000a81548173ffffffffffffffffffffffffffffffffffffffff021916908373ffffffffffffffffffffffffffffffffffffffff1602179055505050505050565b60008060008473ffffffffffffffffffffffffffffffffffffffff166383703df3856040518263ffffffff167c010000000000000000000000000000000000000000000000000000000002815260040162000c3f919062001be1565b60606040518083038186803b15801562000c5857600080fd5b505afa15801562000c6d573d6000803e3d6000fd5b505050506040513d601f19601f8201168201806040525081019062000c939190620016af565b9250925092509250925092565b8173ffffffffffffffffffffffffffffffffffffffff166312b59533826040518263ffffffff167c010000000000000000000000000000000000000000000000000000000002815260040162000cf7919062001be1565b602060405180830381600087803b15801562000d1257600080fd5b505af115801562000d27573d6000803e3d6000fd5b505050506040513d601f19601f8201168201806040525081019062000d4d919062001829565b505050565b6060600160003373ffffffffffffffffffffffffffffffffffffffff1673ffffffffffffffffffffffffffffffffffffffff16815260200190815260200160002080548060200260200160405190810160405280929190818152602001828054801562000e1557602002820191906000526020600020905b8160009054906101000a900473ffffffffffffffffffffffffffffffffffffffff1673ffffffffffffffffffffffffffffffffffffffff168152602001906001019080831162000dca575b5050505050905090565b6000600260009054906101000a900473ffffffffffffffffffffffffffffffffffffffff16905090565b60008173ffffffffffffffffffffffffffffffffffffffff1663055349a86040518163ffffffff167c010000000000000000000000000000000000000000000000000000000002815260040160206040518083038186803b15801562000eae57600080fd5b505afa15801562000ec3573d6000803e3d6000fd5b505050506040513d601f19601f8201168201806040525081019062000ee9919062001a49565b9050919050565b6060808373ffffffffffffffffffffffffffffffffffffffff1663b2f71322846040518263ffffffff167c010000000000000000000000000000000000000000000000000000000002815260040162000f4a919062001be1565b60006040518083038186803b15801562000f6357600080fd5b505afa15801562000f78573d6000803e3d6000fd5b505050506040513d6000823e3d601f19601f8201168201806040525081019062000fa391906200191f565b915091509250929050565b612d53806200220783390190565b600062000fd362000fcd8462001f55565b62001f2c565b9050808382526020820190508285602086028201111562000ff357600080fd5b60005b858110156200102757816200100c88826200115c565b84526020840193506020830192505060018101905062000ff6565b5050509392505050565b600062001048620010428462001f84565b62001f2c565b9050828152602081018484840111156200106157600080fd5b6200106e848285620020c9565b509392505050565b60006200108d620010878462001f84565b62001f2c565b905082815260208101848484011115620010a657600080fd5b620010b3848285620020d8565b509392505050565b6000620010d2620010cc8462001fba565b62001f2c565b905082815260208101848484011115620010eb57600080fd5b620010f8848285620020c9565b509392505050565b600062001117620011118462001fba565b62001f2c565b9050828152602081018484840111156200113057600080fd5b6200113d848285620020d8565b509392505050565b600081359050620011568162002184565b92915050565b6000815190506200116d8162002184565b92915050565b60008135905062001184816200219e565b92915050565b600082601f8301126200119c57600080fd5b8151620011ae84826020860162000fbc565b91505092915050565b600081359050620011c881620021b8565b92915050565b600081519050620011df81620021b8565b92915050565b600081359050620011f681620021d2565b92915050565b6000815190506200120d81620021d2565b92915050565b600082601f8301126200122557600080fd5b81356200123784826020860162001031565b91505092915050565b600082601f8301126200125257600080fd5b81516200126484826020860162001076565b91505092915050565b600082601f8301126200127f57600080fd5b813562001291848260208601620010bb565b91505092915050565b600082601f830112620012ac57600080fd5b8151620012be84826020860162001100565b91505092915050565b600081359050620012d881620021ec565b92915050565b600081519050620012ef81620021ec565b92915050565b6000602082840312156200130857600080fd5b6000620013188482850162001173565b91505092915050565b600080604083850312156200133557600080fd5b6000620013458582860162001173565b9250506020620013588582860162001145565b9150509250929050565b6000806000606084860312156200137857600080fd5b6000620013888682870162001173565b93505060206200139b8682870162001173565b9250506040620013ae86828701620012c7565b9150509250925092565b60008060008060808587031215620013cf57600080fd5b6000620013df8782880162001173565b9450506020620013f28782880162001145565b93505060406200140587828801620011e5565b92505060606200141887828801620011b7565b91505092959194509250565b600080600080608085870312156200143b57600080fd5b60006200144b8782880162001173565b94505060206200145e8782880162001145565b935050604085013567ffffffffffffffff8111156200147c57600080fd5b6200148a878288016200126d565b925050606085013567ffffffffffffffff811115620014a857600080fd5b620014b6878288016200126d565b91505092959194509250565b600080600080600060a08688031215620014db57600080fd5b6000620014eb8882890162001173565b9550506020620014fe88828901620011e5565b94505060406200151188828901620011e5565b93505060606200152488828901620011e5565b925050608086013567ffffffffffffffff8111156200154257600080fd5b620015508882890162001213565b9150509295509295909350565b600080604083850312156200157157600080fd5b6000620015818582860162001173565b925050602083013567ffffffffffffffff8111156200159f57600080fd5b620015ad858286016200126d565b9150509250929050565b60008060008060808587031215620015ce57600080fd5b6000620015de8782880162001173565b945050602085013567ffffffffffffffff811115620015fc57600080fd5b6200160a878288016200126d565b935050604085013567ffffffffffffffff8111156200162857600080fd5b62001636878288016200126d565b925050606085013567ffffffffffffffff8111156200165457600080fd5b62001662878288016200126d565b91505092959194509250565b600080604083850312156200168257600080fd5b6000620016928582860162001173565b9250506020620016a585828601620012c7565b9150509250929050565b600080600060608486031215620016c557600080fd5b6000620016d5868287016200115c565b9350506020620016e886828701620011fc565b9250506040620016fb86828701620011ce565b9150509250925092565b60008060008060008060008060006101208a8c0312156200172557600080fd5b6000620017358c828d016200115c565b9950506020620017488c828d01620011fc565b98505060406200175b8c828d01620011fc565b97505060606200176e8c828d01620011fc565b96505060808a015167ffffffffffffffff8111156200178c57600080fd5b6200179a8c828d0162001240565b95505060a0620017ad8c828d01620012de565b94505060c08a015167ffffffffffffffff811115620017cb57600080fd5b620017d98c828d016200118a565b93505060e08a015167ffffffffffffffff811115620017f757600080fd5b620018058c828d016200118a565b925050610100620018198c828d01620012de565b9150509295985092959850929598565b6000602082840312156200183c57600080fd5b60006200184c84828501620011ce565b91505092915050565b600080600080608085870312156200186c57600080fd5b60006200187c87828801620011e5565b94505060206200188f87828801620011e5565b9350506040620018a287828801620011e5565b925050606085013567ffffffffffffffff811115620018c057600080fd5b620018ce8782880162001213565b91505092959194509250565b600060208284031215620018ed57600080fd5b600082015167ffffffffffffffff8111156200190857600080fd5b62001916848285016200129a565b91505092915050565b600080604083850312156200193357600080fd5b600083015167ffffffffffffffff8111156200194e57600080fd5b6200195c858286016200129a565b925050602083015167ffffffffffffffff8111156200197a57600080fd5b62001988858286016200129a565b9150509250929050565b60008060008060808587031215620019a957600080fd5b600085015167ffffffffffffffff811115620019c457600080fd5b620019d2878288016200129a565b945050602085015167ffffffffffffffff811115620019f057600080fd5b620019fe878288016200129a565b935050604062001a1187828801620012de565b925050606085015167ffffffffffffffff81111562001a2f57600080fd5b62001a3d878288016200129a565b91505092959194509250565b60006020828403121562001a5c57600080fd5b600062001a6c84828501620012de565b91505092915050565b600062001a83838362001aa0565b60208301905092915050565b62001a9a8162002075565b82525050565b62001aab8162002061565b82525050565b62001abc8162002061565b82525050565b600062001acf8262002000565b62001adb81856200202e565b935062001ae88362001ff0565b8060005b8381101562001b1f57815162001b03888262001a75565b975062001b108362002021565b92505060018101905062001aec565b5085935050505092915050565b62001b378162002089565b82525050565b62001b488162002095565b82525050565b600062001b5b826200200b565b62001b6781856200203f565b935062001b79818560208601620020d8565b62001b848162002173565b840191505092915050565b600062001b9c8262002016565b62001ba8818562002050565b935062001bba818560208601620020d8565b62001bc58162002173565b840191505092915050565b62001bdb81620020bf565b82525050565b600060208201905062001bf8600083018462001ab1565b92915050565b600060408201905062001c15600083018562001a8f565b62001c24602083018462001bd0565b9392505050565b600060608201905062001c42600083018662001ab1565b62001c51602083018562001b3d565b62001c60604083018462001b2c565b949350505050565b60006101208201905062001c80600083018c62001ab1565b62001c8f602083018b62001b3d565b62001c9e604083018a62001b3d565b62001cad606083018962001b3d565b818103608083015262001cc1818862001b4e565b905062001cd260a083018762001bd0565b81810360c083015262001ce6818662001ac2565b905081810360e083015262001cfc818562001ac2565b905062001d0e61010083018462001bd0565b9a9950505050505050505050565b600060608201905062001d33600083018662001ab1565b818103602083015262001d47818562001b8f565b9050818103604083015262001d5d818462001b8f565b9050949350505050565b6000602082019050818103600083015262001d83818462001ac2565b905092915050565b600060208201905062001da2600083018462001b2c565b92915050565b600060808201905062001dbf600083018762001b3d565b62001dce602083018662001b3d565b62001ddd604083018562001b3d565b818103606083015262001df1818462001b4e565b905095945050505050565b6000602082019050818103600083015262001e18818462001b8f565b905092915050565b6000604082019050818103600083015262001e3c818562001b8f565b9050818103602083015262001e52818462001b8f565b90509392505050565b6000606082019050818103600083015262001e77818662001b8f565b9050818103602083015262001e8d818562001b8f565b9050818103604083015262001ea3818462001b8f565b9050949350505050565b6000608082019050818103600083015262001ec9818762001b8f565b9050818103602083015262001edf818662001b8f565b905062001ef0604083018562001bd0565b818103606083015262001f04818462001b8f565b905095945050505050565b600060208201905062001f26600083018462001bd0565b92915050565b600062001f3862001f4b565b905062001f4682826200210e565b919050565b6000604051905090565b600067ffffffffffffffff82111562001f735762001f7262002144565b5b602082029050602081019050919050565b600067ffffffffffffffff82111562001fa25762001fa162002144565b5b62001fad8262002173565b9050602081019050919050565b600067ffffffffffffffff82111562001fd85762001fd762002144565b5b62001fe38262002173565b9050602081019050919050565b6000819050602082019050919050565b600081519050919050565b600081519050919050565b600081519050919050565b6000602082019050919050565b600082825260208201905092915050565b600082825260208201905092915050565b600082825260208201905092915050565b60006200206e826200209f565b9050919050565b600062002082826200209f565b9050919050565b60008115159050919050565b6000819050919050565b600073ffffffffffffffffffffffffffffffffffffffff82169050919050565b6000819050919050565b82818337600083830152505050565b60005b83811015620020f8578082015181840152602081019050620020db565b8381111562002108576000848401525b50505050565b620021198262002173565b810181811067ffffffffffffffff821117156200213b576200213a62002144565b5b80604052505050565b7f4e487b7100000000000000000000000000000000000000000000000000000000600052604160045260246000fd5b6000601f19601f8301169050919050565b6200218f8162002061565b81146200219b57600080fd5b50565b620021a98162002075565b8114620021b557600080fd5b50565b620021c38162002089565b8114620021cf57600080fd5b50565b620021dd8162002095565b8114620021e957600080fd5b50565b620021f781620020bf565b81146200220357600080fd5b5056fe608060405260405162002d5338038062002d538339818101604052810190620000299190620002b6565b6040518060a001604052803373ffffffffffffffffffffffffffffffffffffffff16815260200185815260200184815260200183815260200182815250600560003373ffffffffffffffffffffffffffffffffffffffff1673ffffffffffffffffffffffffffffffffffffffff16815260200190815260200160002060008201518160000160006101000a81548173ffffffffffffffffffffffffffffffffffffffff021916908373ffffffffffffffffffffffffffffffffffffffff1602179055506020820151816001015560408201518160020155606082015181600301556080820151816004019080519060200190620001289291906200017d565b50905050306000806101000a81548173ffffffffffffffffffffffffffffffffffffffff021916908373ffffffffffffffffffffffffffffffffffffffff1602179055504260018190555050505050620004cf565b8280546200018b90620003da565b90600052602060002090601f016020900481019282620001af5760008555620001fb565b82601f10620001ca57805160ff1916838001178555620001fb565b82800160010185558215620001fb579182015b82811115620001fa578251825591602001919060010190620001dd565b5b5090506200020a91906200020e565b5090565b5b80821115620002295760008160009055506001016200020f565b5090565b6000620002446200023e8462000364565b6200033b565b9050828152602081018484840111156200025d57600080fd5b6200026a848285620003a4565b509392505050565b6000815190506200028381620004b5565b92915050565b600082601f8301126200029b57600080fd5b8151620002ad8482602086016200022d565b91505092915050565b60008060008060808587031215620002cd57600080fd5b6000620002dd8782880162000272565b9450506020620002f08782880162000272565b9350506040620003038782880162000272565b925050606085015167ffffffffffffffff8111156200032157600080fd5b6200032f8782880162000289565b91505092959194509250565b6000620003476200035a565b905062000355828262000410565b919050565b6000604051905090565b600067ffffffffffffffff82111562000382576200038162000475565b5b6200038d82620004a4565b9050602081019050919050565b6000819050919050565b60005b83811015620003c4578082015181840152602081019050620003a7565b83811115620003d4576000848401525b50505050565b60006002820490506001821680620003f357607f821691505b602082108114156200040a576200040962000446565b5b50919050565b6200041b82620004a4565b810181811067ffffffffffffffff821117156200043d576200043c62000475565b5b80604052505050565b7f4e487b7100000000000000000000000000000000000000000000000000000000600052602260045260246000fd5b7f4e487b7100000000000000000000000000000000000000000000000000000000600052604160045260246000fd5b6000601f19601f8301169050919050565b620004c0816200039a565b8114620004cc57600080fd5b50565b61287480620004df6000396000f3fe60806040526004361061013c576000357c010000000000000000000000000000000000000000000000000000000090048063055349a81461014557806312b595331461017057806312d28b18146101a057806316372ab0146101cb5780631959a002146101f65780633065a0d1146102375780633ba355f9146102535780634e3c650c1461027e578063510e43e41461029a5780635fdd59f8146102c55780636ff198221461030357806383703df314610341578063990dc9db146103805780639ad449aa146103a9578063a591efde146103e9578063ac513fb814610414578063af2a5d6f14610447578063afb7b17e14610487578063b2f71322146104b0578063b3ebaa90146104ee578063b917727b14610517578063c3685e8914610533578063ca052bf01461055c578063df9f60e91461059c57610143565b3661014357005b005b34801561015157600080fd5b5061015a6105dc565b604051610167919061243e565b60405180910390f35b61018a60048036038101906101859190611e10565b6105e6565b6040516101979190612347565b60405180910390f35b3480156101ac57600080fd5b506101b561071e565b6040516101c2919061243e565b60405180910390f35b3480156101d757600080fd5b506101e0610724565b6040516101ed919061243e565b60405180910390f35b34801561020257600080fd5b5061021d60048036038101906102189190611e10565b61072a565b60405161022e959493929190612229565b60405180910390f35b610251600480360381019061024c9190611e75565b610808565b005b34801561025f57600080fd5b506102686108f3565b604051610275919061238b565b60405180910390f35b61029860048036038101906102939190612096565b610985565b005b3480156102a657600080fd5b506102af610a67565b6040516102bc919061243e565b60405180910390f35b3480156102d157600080fd5b506102ec60048036038101906102e79190611e10565b610a6d565b6040516102fa9291906123ad565b60405180910390f35b34801561030f57600080fd5b5061032a60048036038101906103259190611e10565b610ba1565b604051610338929190612362565b60405180910390f35b34801561034d57600080fd5b5061036860048036038101906103639190611e10565b610bd2565b604051610377939291906121f2565b60405180910390f35b34801561038c57600080fd5b506103a760048036038101906103a29190611e39565b610c78565b005b3480156103b557600080fd5b506103d060048036038101906103cb9190612096565b610c7c565b6040516103e094939291906123e4565b60405180910390f35b3480156103f557600080fd5b506103fe610e44565b60405161040b9190612325565b60405180910390f35b34801561042057600080fd5b50610429610ed2565b60405161043e99989796959493929190612283565b60405180910390f35b34801561045357600080fd5b5061046e60048036038101906104699190612096565b6111d1565b60405161047e94939291906123e4565b60405180910390f35b34801561049357600080fd5b506104ae60048036038101906104a99190611fbe565b611399565b005b3480156104bc57600080fd5b506104d760048036038101906104d29190611e10565b6113b3565b6040516104e59291906123ad565b60405180910390f35b3480156104fa57600080fd5b5061051560048036038101906105109190611fff565b61155b565b005b610531600480360381019061052c9190611f43565b611619565b005b34801561053f57600080fd5b5061055a60048036038101906105559190611ec4565b611720565b005b34801561056857600080fd5b50610583600480360381019061057e9190612096565b6117d3565b60405161059394939291906123e4565b60405180910390f35b3480156105a857600080fd5b506105c360048036038101906105be9190612096565b61199b565b6040516105d394939291906123e4565b60405180910390f35b6000600854905090565b60008060005b6002805490508110156106ac578373ffffffffffffffffffffffffffffffffffffffff166002828154811061064a577f4e487b7100000000000000000000000000000000000000000000000000000000600052603260045260246000fd5b9060005260206000200160009054906101000a900473ffffffffffffffffffffffffffffffffffffffff1673ffffffffffffffffffffffffffffffffffffffff161415610699578091506106ac565b80806106a4906126e4565b9150506105ec565b50600281815481106106e7577f4e487b7100000000000000000000000000000000000000000000000000000000600052603260045260246000fd5b9060005260206000200160006101000a81549073ffffffffffffffffffffffffffffffffffffffff02191690556001915050919050565b60085481565b600a5481565b60056020528060005260406000206000915090508060000160009054906101000a900473ffffffffffffffffffffffffffffffffffffffff169080600101549080600201549080600301549080600401805461078590612681565b80601f01602080910402602001604051908101604052809291908181526020018280546107b190612681565b80156107fe5780601f106107d3576101008083540402835291602001916107fe565b820191906000526020600020905b8154815290600101906020018083116107e157829003601f168201915b5050505050905085565b6040518060400160405280838152602001821515815250600660008573ffffffffffffffffffffffffffffffffffffffff1673ffffffffffffffffffffffffffffffffffffffff1681526020019081526020016000206000820151816000015560208201518160010160006101000a81548160ff0219169083151502179055509050506002839080600181540180825580915050600190039060005260206000200160009091909190916101000a81548173ffffffffffffffffffffffffffffffffffffffff021916908373ffffffffffffffffffffffffffffffffffffffff160217905550505050565b60606004805461090290612681565b80601f016020809104026020016040519081016040528092919081815260200182805461092e90612681565b801561097b5780601f106109505761010080835404028352916020019161097b565b820191906000526020600020905b81548152906001019060200180831161095e57829003601f168201915b5050505050905090565b600160085461099491906125a7565b600881905550604051806020016040528060008152506007600083815260200190815260200160002060000190805190602001906109d3929190611bae565b5060405180602001604052806000815250600760008381526020019081526020016000206001019080519060200190610a0d929190611bae565b506000600760008381526020019081526020016000206002018190555060405180602001604052806000815250600760008381526020019081526020016000206003019080519060200190610a63929190611bae565b5050565b600c5481565b600d602052806000526040600020600091509050806000018054610a9090612681565b80601f0160208091040260200160405190810160405280929190818152602001828054610abc90612681565b8015610b095780601f10610ade57610100808354040283529160200191610b09565b820191906000526020600020905b815481529060010190602001808311610aec57829003601f168201915b505050505090806001018054610b1e90612681565b80601f0160208091040260200160405190810160405280929190818152602001828054610b4a90612681565b8015610b975780601f10610b6c57610100808354040283529160200191610b97565b820191906000526020600020905b815481529060010190602001808311610b7a57829003601f168201915b5050505050905082565b60066020528060005260406000206000915090508060000154908060010160009054906101000a900460ff16905082565b600080600083600660008673ffffffffffffffffffffffffffffffffffffffff1673ffffffffffffffffffffffffffffffffffffffff16815260200190815260200160002060000154600660008773ffffffffffffffffffffffffffffffffffffffff1673ffffffffffffffffffffffffffffffffffffffff16815260200190815260200160002060010160009054906101000a900460ff169250925092509193909250565b5050565b6009602052806000526040600020600091509050806000018054610c9f90612681565b80601f0160208091040260200160405190810160405280929190818152602001828054610ccb90612681565b8015610d185780601f10610ced57610100808354040283529160200191610d18565b820191906000526020600020905b815481529060010190602001808311610cfb57829003601f168201915b505050505090806001018054610d2d90612681565b80601f0160208091040260200160405190810160405280929190818152602001828054610d5990612681565b8015610da65780601f10610d7b57610100808354040283529160200191610da6565b820191906000526020600020905b815481529060010190602001808311610d8957829003601f168201915b505050505090806002015490806003018054610dc190612681565b80601f0160208091040260200160405190810160405280929190818152602001828054610ded90612681565b8015610e3a5780601f10610e0f57610100808354040283529160200191610e3a565b820191906000526020600020905b815481529060010190602001808311610e1d57829003601f168201915b5050505050905084565b60606002805480602002602001604051908101604052809291908181526020018280548015610ec857602002820191906000526020600020905b8160009054906101000a900473ffffffffffffffffffffffffffffffffffffffff1673ffffffffffffffffffffffffffffffffffffffff1681526020019060010190808311610e7e575b5050505050905090565b6000806000806060600060608060008060009054906101000a900473ffffffffffffffffffffffffffffffffffffffff16600560003373ffffffffffffffffffffffffffffffffffffffff1673ffffffffffffffffffffffffffffffffffffffff16815260200190815260200160002060010154600560003373ffffffffffffffffffffffffffffffffffffffff1673ffffffffffffffffffffffffffffffffffffffff16815260200190815260200160002060020154600560003373ffffffffffffffffffffffffffffffffffffffff1673ffffffffffffffffffffffffffffffffffffffff16815260200190815260200160002060030154600560003373ffffffffffffffffffffffffffffffffffffffff1673ffffffffffffffffffffffffffffffffffffffff1681526020019081526020016000206004016001546002600360085484805461102490612681565b80601f016020809104026020016040519081016040528092919081815260200182805461105090612681565b801561109d5780601f106110725761010080835404028352916020019161109d565b820191906000526020600020905b81548152906001019060200180831161108057829003601f168201915b505050505094508280548060200260200160405190810160405280929190818152602001828054801561112557602002820191906000526020600020905b8160009054906101000a900473ffffffffffffffffffffffffffffffffffffffff1673ffffffffffffffffffffffffffffffffffffffff16815260200190600101908083116110db575b50505050509250818054806020026020016040519081016040528092919081815260200182805480156111ad57602002820191906000526020600020905b8160009054906101000a900473ffffffffffffffffffffffffffffffffffffffff1673ffffffffffffffffffffffffffffffffffffffff1681526020019060010190808311611163575b50505050509150985098509850985098509850985098509850909192939495969798565b60076020528060005260406000206000915090508060000180546111f490612681565b80601f016020809104026020016040519081016040528092919081815260200182805461122090612681565b801561126d5780601f106112425761010080835404028352916020019161126d565b820191906000526020600020905b81548152906001019060200180831161125057829003601f168201915b50505050509080600101805461128290612681565b80601f01602080910402602001604051908101604052809291908181526020018280546112ae90612681565b80156112fb5780601f106112d0576101008083540402835291602001916112fb565b820191906000526020600020905b8154815290600101906020018083116112de57829003601f168201915b50505050509080600201549080600301805461131690612681565b80601f016020809104026020016040519081016040528092919081815260200182805461134290612681565b801561138f5780601f106113645761010080835404028352916020019161138f565b820191906000526020600020905b81548152906001019060200180831161137257829003601f168201915b5050505050905084565b80600490805190602001906113af929190611bae565b5050565b606080600d60008473ffffffffffffffffffffffffffffffffffffffff1673ffffffffffffffffffffffffffffffffffffffff168152602001908152602001600020600001600d60008573ffffffffffffffffffffffffffffffffffffffff1673ffffffffffffffffffffffffffffffffffffffff16815260200190815260200160002060010181805461144690612681565b80601f016020809104026020016040519081016040528092919081815260200182805461147290612681565b80156114bf5780601f10611494576101008083540402835291602001916114bf565b820191906000526020600020905b8154815290600101906020018083116114a257829003601f168201915b505050505091508080546114d290612681565b80601f01602080910402602001604051908101604052809291908181526020018280546114fe90612681565b801561154b5780601f106115205761010080835404028352916020019161154b565b820191906000526020600020905b81548152906001019060200180831161152e57829003601f168201915b5050505050905091509150915091565b600160085461156a9190612551565b60088190555082600760006008548152602001908152602001600020600001908051906020019061159c929190611bae565b508160076000600854815260200190815260200160002060010190805190602001906115c9929190611bae565b504260076000600854815260200190815260200160002060020181905550806007600060085481526020019081526020016000206003019080519060200190611613929190611bae565b50505050565b6040518060a001604052803373ffffffffffffffffffffffffffffffffffffffff16815260200185815260200184815260200183815260200182815250600560003373ffffffffffffffffffffffffffffffffffffffff1673ffffffffffffffffffffffffffffffffffffffff16815260200190815260200160002060008201518160000160006101000a81548173ffffffffffffffffffffffffffffffffffffffff021916908373ffffffffffffffffffffffffffffffffffffffff1602179055506020820151816001015560408201518160020155606082015181600301556080820151816004019080519060200190611716929190611c34565b5090505050505050565b81600d60008573ffffffffffffffffffffffffffffffffffffffff1673ffffffffffffffffffffffffffffffffffffffff1681526020019081526020016000206000019080519060200190611776929190611bae565b5080600d60008573ffffffffffffffffffffffffffffffffffffffff1673ffffffffffffffffffffffffffffffffffffffff16815260200190815260200160002060010190805190602001906117cd929190611bae565b50505050565b600b6020528060005260406000206000915090508060000180546117f690612681565b80601f016020809104026020016040519081016040528092919081815260200182805461182290612681565b801561186f5780601f106118445761010080835404028352916020019161186f565b820191906000526020600020905b81548152906001019060200180831161185257829003601f168201915b50505050509080600101805461188490612681565b80601f01602080910402602001604051908101604052809291908181526020018280546118b090612681565b80156118fd5780601f106118d2576101008083540402835291602001916118fd565b820191906000526020600020905b8154815290600101906020018083116118e057829003601f168201915b50505050509080600201549080600301805461191890612681565b80601f016020809104026020016040519081016040528092919081815260200182805461194490612681565b80156119915780601f1061196657610100808354040283529160200191611991565b820191906000526020600020905b81548152906001019060200180831161197457829003601f168201915b5050505050905084565b606080600060606007600086815260200190815260200160002060000160076000878152602001908152602001600020600101600760008881526020019081526020016000206002015460076000898152602001908152602001600020600301838054611a0790612681565b80601f0160208091040260200160405190810160405280929190818152602001828054611a3390612681565b8015611a805780601f10611a5557610100808354040283529160200191611a80565b820191906000526020600020905b815481529060010190602001808311611a6357829003601f168201915b50505050509350828054611a9390612681565b80601f0160208091040260200160405190810160405280929190818152602001828054611abf90612681565b8015611b0c5780601f10611ae157610100808354040283529160200191611b0c565b820191906000526020600020905b815481529060010190602001808311611aef57829003601f168201915b50505050509250808054611b1f90612681565b80601f0160208091040260200160405190810160405280929190818152602001828054611b4b90612681565b8015611b985780601f10611b6d57610100808354040283529160200191611b98565b820191906000526020600020905b815481529060010190602001808311611b7b57829003601f168201915b5050505050905093509350935093509193509193565b828054611bba90612681565b90600052602060002090601f016020900481019282611bdc5760008555611c23565b82601f10611bf557805160ff1916838001178555611c23565b82800160010185558215611c23579182015b82811115611c22578251825591602001919060010190611c07565b5b509050611c309190611cba565b5090565b828054611c4090612681565b90600052602060002090601f016020900481019282611c625760008555611ca9565b82601f10611c7b57805160ff1916838001178555611ca9565b82800160010185558215611ca9579182015b82811115611ca8578251825591602001919060010190611c8d565b5b509050611cb69190611cba565b5090565b5b80821115611cd3576000816000905550600101611cbb565b5090565b6000611cea611ce58461247e565b612459565b905082815260208101848484011115611d0257600080fd5b611d0d84828561263f565b509392505050565b6000611d28611d23846124af565b612459565b905082815260208101848484011115611d4057600080fd5b611d4b84828561263f565b509392505050565b600081359050611d62816127cb565b92915050565b600081359050611d77816127e2565b92915050565b600081359050611d8c816127f9565b92915050565b600081359050611da181612810565b92915050565b600082601f830112611db857600080fd5b8135611dc8848260208601611cd7565b91505092915050565b600082601f830112611de257600080fd5b8135611df2848260208601611d15565b91505092915050565b600081359050611e0a81612827565b92915050565b600060208284031215611e2257600080fd5b6000611e3084828501611d53565b91505092915050565b60008060408385031215611e4c57600080fd5b6000611e5a85828601611d68565b9250506020611e6b85828601611dfb565b9150509250929050565b600080600060608486031215611e8a57600080fd5b6000611e9886828701611d53565b9350506020611ea986828701611d92565b9250506040611eba86828701611d7d565b9150509250925092565b600080600060608486031215611ed957600080fd5b6000611ee786828701611d53565b935050602084013567ffffffffffffffff811115611f0457600080fd5b611f1086828701611dd1565b925050604084013567ffffffffffffffff811115611f2d57600080fd5b611f3986828701611dd1565b9150509250925092565b60008060008060808587031215611f5957600080fd5b6000611f6787828801611d92565b9450506020611f7887828801611d92565b9350506040611f8987828801611d92565b925050606085013567ffffffffffffffff811115611fa657600080fd5b611fb287828801611da7565b91505092959194509250565b600060208284031215611fd057600080fd5b600082013567ffffffffffffffff811115611fea57600080fd5b611ff684828501611dd1565b91505092915050565b60008060006060848603121561201457600080fd5b600084013567ffffffffffffffff81111561202e57600080fd5b61203a86828701611dd1565b935050602084013567ffffffffffffffff81111561205757600080fd5b61206386828701611dd1565b925050604084013567ffffffffffffffff81111561208057600080fd5b61208c86828701611dd1565b9150509250925092565b6000602082840312156120a857600080fd5b60006120b684828501611dfb565b91505092915050565b60006120cb83836120d7565b60208301905092915050565b6120e0816125db565b82525050565b6120ef816125db565b82525050565b6000612100826124f0565b61210a818561251e565b9350612115836124e0565b8060005b8381101561214657815161212d88826120bf565b975061213883612511565b925050600181019050612119565b5085935050505092915050565b61215c816125ff565b82525050565b61216b8161260b565b82525050565b600061217c826124fb565b612186818561252f565b935061219681856020860161264e565b61219f816127ba565b840191505092915050565b60006121b582612506565b6121bf8185612540565b93506121cf81856020860161264e565b6121d8816127ba565b840191505092915050565b6121ec81612635565b82525050565b600060608201905061220760008301866120e6565b6122146020830185612162565b6122216040830184612153565b949350505050565b600060a08201905061223e60008301886120e6565b61224b6020830187612162565b6122586040830186612162565b6122656060830185612162565b81810360808301526122778184612171565b90509695505050505050565b600061012082019050612299600083018c6120e6565b6122a6602083018b612162565b6122b3604083018a612162565b6122c06060830189612162565b81810360808301526122d28188612171565b90506122e160a08301876121e3565b81810360c08301526122f381866120f5565b905081810360e083015261230781856120f5565b90506123176101008301846121e3565b9a9950505050505050505050565b6000602082019050818103600083015261233f81846120f5565b905092915050565b600060208201905061235c6000830184612153565b92915050565b60006040820190506123776000830185612162565b6123846020830184612153565b9392505050565b600060208201905081810360008301526123a581846121aa565b905092915050565b600060408201905081810360008301526123c781856121aa565b905081810360208301526123db81846121aa565b90509392505050565b600060808201905081810360008301526123fe81876121aa565b9050818103602083015261241281866121aa565b905061242160408301856121e3565b818103606083015261243381846121aa565b905095945050505050565b600060208201905061245360008301846121e3565b92915050565b6000612463612474565b905061246f82826126b3565b919050565b6000604051905090565b600067ffffffffffffffff8211156124995761249861278b565b5b6124a2826127ba565b9050602081019050919050565b600067ffffffffffffffff8211156124ca576124c961278b565b5b6124d3826127ba565b9050602081019050919050565b6000819050602082019050919050565b600081519050919050565b600081519050919050565b600081519050919050565b6000602082019050919050565b600082825260208201905092915050565b600082825260208201905092915050565b600082825260208201905092915050565b600061255c82612635565b915061256783612635565b9250827fffffffffffffffffffffffffffffffffffffffffffffffffffffffffffffffff0382111561259c5761259b61272d565b5b828201905092915050565b60006125b282612635565b91506125bd83612635565b9250828210156125d0576125cf61272d565b5b828203905092915050565b60006125e682612615565b9050919050565b60006125f882612615565b9050919050565b60008115159050919050565b6000819050919050565b600073ffffffffffffffffffffffffffffffffffffffff82169050919050565b6000819050919050565b82818337600083830152505050565b60005b8381101561266c578082015181840152602081019050612651565b8381111561267b576000848401525b50505050565b6000600282049050600182168061269957607f821691505b602082108114156126ad576126ac61275c565b5b50919050565b6126bc826127ba565b810181811067ffffffffffffffff821117156126db576126da61278b565b5b80604052505050565b60006126ef82612635565b91507fffffffffffffffffffffffffffffffffffffffffffffffffffffffffffffffff8214156127225761272161272d565b5b600182019050919050565b7f4e487b7100000000000000000000000000000000000000000000000000000000600052601160045260246000fd5b7f4e487b7100000000000000000000000000000000000000000000000000000000600052602260045260246000fd5b7f4e487b7100000000000000000000000000000000000000000000000000000000600052604160045260246000fd5b6000601f19601f8301169050919050565b6127d4816125db565b81146127df57600080fd5b50565b6127eb816125ed565b81146127f657600080fd5b50565b612802816125ff565b811461280d57600080fd5b50565b6128198161260b565b811461282457600080fd5b50565b61283081612635565b811461283b57600080fd5b5056fea26469706673582212208d1d18002131d88b0d88c048e34498714a1d727573837471b4a62563fe10e7dc64736f6c63430008040033a2646970667358221220f11bdbb5206c80da6baee8551955b312c68ac84abd466aae21ffb9d1062d6b0064736f6c63430008040033",
  "immutableReferences": {},
  "source": "// SPDX-License-Identifier: MIT\r\npragma solidity ^0.8.4;\r\npragma experimental ABIEncoderV2;\r\nimport './Nft.sol';\r\n\r\ncontract Test {\r\n\r\n    address docId;\r\n    mapping(address => address[]) NftsByUser;\r\n    address payable ourWallet;\r\n    constructor() payable {\r\n        ourWallet = payable(msg.sender);\r\n    }\r\n\r\n    function getGuerOwnerAddress() public view returns(address){\r\n        return ourWallet;\r\n    }\r\n\r\n    function doPayRoyalty() public payable returns(bool){\r\n        //if (msg.value >= .001 ether)\r\n        //{\r\n        //    ourWallet.transfer(msg.value);\r\n        //    return true;\r\n        //}\r\n        //else {\r\n        //    return false;\r\n        //}\r\n    }\r\n\r\n    function updateUserProfile(address payable docAddress, bytes32 _name, bytes32 _email, bytes32 _mobile, bytes memory _image) public payable {\r\n        Nft(docAddress).updateUserProfile(_name,_email, _mobile, _image);\r\n    }\r\n\r\n    function createNFT(bytes32 _name, bytes32 _email, bytes32 _mobile, bytes memory _image) public payable {\r\n        Nft a = new Nft(_name, _email, _mobile, _image);\r\n        NftsByUser[msg.sender].push(address(a));\r\n    }\r\n\r\n    function getUseraNFTs() public view returns (address[] memory){\r\n        return NftsByUser[msg.sender];\r\n    }\r\n\r\n    function getaNFTInfo(address payable docAddress) public view returns (address, bytes32, bytes32, bytes32, bytes memory, uint, address[] memory, address[] memory, uint){\r\n        return Nft(docAddress).getNft();\r\n    }\r\n\r\n    function doGetPhotoCount(address payable docAddress) public view returns (uint) {\r\n        return Nft(docAddress).getPhotoCount();\r\n    }\r\n\r\n    function doGetPhoto(address payable docAddress, uint _id) public view returns (string memory, string memory, uint, string memory) {\r\n        return Nft(docAddress).getPhotoDetails(_id);\r\n    }\r\n\r\n    function doAddPhoto(address payable docAddress, string memory _location, string memory _name, string memory _filetype) public {\r\n        Nft(docAddress).addPhoto(_location, _name, _filetype);\r\n    }\r\n\r\n    function doRemovePhoto(address payable docAddress, uint _id) public {\r\n        Nft(docAddress).removePhoto(_id);\r\n    }\r\n\r\n    function doAddMessage(address payable docAddress, address _partner, string memory _location, string memory _key) public {\r\n        return Nft(docAddress).addMessage(_partner,_location,_key);\r\n    }\r\n\r\n    function doGetMessages(address payable docAddress, address _partner) public view returns (string memory, string memory) {\r\n        return Nft(docAddress).getMessages(_partner);\r\n    }\r\n\r\n    function doRemoveUserFromAddressBook(address payable docAddress, address _userAddress) public {\r\n        Nft(docAddress).removeAddressFromBook(_userAddress);\r\n    }\r\n\r\n    function doAddUserToAddressBook(address payable docAddress, address _otherAccount, bytes32 _name, bool _coowner) public {\r\n        Nft(docAddress).addAddressToBook(_otherAccount, _name, _coowner);\r\n    }\r\n\r\n    function doTransferFunds(address payable docAddress, address payable _receiver, uint256 _amount) public payable {\r\n        Nft(docAddress).transferFunds(_receiver, _amount);\r\n    }\r\n\r\n    function doGetContactInfo(address payable docAddress, address _otherAccount) public view returns (address,bytes32,bool) {\r\n        return Nft(docAddress).getContactInfo(_otherAccount);\r\n    }\r\n\r\n    function doGetMarketplaceJson(address payable docAddress) public view returns (string memory) {\r\n        return Nft(docAddress).getMarketplaceJson();\r\n    }\r\n\r\n    function doUpdateMarketplaceJson(address payable docAddress, string memory _json) public {\r\n        Nft(docAddress).updateMarketplaceJson(_json);\r\n    }\r\n}\r\n",
  "sourcePath": "C:/Projects/bcommerce/contracts/Test.sol",
  "compiler": {
    "name": "solc",
    "version": "0.8.4+commit.c7e474f2.Emscripten.clang"
  },
  "schemaVersion": "3.3.4",
  "updatedAt": "2021-05-07T01:49:37.193Z",
  "devdoc": {
    "kind": "dev",
    "methods": {},
    "version": 1
  },
  "userdoc": {
    "kind": "user",
    "methods": {},
    "version": 1
  }
}